{
  "abi": [
    {
      "inputs": [
        {
          "internalType": "address",
          "name": "usdc",
          "type": "address"
        }
      ],
      "stateMutability": "nonpayable",
      "type": "constructor"
    },
    {
      "anonymous": false,
      "inputs": [
        {
          "indexed": true,
          "internalType": "address",
          "name": "owner",
          "type": "address"
        },
        {
          "indexed": true,
          "internalType": "address",
          "name": "approved",
          "type": "address"
        },
        {
          "indexed": true,
          "internalType": "uint256",
          "name": "tokenId",
          "type": "uint256"
        }
      ],
      "name": "Approval",
      "type": "event"
    },
    {
      "anonymous": false,
      "inputs": [
        {
          "indexed": true,
          "internalType": "address",
          "name": "owner",
          "type": "address"
        },
        {
          "indexed": true,
          "internalType": "address",
          "name": "operator",
          "type": "address"
        },
        {
          "indexed": false,
          "internalType": "bool",
          "name": "approved",
          "type": "bool"
        }
      ],
      "name": "ApprovalForAll",
      "type": "event"
    },
    {
      "anonymous": false,
      "inputs": [
        {
          "indexed": true,
          "internalType": "address",
          "name": "previousOwner",
          "type": "address"
        },
        {
          "indexed": true,
          "internalType": "address",
          "name": "newOwner",
          "type": "address"
        }
      ],
      "name": "OwnershipTransferred",
      "type": "event"
    },
    {
      "anonymous": false,
      "inputs": [
        {
          "indexed": true,
          "internalType": "address",
          "name": "from",
          "type": "address"
        },
        {
          "indexed": true,
          "internalType": "address",
          "name": "to",
          "type": "address"
        },
        {
          "indexed": true,
          "internalType": "uint256",
          "name": "tokenId",
          "type": "uint256"
        }
      ],
      "name": "Transfer",
      "type": "event"
    },
    {
      "inputs": [],
      "name": "MAX_SUPPLY",
      "outputs": [
        {
          "internalType": "uint256",
          "name": "",
          "type": "uint256"
        }
      ],
      "stateMutability": "view",
      "type": "function"
    },
    {
      "inputs": [
        {
          "internalType": "address",
          "name": "to",
          "type": "address"
        },
        {
          "internalType": "uint256",
          "name": "tokenId",
          "type": "uint256"
        }
      ],
      "name": "approve",
      "outputs": [],
      "stateMutability": "nonpayable",
      "type": "function"
    },
    {
      "inputs": [],
      "name": "autoDistribute",
      "outputs": [
        {
          "internalType": "bool",
          "name": "",
          "type": "bool"
        }
      ],
      "stateMutability": "view",
      "type": "function"
    },
    {
      "inputs": [
        {
          "internalType": "address",
          "name": "pcowner",
          "type": "address"
        }
      ],
      "name": "balanceOf",
      "outputs": [
        {
          "internalType": "uint256",
          "name": "",
          "type": "uint256"
        }
      ],
      "stateMutability": "view",
      "type": "function"
    },
    {
      "inputs": [],
      "name": "cost",
      "outputs": [
        {
          "internalType": "uint256",
          "name": "",
          "type": "uint256"
        }
      ],
      "stateMutability": "view",
      "type": "function"
    },
    {
      "inputs": [],
      "name": "disableMinting",
      "outputs": [],
      "stateMutability": "nonpayable",
      "type": "function"
    },
    {
      "inputs": [],
      "name": "distribute",
      "outputs": [],
      "stateMutability": "nonpayable",
      "type": "function"
    },
    {
      "inputs": [],
      "name": "enableMinting",
      "outputs": [],
      "stateMutability": "nonpayable",
      "type": "function"
    },
    {
      "inputs": [
        {
          "internalType": "uint256",
          "name": "tokenId",
          "type": "uint256"
        }
      ],
      "name": "getApproved",
      "outputs": [
        {
          "internalType": "address",
          "name": "",
          "type": "address"
        }
      ],
      "stateMutability": "view",
      "type": "function"
    },
    {
      "inputs": [
        {
          "internalType": "address",
          "name": "owner",
          "type": "address"
        }
      ],
      "name": "getIDsByOwner",
      "outputs": [
        {
          "internalType": "uint256[]",
          "name": "",
          "type": "uint256[]"
        }
      ],
      "stateMutability": "view",
      "type": "function"
    },
    {
      "inputs": [
        {
          "internalType": "address",
          "name": "pcowner",
          "type": "address"
        },
        {
          "internalType": "address",
          "name": "_operator",
          "type": "address"
        }
      ],
      "name": "isApprovedForAll",
      "outputs": [
        {
          "internalType": "bool",
          "name": "",
          "type": "bool"
        }
      ],
      "stateMutability": "view",
      "type": "function"
    },
    {
      "inputs": [
        {
          "internalType": "uint256",
          "name": "numberOfMints",
          "type": "uint256"
        }
      ],
      "name": "mint",
      "outputs": [],
      "stateMutability": "nonpayable",
      "type": "function"
    },
    {
      "inputs": [],
      "name": "mintToken",
      "outputs": [
        {
          "internalType": "contract IERC20",
          "name": "",
          "type": "address"
        }
      ],
      "stateMutability": "view",
      "type": "function"
    },
    {
      "inputs": [],
      "name": "mintingEnabled",
      "outputs": [
        {
          "internalType": "bool",
          "name": "",
          "type": "bool"
        }
      ],
      "stateMutability": "view",
      "type": "function"
    },
    {
      "inputs": [],
      "name": "name",
      "outputs": [
        {
          "internalType": "string",
          "name": "",
          "type": "string"
        }
      ],
      "stateMutability": "pure",
      "type": "function"
    },
    {
      "inputs": [],
      "name": "onReceivedRetval",
      "outputs": [
        {
          "internalType": "bytes4",
          "name": "",
          "type": "bytes4"
        }
      ],
      "stateMutability": "pure",
      "type": "function"
    },
    {
      "inputs": [],
      "name": "owner",
      "outputs": [
        {
          "internalType": "address",
          "name": "",
          "type": "address"
        }
      ],
      "stateMutability": "view",
      "type": "function"
    },
    {
      "inputs": [
        {
          "internalType": "address",
          "name": "to",
          "type": "address"
        },
        {
          "internalType": "uint256",
          "name": "qty",
          "type": "uint256"
        }
      ],
      "name": "ownerMint",
      "outputs": [],
      "stateMutability": "nonpayable",
      "type": "function"
    },
    {
      "inputs": [
        {
          "internalType": "uint256",
          "name": "tokenId",
          "type": "uint256"
        }
      ],
      "name": "ownerOf",
      "outputs": [
        {
          "internalType": "address",
          "name": "",
          "type": "address"
        }
      ],
      "stateMutability": "view",
      "type": "function"
    },
    {
      "inputs": [],
      "name": "renounceOwnership",
      "outputs": [],
      "stateMutability": "nonpayable",
      "type": "function"
    },
    {
      "inputs": [
        {
          "internalType": "address",
          "name": "from",
          "type": "address"
        },
        {
          "internalType": "address",
          "name": "to",
          "type": "address"
        },
        {
          "internalType": "uint256",
          "name": "tokenId",
          "type": "uint256"
        }
      ],
      "name": "safeTransferFrom",
      "outputs": [],
      "stateMutability": "nonpayable",
      "type": "function"
    },
    {
      "inputs": [
        {
          "internalType": "address",
          "name": "from",
          "type": "address"
        },
        {
          "internalType": "address",
          "name": "to",
          "type": "address"
        },
        {
          "internalType": "uint256",
          "name": "tokenId",
          "type": "uint256"
        },
        {
          "internalType": "bytes",
          "name": "_data",
          "type": "bytes"
        }
      ],
      "name": "safeTransferFrom",
      "outputs": [],
      "stateMutability": "nonpayable",
      "type": "function"
    },
    {
      "inputs": [
        {
          "internalType": "address",
          "name": "_operator",
          "type": "address"
        },
        {
          "internalType": "bool",
          "name": "approved",
          "type": "bool"
        }
      ],
      "name": "setApprovalForAll",
      "outputs": [],
      "stateMutability": "nonpayable",
      "type": "function"
    },
    {
      "inputs": [
        {
          "internalType": "bool",
          "name": "auto_",
          "type": "bool"
        }
      ],
      "name": "setAutoDistribute",
      "outputs": [],
      "stateMutability": "nonpayable",
      "type": "function"
    },
    {
      "inputs": [
        {
          "internalType": "string",
          "name": "newURI",
          "type": "string"
        }
      ],
      "name": "setBaseURI",
      "outputs": [],
      "stateMutability": "nonpayable",
      "type": "function"
    },
    {
      "inputs": [
        {
          "internalType": "uint256",
          "name": "newCost",
          "type": "uint256"
        }
      ],
      "name": "setCost",
      "outputs": [],
      "stateMutability": "nonpayable",
      "type": "function"
    },
    {
      "inputs": [
        {
          "internalType": "address",
          "name": "teamWallet_",
          "type": "address"
        }
      ],
      "name": "setTeamWallet",
      "outputs": [],
      "stateMutability": "nonpayable",
      "type": "function"
    },
    {
      "inputs": [
        {
          "internalType": "string",
          "name": "newExtention",
          "type": "string"
        }
      ],
      "name": "setURIExtention",
      "outputs": [],
      "stateMutability": "nonpayable",
      "type": "function"
    },
    {
      "inputs": [
        {
          "internalType": "bytes4",
          "name": "interfaceId",
          "type": "bytes4"
        }
      ],
      "name": "supportsInterface",
      "outputs": [
        {
          "internalType": "bool",
          "name": "",
          "type": "bool"
        }
      ],
      "stateMutability": "view",
      "type": "function"
    },
    {
      "inputs": [],
      "name": "symbol",
      "outputs": [
        {
          "internalType": "string",
          "name": "",
          "type": "string"
        }
      ],
      "stateMutability": "pure",
      "type": "function"
    },
    {
      "inputs": [],
      "name": "teamWallet",
      "outputs": [
        {
          "internalType": "address",
          "name": "",
          "type": "address"
        }
      ],
      "stateMutability": "view",
      "type": "function"
    },
    {
      "inputs": [
        {
          "internalType": "uint256",
          "name": "tokenId",
          "type": "uint256"
        }
      ],
      "name": "tokenURI",
      "outputs": [
        {
          "internalType": "string",
          "name": "",
          "type": "string"
        }
      ],
      "stateMutability": "view",
      "type": "function"
    },
    {
      "inputs": [],
      "name": "totalSupply",
      "outputs": [
        {
          "internalType": "uint256",
          "name": "",
          "type": "uint256"
        }
      ],
      "stateMutability": "view",
      "type": "function"
    },
    {
      "inputs": [
        {
          "internalType": "address",
          "name": "from",
          "type": "address"
        },
        {
          "internalType": "address",
          "name": "to",
          "type": "address"
        },
        {
          "internalType": "uint256",
          "name": "tokenId",
          "type": "uint256"
        }
      ],
      "name": "transferFrom",
      "outputs": [],
      "stateMutability": "nonpayable",
      "type": "function"
    },
    {
      "inputs": [
        {
          "internalType": "address",
          "name": "newOwner",
          "type": "address"
        }
      ],
      "name": "transferOwnership",
      "outputs": [],
      "stateMutability": "nonpayable",
      "type": "function"
    },
    {
      "inputs": [],
      "name": "withdraw",
      "outputs": [],
      "stateMutability": "nonpayable",
      "type": "function"
    },
    {
      "inputs": [
        {
          "internalType": "address",
          "name": "token_",
          "type": "address"
        }
      ],
      "name": "withdrawToken",
      "outputs": [],
      "stateMutability": "nonpayable",
      "type": "function"
    },
    {
      "stateMutability": "payable",
      "type": "receive"
    }
  ],
  "bytecode": {
    "object": "0x6305f5e1006006556007805460ff1916600117905560e0604052600360a0908152621d5c9b60ea1b60c052600890620000399082620001cf565b50604080518082019091526005815264173539b7b760d91b6020820152600990620000659082620001cf565b50600a80546001600160a81b03191674d3f9d5e2d0c43b4094d80d1213b44d4f63399c66001790553480156200009a57600080fd5b506040516200333438038062003334833981016040819052620000bd916200029b565b620000c833620000da565b6001600160a01b0316608052620002cd565b600080546001600160a01b038381166001600160a01b0319831681178455604051919092169283917f8be0079c531659141344cd1fd0a4f28419497f9722a3daafe3b4186f6b6457e09190a35050565b634e487b7160e01b600052604160045260246000fd5b600181811c908216806200015557607f821691505b6020821081036200017657634e487b7160e01b600052602260045260246000fd5b50919050565b601f821115620001ca57600081815260208120601f850160051c81016020861015620001a55750805b601f850160051c820191505b81811015620001c657828155600101620001b1565b5050505b505050565b81516001600160401b03811115620001eb57620001eb6200012a565b6200020381620001fc845462000140565b846200017c565b602080601f8311600181146200023b5760008415620002225750858301515b600019600386901b1c1916600185901b178555620001c6565b600085815260208120601f198616915b828110156200026c578886015182559484019460019091019084016200024b565b50858210156200028b5787850151600019600388901b60f8161c191681555b5050505050600190811b01905550565b600060208284031215620002ae57600080fd5b81516001600160a01b0381168114620002c657600080fd5b9392505050565b60805161302f62000305600039600081816103d001528181611cab01528181611dce01528181611eff0152611fd1015261302f6000f3fe60806040526004361061026e5760003560e01c80635bf244be11610153578063a0712d68116100cb578063c87b56dd1161007f578063e797ec1b11610064578063e797ec1b1461075b578063e985e9c514610770578063f2fde38b146107c657600080fd5b8063c87b56dd14610726578063e4fc6b6d1461074657600080fd5b8063a8f11eb9116100b0578063a8f11eb9146106b1578063ae9843d6146106cb578063b88d4fde1461070657600080fd5b8063a0712d6814610671578063a22cb4651461069157600080fd5b80637e5cd5c1116101225780638da5cb5b116101075780638da5cb5b146105e657806395d89b41146106115780639fd6db121461065757600080fd5b80637e5cd5c1146105b157806389476069146105c657600080fd5b80635bf244be1461052f5780636352211e1461055c57806370a082311461057c578063715018a61461059c57600080fd5b806332cb6b0c116101e657806344a0d68a116101b55780634e14ec4b1161019a5780634e14ec4b146104bd57806355f804b3146104dd57806359927044146104fd57600080fd5b806344a0d68a1461047d578063484b973c1461049d57600080fd5b806332cb6b0c146104125780633ccfd60b1461042857806342842e0e1461043d5780634408a0461461045d57600080fd5b806313faede61161023d57806318160ddd1161022257806318160ddd146103a95780632004ffd9146103be57806323b872dd146103f257600080fd5b806313faede6146103655780631525ff7d1461038957600080fd5b806301ffc9a71461027a57806306fdde03146102af578063081812fc146102fe578063095ea7b31461034357600080fd5b3661027557005b600080fd5b34801561028657600080fd5b5061029a61029536600461277e565b6107e6565b60405190151581526020015b60405180910390f35b3480156102bb57600080fd5b5060408051808201909152600981527f48616c616c616e6674000000000000000000000000000000000000000000000060208201525b6040516102a69190612818565b34801561030a57600080fd5b5061031e61031936600461282b565b6108cb565b60405173ffffffffffffffffffffffffffffffffffffffff90911681526020016102a6565b34801561034f57600080fd5b5061036361035e36600461286d565b6109aa565b005b34801561037157600080fd5b5061037b60065481565b6040519081526020016102a6565b34801561039557600080fd5b506103636103a4366004612897565b610b10565b3480156103b557600080fd5b5060015461037b565b3480156103ca57600080fd5b5061031e7f000000000000000000000000000000000000000000000000000000000000000081565b3480156103fe57600080fd5b5061036361040d3660046128b2565b610be1565b34801561041e57600080fd5b5061037b61177081565b34801561043457600080fd5b50610363610c5c565b34801561044957600080fd5b506103636104583660046128b2565b610cbc565b34801561046957600080fd5b506103636104783660046128ee565b610cd7565b34801561048957600080fd5b5061036361049836600461282b565b610cec565b3480156104a957600080fd5b506103636104b836600461286d565b610cf9565b3480156104c957600080fd5b506103636104d836600461296e565b610d2a565b3480156104e957600080fd5b506103636104f83660046128ee565b610d63565b34801561050957600080fd5b50600a5461031e90610100900473ffffffffffffffffffffffffffffffffffffffff1681565b34801561053b57600080fd5b5061054f61054a366004612897565b610d78565b6040516102a6919061298b565b34801561056857600080fd5b5061031e61057736600461282b565b610e62565b34801561058857600080fd5b5061037b610597366004612897565b610eee565b3480156105a857600080fd5b50610363610f96565b3480156105bd57600080fd5b50610363610faa565b3480156105d257600080fd5b506103636105e1366004612897565b610fdc565b3480156105f257600080fd5b5060005473ffffffffffffffffffffffffffffffffffffffff1661031e565b34801561061d57600080fd5b5060408051808201909152600581527f484c4e465400000000000000000000000000000000000000000000000000000060208201526102f1565b34801561066357600080fd5b50600a5461029a9060ff1681565b34801561067d57600080fd5b5061036361068c36600461282b565b611192565b34801561069d57600080fd5b506103636106ac3660046129cf565b6113e7565b3480156106bd57600080fd5b5060075461029a9060ff1681565b3480156106d757600080fd5b506040517f150b7a020000000000000000000000000000000000000000000000000000000081526020016102a6565b34801561071257600080fd5b50610363610721366004612a35565b6113f2565b34801561073257600080fd5b506102f161074136600461282b565b611474565b34801561075257600080fd5b5061036361155c565b34801561076757600080fd5b5061036361156c565b34801561077c57600080fd5b5061029a61078b366004612b2f565b73ffffffffffffffffffffffffffffffffffffffff918216600090815260056020908152604080832093909416825291909152205460ff1690565b3480156107d257600080fd5b506103636107e1366004612897565b6115a1565b60007fffffffff0000000000000000000000000000000000000000000000000000000082167f80ac58cd00000000000000000000000000000000000000000000000000000000148061087957507fffffffff0000000000000000000000000000000000000000000000000000000082167f5b5e139f00000000000000000000000000000000000000000000000000000000145b806108c557507f01ffc9a7000000000000000000000000000000000000000000000000000000007fffffffff000000000000000000000000000000000000000000000000000000008316145b92915050565b60008181526002602052604081205473ffffffffffffffffffffffffffffffffffffffff16610981576040517f08c379a000000000000000000000000000000000000000000000000000000000815260206004820152602360248201527f4552433732313a20717565727920666f72206e6f6e6578697374656e7420746f60448201527f6b656e000000000000000000000000000000000000000000000000000000000060648201526084015b60405180910390fd5b5060009081526004602052604090205473ffffffffffffffffffffffffffffffffffffffff1690565b60006109b582610e62565b90508073ffffffffffffffffffffffffffffffffffffffff168373ffffffffffffffffffffffffffffffffffffffff1603610a72576040517f08c379a000000000000000000000000000000000000000000000000000000000815260206004820152602160248201527f4552433732313a20617070726f76616c20746f2063757272656e74206f776e6560448201527f72000000000000000000000000000000000000000000000000000000000000006064820152608401610978565b3373ffffffffffffffffffffffffffffffffffffffff82161480610a9b5750610a9b813361078b565b610b01576040517f08c379a000000000000000000000000000000000000000000000000000000000815260206004820152601d60248201527f4552433732313a206e6f7420617070726f766564206f72206f776e65720000006044820152606401610978565b610b0b8383611655565b505050565b610b186116f5565b73ffffffffffffffffffffffffffffffffffffffff8116610b95576040517f08c379a000000000000000000000000000000000000000000000000000000000815260206004820152600c60248201527f5a65726f204164647265737300000000000000000000000000000000000000006044820152606401610978565b600a805473ffffffffffffffffffffffffffffffffffffffff909216610100027fffffffffffffffffffffff0000000000000000000000000000000000000000ff909216919091179055565b610beb3382611776565b610c51576040517f08c379a000000000000000000000000000000000000000000000000000000000815260206004820152601d60248201527f63616c6c6572206e6f74206f776e6572206e6f7220617070726f7665640000006044820152606401610978565b610b0b8383836118c0565b610c646116f5565b604051600090339047908381818185875af1925050503d8060008114610ca6576040519150601f19603f3d011682016040523d82523d6000602084013e610cab565b606091505b5050905080610cb957600080fd5b50565b610b0b838383604051806020016040528060008152506113f2565b610cdf6116f5565b6009610b0b828483612c03565b610cf46116f5565b600655565b610d016116f5565b60005b81811015610b0b57610d1883600154611b4e565b80610d2281612d4d565b915050610d04565b610d326116f5565b600780547fffffffffffffffffffffffffffffffffffffffffffffffffffffffffffffff0016911515919091179055565b610d6b6116f5565b6008610b0b828483612c03565b60606000610d8583610eee565b67ffffffffffffffff811115610d9d57610d9d612a06565b604051908082528060200260200182016040528015610dc6578160200160208202803683370190505b509050610dd283610eee565b600003610ddf5792915050565b6000805b600154811015610e595760008181526002602052604090205473ffffffffffffffffffffffffffffffffffffffff808716911603610e475780838381518110610e2e57610e2e612d85565b602090810291909101015281610e4381612d4d565b9250505b80610e5181612d4d565b915050610de3565b50909392505050565b60008181526002602052604081205473ffffffffffffffffffffffffffffffffffffffff16806108c5576040517f08c379a000000000000000000000000000000000000000000000000000000000815260206004820152601b60248201527f717565727920666f72206e6f6e6578697374656e7420746f6b656e00000000006044820152606401610978565b600073ffffffffffffffffffffffffffffffffffffffff8216610f6d576040517f08c379a000000000000000000000000000000000000000000000000000000000815260206004820152601a60248201527f717565727920666f7220746865207a65726f20616464726573730000000000006044820152606401610978565b5073ffffffffffffffffffffffffffffffffffffffff1660009081526003602052604090205490565b610f9e6116f5565b610fa86000611c00565b565b610fb26116f5565b600a80547fffffffffffffffffffffffffffffffffffffffffffffffffffffffffffffff00169055565b610fe46116f5565b73ffffffffffffffffffffffffffffffffffffffff8116611061576040517f08c379a000000000000000000000000000000000000000000000000000000000815260206004820152600c60248201527f5a65726f204164647265737300000000000000000000000000000000000000006044820152606401610978565b6040517f70a0823100000000000000000000000000000000000000000000000000000000815230600482015273ffffffffffffffffffffffffffffffffffffffff82169063a9059cbb90339083906370a0823190602401602060405180830381865afa1580156110d5573d6000803e3d6000fd5b505050506040513d601f19601f820116820180604052508101906110f99190612db4565b6040517fffffffff0000000000000000000000000000000000000000000000000000000060e085901b16815273ffffffffffffffffffffffffffffffffffffffff909216600483015260248201526044015b6020604051808303816000875af115801561116a573d6000803e3d6000fd5b505050506040513d601f19601f8201168201806040525081019061118e9190612dcd565b5050565b600a5460ff166111fe576040517f08c379a000000000000000000000000000000000000000000000000000000000815260206004820152601360248201527f4d696e74696e67204e6f7420456e61626c6564000000000000000000000000006044820152606401610978565b60008111611268576040517f08c379a000000000000000000000000000000000000000000000000000000000815260206004820152600d60248201527f496e76616c696420496e707574000000000000000000000000000000000000006044820152606401610978565b6107d060015410156112f2576107d0816001546112859190612dea565b11156112ed576040517f08c379a000000000000000000000000000000000000000000000000000000000815260206004820152601760248201527f4d696e74204578636565647320427265616b706f696e740000000000000000006044820152606401610978565b611394565b610fa0600154101561130f57610fa0816001546112859190612dea565b6117706001541015611394576117708160015461132c9190612dea565b1115611394576040517f08c379a000000000000000000000000000000000000000000000000000000000815260206004820152601760248201527f4d696e74204578636565647320427265616b706f696e740000000000000000006044820152606401610978565b6113aa816006546113a59190612e02565b611c75565b60005b818110156113d3576113c133600154611b4e565b806113cb81612d4d565b9150506113ad565b5060075460ff1615610cb957610cb9611eb6565b61118e338383612000565b6113fc3383611776565b611462576040517f08c379a000000000000000000000000000000000000000000000000000000000815260206004820152601d60248201527f63616c6c6572206e6f74206f776e6572206e6f7220617070726f7665640000006044820152606401610978565b61146e8484848461212d565b50505050565b60008181526002602052604090205460609073ffffffffffffffffffffffffffffffffffffffff16611502576040517f08c379a000000000000000000000000000000000000000000000000000000000815260206004820152601160248201527f6e6f6e6578697374656e7420746f6b656e0000000000000000000000000000006044820152606401610978565b6000600861150f846121d0565b604051602001611520929190612ed0565b6040516020818303038152906040529050806009604051602001611545929190612ef5565b604051602081830303815290604052915050919050565b6115646116f5565b610fa8611eb6565b6115746116f5565b600a80547fffffffffffffffffffffffffffffffffffffffffffffffffffffffffffffff00166001179055565b6115a96116f5565b73ffffffffffffffffffffffffffffffffffffffff811661164c576040517f08c379a000000000000000000000000000000000000000000000000000000000815260206004820152602660248201527f4f776e61626c653a206e6577206f776e657220697320746865207a65726f206160448201527f64647265737300000000000000000000000000000000000000000000000000006064820152608401610978565b610cb981611c00565b600081815260046020526040902080547fffffffffffffffffffffffff00000000000000000000000000000000000000001673ffffffffffffffffffffffffffffffffffffffff841690811790915581906116af82610e62565b73ffffffffffffffffffffffffffffffffffffffff167f8c5be1e5ebec7d5bd14f71427d1e84f3dd0314c0f7b2291e5b200ac8c7c3b92560405160405180910390a45050565b60005473ffffffffffffffffffffffffffffffffffffffff163314610fa8576040517f08c379a000000000000000000000000000000000000000000000000000000000815260206004820181905260248201527f4f776e61626c653a2063616c6c6572206973206e6f7420746865206f776e65726044820152606401610978565b60008181526002602052604081205473ffffffffffffffffffffffffffffffffffffffff16611801576040517f08c379a000000000000000000000000000000000000000000000000000000000815260206004820152601960248201527f4552433732313a206e6f6e6578697374656e7420746f6b656e000000000000006044820152606401610978565b600061180c83610e62565b90508073ffffffffffffffffffffffffffffffffffffffff168473ffffffffffffffffffffffffffffffffffffffff16148061187b57508373ffffffffffffffffffffffffffffffffffffffff16611863846108cb565b73ffffffffffffffffffffffffffffffffffffffff16145b806118b8575073ffffffffffffffffffffffffffffffffffffffff80821660009081526005602090815260408083209388168352929052205460ff165b949350505050565b8273ffffffffffffffffffffffffffffffffffffffff166118e082610e62565b73ffffffffffffffffffffffffffffffffffffffff161461195d576040517f08c379a000000000000000000000000000000000000000000000000000000000815260206004820152600f60248201527f496e636f7272656374206f776e657200000000000000000000000000000000006044820152606401610978565b73ffffffffffffffffffffffffffffffffffffffff82166119da576040517f08c379a000000000000000000000000000000000000000000000000000000000815260206004820152600c60248201527f7a65726f206164647265737300000000000000000000000000000000000000006044820152606401610978565b60006119e584610eee565b11611a4c576040517f08c379a000000000000000000000000000000000000000000000000000000000815260206004820152600c60248201527f5a65726f2042616c616e636500000000000000000000000000000000000000006044820152606401610978565b611a57600082611655565b73ffffffffffffffffffffffffffffffffffffffff83166000908152600360205260408120805460019290611a8d908490612f1c565b909155505073ffffffffffffffffffffffffffffffffffffffff82166000908152600360205260408120805460019290611ac8908490612dea565b909155505060008181526002602052604080822080547fffffffffffffffffffffffff00000000000000000000000000000000000000001673ffffffffffffffffffffffffffffffffffffffff86811691821790925591518493918716917fddf252ad1be2c89b69c2b068fc378daa952ba7f163c4a11628f55a4df523b3ef91a4505050565b611b588282612330565b611b74600083836040518060200160405280600081525061255d565b61118e576040517f08c379a000000000000000000000000000000000000000000000000000000000815260206004820152603260248201527f4552433732313a207472616e7366657220746f206e6f6e20455243373231526560448201527f63656976657220696d706c656d656e74657200000000000000000000000000006064820152608401610978565b6000805473ffffffffffffffffffffffffffffffffffffffff8381167fffffffffffffffffffffffff0000000000000000000000000000000000000000831681178455604051919092169283917f8be0079c531659141344cd1fd0a4f28419497f9722a3daafe3b4186f6b6457e09190a35050565b6040517fdd62ed3e00000000000000000000000000000000000000000000000000000000815233600482015230602482015281907f000000000000000000000000000000000000000000000000000000000000000073ffffffffffffffffffffffffffffffffffffffff169063dd62ed3e90604401602060405180830381865afa158015611d07573d6000803e3d6000fd5b505050506040513d601f19601f82011682018060405250810190611d2b9190612db4565b1015611d93576040517f08c379a000000000000000000000000000000000000000000000000000000000815260206004820152601660248201527f496e73756666696369656e7420416c6c6f77616e6365000000000000000000006044820152606401610978565b6040517f23b872dd000000000000000000000000000000000000000000000000000000008152336004820152306024820152604481018290527f000000000000000000000000000000000000000000000000000000000000000073ffffffffffffffffffffffffffffffffffffffff16906323b872dd906064016020604051808303816000875af1158015611e2c573d6000803e3d6000fd5b505050506040513d601f19601f82011682018060405250810190611e509190612dcd565b610cb9576040517f08c379a000000000000000000000000000000000000000000000000000000000815260206004820152601560248201527f4661696c757265205472616e736665722046726f6d00000000000000000000006044820152606401610978565b6040517f70a0823100000000000000000000000000000000000000000000000000000000815230600482015260009060029073ffffffffffffffffffffffffffffffffffffffff7f000000000000000000000000000000000000000000000000000000000000000016906370a0823190602401602060405180830381865afa158015611f46573d6000803e3d6000fd5b505050506040513d601f19601f82011682018060405250810190611f6a9190612db4565b611f749190612f33565b90508015610cb957600a546040517fa9059cbb00000000000000000000000000000000000000000000000000000000815261010090910473ffffffffffffffffffffffffffffffffffffffff9081166004830152602482018390527f0000000000000000000000000000000000000000000000000000000000000000169063a9059cbb9060440161114b565b8173ffffffffffffffffffffffffffffffffffffffff168373ffffffffffffffffffffffffffffffffffffffff1603612095576040517f08c379a000000000000000000000000000000000000000000000000000000000815260206004820152601960248201527f4552433732313a20617070726f766520746f2063616c6c6572000000000000006044820152606401610978565b73ffffffffffffffffffffffffffffffffffffffff83811660008181526005602090815260408083209487168084529482529182902080547fffffffffffffffffffffffffffffffffffffffffffffffffffffffffffffff001686151590811790915591519182527f17307eab39ab6107e8899845ad3d59bd9653f200f220920489ca2b5937696c31910160405180910390a3505050565b6121388484846118c0565b6121448484848461255d565b61146e576040517f08c379a000000000000000000000000000000000000000000000000000000000815260206004820152602660248201527f4552433732313a206e6f6e20455243373231526563656976657220696d706c6560448201527f6d656e74657200000000000000000000000000000000000000000000000000006064820152608401610978565b60608160000361221357505060408051808201909152600181527f3000000000000000000000000000000000000000000000000000000000000000602082015290565b8160005b811561223d578061222781612d4d565b91506122369050600a83612f33565b9150612217565b60008167ffffffffffffffff81111561225857612258612a06565b6040519080825280601f01601f191660200182016040528015612282576020820181803683370190505b509050815b851561232757612298600182612f1c565b905060006122a7600a88612f33565b6122b290600a612e02565b6122bc9088612f1c565b6122c7906030612f6e565b905060008160f81b9050808484815181106122e4576122e4612d85565b60200101907effffffffffffffffffffffffffffffffffffffffffffffffffffffffffffff1916908160001a90535061231e600a89612f33565b97505050612287565b50949350505050565b60008181526002602052604090205473ffffffffffffffffffffffffffffffffffffffff16156123bc576040517f08c379a000000000000000000000000000000000000000000000000000000000815260206004820152601c60248201527f4552433732313a20746f6b656e20616c7265616479206d696e746564000000006044820152606401610978565b61177060015410612429576040517f08c379a000000000000000000000000000000000000000000000000000000000815260206004820152601960248201527f416c6c204e4654732048617665204265656e204d696e746564000000000000006044820152606401610978565b73ffffffffffffffffffffffffffffffffffffffff8216600090815260036020526040812080546001929061245f908490612dea565b9091555050600081815260026020526040812080547fffffffffffffffffffffffff00000000000000000000000000000000000000001673ffffffffffffffffffffffffffffffffffffffff851617905560018054916124be83612d4d565b91905055506107d060015414806124d85750610fa0600154145b806124e65750611770600154145b1561251457600a80547fffffffffffffffffffffffffffffffffffffffffffffffffffffffffffffff001690555b604051819073ffffffffffffffffffffffffffffffffffffffff8416906000907fddf252ad1be2c89b69c2b068fc378daa952ba7f163c4a11628f55a4df523b3ef908290a45050565b600073ffffffffffffffffffffffffffffffffffffffff84163b15612745576040517f150b7a0200000000000000000000000000000000000000000000000000000000815273ffffffffffffffffffffffffffffffffffffffff85169063150b7a02906125d4903390899088908890600401612f93565b6020604051808303816000875af192505050801561262d575060408051601f3d9081017fffffffffffffffffffffffffffffffffffffffffffffffffffffffffffffffe016820190925261262a91810190612fdc565b60015b6126fa573d80801561265b576040519150601f19603f3d011682016040523d82523d6000602084013e612660565b606091505b5080516000036126f2576040517f08c379a000000000000000000000000000000000000000000000000000000000815260206004820152602660248201527f4552433732313a206e6f6e20455243373231526563656976657220696d706c6560448201527f6d656e74657200000000000000000000000000000000000000000000000000006064820152608401610978565b805181602001fd5b7fffffffff00000000000000000000000000000000000000000000000000000000167f150b7a02000000000000000000000000000000000000000000000000000000001490506118b8565b506001949350505050565b7fffffffff0000000000000000000000000000000000000000000000000000000081168114610cb957600080fd5b60006020828403121561279057600080fd5b813561279b81612750565b9392505050565b60005b838110156127bd5781810151838201526020016127a5565b8381111561146e5750506000910152565b600081518084526127e68160208601602086016127a2565b601f017fffffffffffffffffffffffffffffffffffffffffffffffffffffffffffffffe0169290920160200192915050565b60208152600061279b60208301846127ce565b60006020828403121561283d57600080fd5b5035919050565b803573ffffffffffffffffffffffffffffffffffffffff8116811461286857600080fd5b919050565b6000806040838503121561288057600080fd5b61288983612844565b946020939093013593505050565b6000602082840312156128a957600080fd5b61279b82612844565b6000806000606084860312156128c757600080fd5b6128d084612844565b92506128de60208501612844565b9150604084013590509250925092565b6000806020838503121561290157600080fd5b823567ffffffffffffffff8082111561291957600080fd5b818501915085601f83011261292d57600080fd5b81358181111561293c57600080fd5b86602082850101111561294e57600080fd5b60209290920196919550909350505050565b8015158114610cb957600080fd5b60006020828403121561298057600080fd5b813561279b81612960565b6020808252825182820181905260009190848201906040850190845b818110156129c3578351835292840192918401916001016129a7565b50909695505050505050565b600080604083850312156129e257600080fd5b6129eb83612844565b915060208301356129fb81612960565b809150509250929050565b7f4e487b7100000000000000000000000000000000000000000000000000000000600052604160045260246000fd5b60008060008060808587031215612a4b57600080fd5b612a5485612844565b9350612a6260208601612844565b925060408501359150606085013567ffffffffffffffff80821115612a8657600080fd5b818701915087601f830112612a9a57600080fd5b813581811115612aac57612aac612a06565b604051601f82017fffffffffffffffffffffffffffffffffffffffffffffffffffffffffffffffe0908116603f01168101908382118183101715612af257612af2612a06565b816040528281528a6020848701011115612b0b57600080fd5b82602086016020830137600060208483010152809550505050505092959194509250565b60008060408385031215612b4257600080fd5b612b4b83612844565b9150612b5960208401612844565b90509250929050565b600181811c90821680612b7657607f821691505b602082108103612baf577f4e487b7100000000000000000000000000000000000000000000000000000000600052602260045260246000fd5b50919050565b601f821115610b0b57600081815260208120601f850160051c81016020861015612bdc5750805b601f850160051c820191505b81811015612bfb57828155600101612be8565b505050505050565b67ffffffffffffffff831115612c1b57612c1b612a06565b612c2f83612c298354612b62565b83612bb5565b6000601f841160018114612c815760008515612c4b5750838201355b7fffffffffffffffffffffffffffffffffffffffffffffffffffffffffffffffff600387901b1c1916600186901b178355612d17565b6000838152602090207fffffffffffffffffffffffffffffffffffffffffffffffffffffffffffffffe0861690835b82811015612cd05786850135825560209485019460019092019101612cb0565b5086821015612d0b577fffffffffffffffffffffffffffffffffffffffffffffffffffffffffffffffff60f88860031b161c19848701351681555b505060018560011b0183555b5050505050565b7f4e487b7100000000000000000000000000000000000000000000000000000000600052601160045260246000fd5b60007fffffffffffffffffffffffffffffffffffffffffffffffffffffffffffffffff8203612d7e57612d7e612d1e565b5060010190565b7f4e487b7100000000000000000000000000000000000000000000000000000000600052603260045260246000fd5b600060208284031215612dc657600080fd5b5051919050565b600060208284031215612ddf57600080fd5b815161279b81612960565b60008219821115612dfd57612dfd612d1e565b500190565b6000817fffffffffffffffffffffffffffffffffffffffffffffffffffffffffffffffff0483118215151615612e3a57612e3a612d1e565b500290565b60008154612e4c81612b62565b60018281168015612e645760018114612e9757612ec6565b7fffffffffffffffffffffffffffffffffffffffffffffffffffffffffffffff0084168752821515830287019450612ec6565b8560005260208060002060005b85811015612ebd5781548a820152908401908201612ea4565b50505082870194505b5050505092915050565b6000612edc8285612e3f565b8351612eec8183602088016127a2565b01949350505050565b60008351612f078184602088016127a2565b612f1381840185612e3f565b95945050505050565b600082821015612f2e57612f2e612d1e565b500390565b600082612f69577f4e487b7100000000000000000000000000000000000000000000000000000000600052601260045260246000fd5b500490565b600060ff821660ff84168060ff03821115612f8b57612f8b612d1e565b019392505050565b600073ffffffffffffffffffffffffffffffffffffffff808716835280861660208401525083604083015260806060830152612fd260808301846127ce565b9695505050505050565b600060208284031215612fee57600080fd5b815161279b8161275056fea26469706673582212208662112641f7bd569c1ae1e2914403fdb4f502ede5864ac8aa22b5dab91d21c264736f6c634300080f0033",
    "linkReferences": {}
  },
  "methodIdentifiers": {
    "MAX_SUPPLY()": "32cb6b0c",
    "approve(address,uint256)": "095ea7b3",
    "autoDistribute()": "a8f11eb9",
    "balanceOf(address)": "70a08231",
    "cost()": "13faede6",
    "disableMinting()": "7e5cd5c1",
    "distribute()": "e4fc6b6d",
    "enableMinting()": "e797ec1b",
    "getApproved(uint256)": "081812fc",
    "getIDsByOwner(address)": "5bf244be",
    "isApprovedForAll(address,address)": "e985e9c5",
    "mint(uint256)": "a0712d68",
    "mintToken()": "2004ffd9",
    "mintingEnabled()": "9fd6db12",
    "name()": "06fdde03",
    "onReceivedRetval()": "ae9843d6",
    "owner()": "8da5cb5b",
    "ownerMint(address,uint256)": "484b973c",
    "ownerOf(uint256)": "6352211e",
    "renounceOwnership()": "715018a6",
    "safeTransferFrom(address,address,uint256)": "42842e0e",
    "safeTransferFrom(address,address,uint256,bytes)": "b88d4fde",
    "setApprovalForAll(address,bool)": "a22cb465",
    "setAutoDistribute(bool)": "4e14ec4b",
    "setBaseURI(string)": "55f804b3",
    "setCost(uint256)": "44a0d68a",
    "setTeamWallet(address)": "1525ff7d",
    "setURIExtention(string)": "4408a046",
    "supportsInterface(bytes4)": "01ffc9a7",
    "symbol()": "95d89b41",
    "teamWallet()": "59927044",
    "tokenURI(uint256)": "c87b56dd",
    "totalSupply()": "18160ddd",
    "transferFrom(address,address,uint256)": "23b872dd",
    "transferOwnership(address)": "f2fde38b",
    "withdraw()": "3ccfd60b",
    "withdrawToken(address)": "89476069"
  },
  "id": 18
}