{
  "abi": [
    {
      "inputs": [
        {
          "internalType": "address",
          "name": "_usdc",
          "type": "address"
        },
        {
          "internalType": "address",
          "name": "_feed",
          "type": "address"
        }
      ],
      "stateMutability": "nonpayable",
      "type": "constructor"
    },
    {
      "inputs": [],
      "name": "ApprovalCallerNotOwnerNorApproved",
      "type": "error"
    },
    {
      "inputs": [],
      "name": "ApprovalQueryForNonexistentToken",
      "type": "error"
    },
    {
      "inputs": [],
      "name": "BalanceQueryForZeroAddress",
      "type": "error"
    },
    {
      "inputs": [],
      "name": "InvalidQueryRange",
      "type": "error"
    },
    {
      "inputs": [],
      "name": "MintERC2309QuantityExceedsLimit",
      "type": "error"
    },
    {
      "inputs": [],
      "name": "MintToZeroAddress",
      "type": "error"
    },
    {
      "inputs": [],
      "name": "MintZeroQuantity",
      "type": "error"
    },
    {
      "inputs": [],
      "name": "OwnerQueryForNonexistentToken",
      "type": "error"
    },
    {
      "inputs": [],
      "name": "OwnershipNotInitializedForExtraData",
      "type": "error"
    },
    {
      "inputs": [],
      "name": "TransferCallerNotOwnerNorApproved",
      "type": "error"
    },
    {
      "inputs": [],
      "name": "TransferFromIncorrectOwner",
      "type": "error"
    },
    {
      "inputs": [],
      "name": "TransferToNonERC721ReceiverImplementer",
      "type": "error"
    },
    {
      "inputs": [],
      "name": "TransferToZeroAddress",
      "type": "error"
    },
    {
      "inputs": [],
      "name": "URIQueryForNonexistentToken",
      "type": "error"
    },
    {
      "anonymous": false,
      "inputs": [
        {
          "indexed": true,
          "internalType": "address",
          "name": "owner",
          "type": "address"
        },
        {
          "indexed": true,
          "internalType": "address",
          "name": "approved",
          "type": "address"
        },
        {
          "indexed": true,
          "internalType": "uint256",
          "name": "tokenId",
          "type": "uint256"
        }
      ],
      "name": "Approval",
      "type": "event"
    },
    {
      "anonymous": false,
      "inputs": [
        {
          "indexed": true,
          "internalType": "address",
          "name": "owner",
          "type": "address"
        },
        {
          "indexed": true,
          "internalType": "address",
          "name": "operator",
          "type": "address"
        },
        {
          "indexed": false,
          "internalType": "bool",
          "name": "approved",
          "type": "bool"
        }
      ],
      "name": "ApprovalForAll",
      "type": "event"
    },
    {
      "anonymous": false,
      "inputs": [
        {
          "indexed": true,
          "internalType": "uint256",
          "name": "fromTokenId",
          "type": "uint256"
        },
        {
          "indexed": false,
          "internalType": "uint256",
          "name": "toTokenId",
          "type": "uint256"
        },
        {
          "indexed": true,
          "internalType": "address",
          "name": "from",
          "type": "address"
        },
        {
          "indexed": true,
          "internalType": "address",
          "name": "to",
          "type": "address"
        }
      ],
      "name": "ConsecutiveTransfer",
      "type": "event"
    },
    {
      "anonymous": false,
      "inputs": [
        {
          "indexed": true,
          "internalType": "address",
          "name": "previousOwner",
          "type": "address"
        },
        {
          "indexed": true,
          "internalType": "address",
          "name": "newOwner",
          "type": "address"
        }
      ],
      "name": "OwnershipTransferStarted",
      "type": "event"
    },
    {
      "anonymous": false,
      "inputs": [
        {
          "indexed": true,
          "internalType": "address",
          "name": "previousOwner",
          "type": "address"
        },
        {
          "indexed": true,
          "internalType": "address",
          "name": "newOwner",
          "type": "address"
        }
      ],
      "name": "OwnershipTransferred",
      "type": "event"
    },
    {
      "anonymous": false,
      "inputs": [
        {
          "indexed": true,
          "internalType": "address",
          "name": "from",
          "type": "address"
        },
        {
          "indexed": true,
          "internalType": "address",
          "name": "to",
          "type": "address"
        },
        {
          "indexed": true,
          "internalType": "uint256",
          "name": "tokenId",
          "type": "uint256"
        }
      ],
      "name": "Transfer",
      "type": "event"
    },
    {
      "inputs": [],
      "name": "acceptOwnership",
      "outputs": [],
      "stateMutability": "nonpayable",
      "type": "function"
    },
    {
      "inputs": [
        {
          "internalType": "address",
          "name": "to",
          "type": "address"
        },
        {
          "internalType": "uint256",
          "name": "tokenId",
          "type": "uint256"
        }
      ],
      "name": "approve",
      "outputs": [],
      "stateMutability": "payable",
      "type": "function"
    },
    {
      "inputs": [
        {
          "internalType": "address",
          "name": "owner",
          "type": "address"
        }
      ],
      "name": "balanceOf",
      "outputs": [
        {
          "internalType": "uint256",
          "name": "",
          "type": "uint256"
        }
      ],
      "stateMutability": "view",
      "type": "function"
    },
    {
      "inputs": [],
      "name": "disablePublicMinting",
      "outputs": [],
      "stateMutability": "nonpayable",
      "type": "function"
    },
    {
      "inputs": [],
      "name": "enablePublicMinting",
      "outputs": [],
      "stateMutability": "nonpayable",
      "type": "function"
    },
    {
      "inputs": [
        {
          "internalType": "uint256",
          "name": "tokenId",
          "type": "uint256"
        }
      ],
      "name": "explicitOwnershipOf",
      "outputs": [
        {
          "components": [
            {
              "internalType": "address",
              "name": "addr",
              "type": "address"
            },
            {
              "internalType": "uint64",
              "name": "startTimestamp",
              "type": "uint64"
            },
            {
              "internalType": "bool",
              "name": "burned",
              "type": "bool"
            },
            {
              "internalType": "uint24",
              "name": "extraData",
              "type": "uint24"
            }
          ],
          "internalType": "struct IERC721A.TokenOwnership",
          "name": "",
          "type": "tuple"
        }
      ],
      "stateMutability": "view",
      "type": "function"
    },
    {
      "inputs": [
        {
          "internalType": "uint256[]",
          "name": "tokenIds",
          "type": "uint256[]"
        }
      ],
      "name": "explicitOwnershipsOf",
      "outputs": [
        {
          "components": [
            {
              "internalType": "address",
              "name": "addr",
              "type": "address"
            },
            {
              "internalType": "uint64",
              "name": "startTimestamp",
              "type": "uint64"
            },
            {
              "internalType": "bool",
              "name": "burned",
              "type": "bool"
            },
            {
              "internalType": "uint24",
              "name": "extraData",
              "type": "uint24"
            }
          ],
          "internalType": "struct IERC721A.TokenOwnership[]",
          "name": "",
          "type": "tuple[]"
        }
      ],
      "stateMutability": "view",
      "type": "function"
    },
    {
      "inputs": [
        {
          "internalType": "uint256",
          "name": "tokenId",
          "type": "uint256"
        }
      ],
      "name": "getApproved",
      "outputs": [
        {
          "internalType": "address",
          "name": "",
          "type": "address"
        }
      ],
      "stateMutability": "view",
      "type": "function"
    },
    {
      "inputs": [],
      "name": "getCurrentPrice",
      "outputs": [
        {
          "internalType": "uint256",
          "name": "",
          "type": "uint256"
        }
      ],
      "stateMutability": "view",
      "type": "function"
    },
    {
      "inputs": [
        {
          "internalType": "address",
          "name": "owner",
          "type": "address"
        },
        {
          "internalType": "address",
          "name": "operator",
          "type": "address"
        }
      ],
      "name": "isApprovedForAll",
      "outputs": [
        {
          "internalType": "bool",
          "name": "",
          "type": "bool"
        }
      ],
      "stateMutability": "view",
      "type": "function"
    },
    {
      "inputs": [],
      "name": "name",
      "outputs": [
        {
          "internalType": "string",
          "name": "",
          "type": "string"
        }
      ],
      "stateMutability": "view",
      "type": "function"
    },
    {
      "inputs": [],
      "name": "owner",
      "outputs": [
        {
          "internalType": "address",
          "name": "",
          "type": "address"
        }
      ],
      "stateMutability": "view",
      "type": "function"
    },
    {
      "inputs": [
        {
          "internalType": "address",
          "name": "to",
          "type": "address"
        },
        {
          "internalType": "uint256",
          "name": "quantity",
          "type": "uint256"
        }
      ],
      "name": "ownerMint",
      "outputs": [],
      "stateMutability": "nonpayable",
      "type": "function"
    },
    {
      "inputs": [
        {
          "internalType": "uint256",
          "name": "tokenId",
          "type": "uint256"
        }
      ],
      "name": "ownerOf",
      "outputs": [
        {
          "internalType": "address",
          "name": "",
          "type": "address"
        }
      ],
      "stateMutability": "view",
      "type": "function"
    },
    {
      "inputs": [],
      "name": "pendingOwner",
      "outputs": [
        {
          "internalType": "address",
          "name": "",
          "type": "address"
        }
      ],
      "stateMutability": "view",
      "type": "function"
    },
    {
      "inputs": [
        {
          "internalType": "bytes32[]",
          "name": "_merkleProof",
          "type": "bytes32[]"
        }
      ],
      "name": "presale",
      "outputs": [],
      "stateMutability": "payable",
      "type": "function"
    },
    {
      "inputs": [
        {
          "internalType": "uint256",
          "name": "_amount",
          "type": "uint256"
        }
      ],
      "name": "publicMint",
      "outputs": [],
      "stateMutability": "payable",
      "type": "function"
    },
    {
      "inputs": [],
      "name": "publicMintingEnabled",
      "outputs": [
        {
          "internalType": "bool",
          "name": "",
          "type": "bool"
        }
      ],
      "stateMutability": "view",
      "type": "function"
    },
    {
      "inputs": [],
      "name": "renounceOwnership",
      "outputs": [],
      "stateMutability": "pure",
      "type": "function"
    },
    {
      "inputs": [
        {
          "internalType": "uint256",
          "name": "_tokenId",
          "type": "uint256"
        },
        {
          "internalType": "uint256",
          "name": "_salePrice",
          "type": "uint256"
        }
      ],
      "name": "royaltyInfo",
      "outputs": [
        {
          "internalType": "address",
          "name": "",
          "type": "address"
        },
        {
          "internalType": "uint256",
          "name": "",
          "type": "uint256"
        }
      ],
      "stateMutability": "view",
      "type": "function"
    },
    {
      "inputs": [
        {
          "internalType": "address",
          "name": "from",
          "type": "address"
        },
        {
          "internalType": "address",
          "name": "to",
          "type": "address"
        },
        {
          "internalType": "uint256",
          "name": "tokenId",
          "type": "uint256"
        }
      ],
      "name": "safeTransferFrom",
      "outputs": [],
      "stateMutability": "payable",
      "type": "function"
    },
    {
      "inputs": [
        {
          "internalType": "address",
          "name": "from",
          "type": "address"
        },
        {
          "internalType": "address",
          "name": "to",
          "type": "address"
        },
        {
          "internalType": "uint256",
          "name": "tokenId",
          "type": "uint256"
        },
        {
          "internalType": "bytes",
          "name": "_data",
          "type": "bytes"
        }
      ],
      "name": "safeTransferFrom",
      "outputs": [],
      "stateMutability": "payable",
      "type": "function"
    },
    {
      "inputs": [
        {
          "internalType": "address",
          "name": "operator",
          "type": "address"
        },
        {
          "internalType": "bool",
          "name": "approved",
          "type": "bool"
        }
      ],
      "name": "setApprovalForAll",
      "outputs": [],
      "stateMutability": "nonpayable",
      "type": "function"
    },
    {
      "inputs": [
        {
          "internalType": "string",
          "name": "newURI",
          "type": "string"
        }
      ],
      "name": "setBaseURI",
      "outputs": [],
      "stateMutability": "nonpayable",
      "type": "function"
    },
    {
      "inputs": [
        {
          "internalType": "bytes32",
          "name": "merkleRoot_",
          "type": "bytes32"
        }
      ],
      "name": "setMerkleRoot",
      "outputs": [],
      "stateMutability": "nonpayable",
      "type": "function"
    },
    {
      "inputs": [
        {
          "internalType": "string",
          "name": "newExtention",
          "type": "string"
        }
      ],
      "name": "setURIExtention",
      "outputs": [],
      "stateMutability": "nonpayable",
      "type": "function"
    },
    {
      "inputs": [
        {
          "internalType": "uint256",
          "name": "_newPrice",
          "type": "uint256"
        }
      ],
      "name": "setUSDPrice",
      "outputs": [],
      "stateMutability": "nonpayable",
      "type": "function"
    },
    {
      "inputs": [
        {
          "internalType": "bytes4",
          "name": "interfaceId",
          "type": "bytes4"
        }
      ],
      "name": "supportsInterface",
      "outputs": [
        {
          "internalType": "bool",
          "name": "",
          "type": "bool"
        }
      ],
      "stateMutability": "view",
      "type": "function"
    },
    {
      "inputs": [],
      "name": "symbol",
      "outputs": [
        {
          "internalType": "string",
          "name": "",
          "type": "string"
        }
      ],
      "stateMutability": "view",
      "type": "function"
    },
    {
      "inputs": [
        {
          "internalType": "uint256",
          "name": "tokenId",
          "type": "uint256"
        }
      ],
      "name": "tokenURI",
      "outputs": [
        {
          "internalType": "string",
          "name": "",
          "type": "string"
        }
      ],
      "stateMutability": "view",
      "type": "function"
    },
    {
      "inputs": [
        {
          "internalType": "address",
          "name": "owner",
          "type": "address"
        }
      ],
      "name": "tokensOfOwner",
      "outputs": [
        {
          "internalType": "uint256[]",
          "name": "",
          "type": "uint256[]"
        }
      ],
      "stateMutability": "view",
      "type": "function"
    },
    {
      "inputs": [
        {
          "internalType": "address",
          "name": "owner",
          "type": "address"
        },
        {
          "internalType": "uint256",
          "name": "start",
          "type": "uint256"
        },
        {
          "internalType": "uint256",
          "name": "stop",
          "type": "uint256"
        }
      ],
      "name": "tokensOfOwnerIn",
      "outputs": [
        {
          "internalType": "uint256[]",
          "name": "",
          "type": "uint256[]"
        }
      ],
      "stateMutability": "view",
      "type": "function"
    },
    {
      "inputs": [],
      "name": "totalSupply",
      "outputs": [
        {
          "internalType": "uint256",
          "name": "",
          "type": "uint256"
        }
      ],
      "stateMutability": "view",
      "type": "function"
    },
    {
      "inputs": [
        {
          "internalType": "address",
          "name": "from",
          "type": "address"
        },
        {
          "internalType": "address",
          "name": "to",
          "type": "address"
        },
        {
          "internalType": "uint256",
          "name": "tokenId",
          "type": "uint256"
        }
      ],
      "name": "transferFrom",
      "outputs": [],
      "stateMutability": "payable",
      "type": "function"
    },
    {
      "inputs": [
        {
          "internalType": "address",
          "name": "newOwner",
          "type": "address"
        }
      ],
      "name": "transferOwnership",
      "outputs": [],
      "stateMutability": "nonpayable",
      "type": "function"
    }
  ],
  "bytecode": {
    "object": "0x600e805460ff19169055610100604052600460c09081526375726c2f60e01b60e052601290620000309082620003c3565b50604080518082019091526005815264173539b7b760d91b60208201526013906200005c9082620003c3565b503480156200006a57600080fd5b5060405162003e3d38038062003e3d8339810160408190526200008d91620004ac565b6040518060400160405280600b81526020016a141c995cd85b194813919560aa1b815250604051806040016040528060048152602001631413919560e21b8152508160039081620000df9190620003c3565b506004620000ee8282620003c3565b505060018055506200010033620001a9565b6001600160a01b03808316608052811660a08190526040805163313ce56760e01b8152905163313ce567916004808201926020929091908290030181865afa15801562000151573d6000803e3d6000fd5b505050506040513d601f19601f82011682018060405250810190620001779190620004e4565b6200018490600a62000625565b620001919060ef62000636565b600d55620001a13360fa620001c7565b505062000650565b600a80546001600160a01b0319169055620001c481620002cc565b50565b6127106001600160601b03821611156200023b5760405162461bcd60e51b815260206004820152602a60248201527f455243323938313a20726f79616c7479206665652077696c6c206578636565646044820152692073616c65507269636560b01b60648201526084015b60405180910390fd5b6001600160a01b038216620002935760405162461bcd60e51b815260206004820152601960248201527f455243323938313a20696e76616c696420726563656976657200000000000000604482015260640162000232565b604080518082019091526001600160a01b039092168083526001600160601b039091166020909201829052600160a01b90910217600b55565b600980546001600160a01b038381166001600160a01b0319831681179093556040519116919082907f8be0079c531659141344cd1fd0a4f28419497f9722a3daafe3b4186f6b6457e090600090a35050565b634e487b7160e01b600052604160045260246000fd5b600181811c908216806200034957607f821691505b6020821081036200036a57634e487b7160e01b600052602260045260246000fd5b50919050565b601f821115620003be57600081815260208120601f850160051c81016020861015620003995750805b601f850160051c820191505b81811015620003ba57828155600101620003a5565b5050505b505050565b81516001600160401b03811115620003df57620003df6200031e565b620003f781620003f0845462000334565b8462000370565b602080601f8311600181146200042f5760008415620004165750858301515b600019600386901b1c1916600185901b178555620003ba565b600085815260208120601f198616915b8281101562000460578886015182559484019460019091019084016200043f565b50858210156200047f5787850151600019600388901b60f8161c191681555b5050505050600190811b01905550565b80516001600160a01b0381168114620004a757600080fd5b919050565b60008060408385031215620004c057600080fd5b620004cb836200048f565b9150620004db602084016200048f565b90509250929050565b600060208284031215620004f757600080fd5b815160ff811681146200050957600080fd5b9392505050565b634e487b7160e01b600052601160045260246000fd5b600181815b80851115620005675781600019048211156200054b576200054b62000510565b808516156200055957918102915b93841c93908002906200052b565b509250929050565b60008262000580575060016200061f565b816200058f575060006200061f565b8160018114620005a85760028114620005b357620005d3565b60019150506200061f565b60ff841115620005c757620005c762000510565b50506001821b6200061f565b5060208310610133831016604e8410600b8410161715620005f8575081810a6200061f565b62000604838362000526565b80600019048211156200061b576200061b62000510565b0290505b92915050565b60006200050960ff8416836200056f565b80820281158282048414176200061f576200061f62000510565b60805160a05161379d620006a06000396000611b48015260008181611ef9015281816120420152818161219b015281816122cc01528181612398015281816124640152612530015261379d6000f3fe6080604052600436106102345760003560e01c8063715018a611610138578063a22cb465116100b0578063e30c39781161007f578063eb91d37e11610064578063eb91d37e146106bb578063f2fde38b146106d0578063f7beb98a146106f057600080fd5b8063e30c39781461063a578063e985e9c51461066557600080fd5b8063a22cb465146105ba578063b88d4fde146105da578063c23dc68f146105ed578063c87b56dd1461061a57600080fd5b80638da5cb5b116101075780639190ad47116100ec5780639190ad471461057057806395d89b411461058557806399a2557a1461059a57600080fd5b80638da5cb5b1461052b5780638dec9f7a1461055657600080fd5b8063715018a6146104b457806379ba5097146104c95780637cb64759146104de5780638462151c146104fe57600080fd5b80632db11544116101cb57806355f804b31161019a5780636352211e1161017f5780636352211e146104615780636735918d1461048157806370a082311461049457600080fd5b806355f804b3146104145780635bbb21771461043457600080fd5b80632db11544146103ae57806342842e0e146103c15780634408a046146103d4578063484b973c146103f457600080fd5b8063147d959a11610207578063147d959a146102ea57806318160ddd1461030a57806323b872dd1461034f5780632a55205a1461036257600080fd5b806301ffc9a71461023957806306fdde031461026e578063081812fc14610290578063095ea7b3146102d5575b600080fd5b34801561024557600080fd5b50610259610254366004612da4565b610705565b60405190151581526020015b60405180910390f35b34801561027a57600080fd5b50610283610891565b6040516102659190612e2f565b34801561029c57600080fd5b506102b06102ab366004612e42565b610923565b60405173ffffffffffffffffffffffffffffffffffffffff9091168152602001610265565b6102e86102e3366004612e84565b61098d565b005b3480156102f657600080fd5b506102e8610305366004612e42565b600d55565b34801561031657600080fd5b50600254600154037fffffffffffffffffffffffffffffffffffffffffffffffffffffffffffffffff015b604051908152602001610265565b6102e861035d366004612eae565b610a78565b34801561036e57600080fd5b5061038261037d366004612eea565b610d08565b6040805173ffffffffffffffffffffffffffffffffffffffff9093168352602083019190915201610265565b6102e86103bc366004612e42565b610e01565b6102e86103cf366004612eae565b611034565b3480156103e057600080fd5b506102e86103ef366004612f0c565b611054565b34801561040057600080fd5b506102e861040f366004612e84565b611069565b34801561042057600080fd5b506102e861042f366004612f0c565b61107b565b34801561044057600080fd5b5061045461044f366004612fc3565b611090565b6040516102659190613005565b34801561046d57600080fd5b506102b061047c366004612e42565b61117a565b6102e861048f366004612fc3565b611185565b3480156104a057600080fd5b506103416104af36600461308f565b611446565b3480156104c057600080fd5b506102e86114c8565b3480156104d557600080fd5b506102e861152c565b3480156104ea57600080fd5b506102e86104f9366004612e42565b601155565b34801561050a57600080fd5b5061051e61051936600461308f565b6115e1565b60405161026591906130aa565b34801561053757600080fd5b5060095473ffffffffffffffffffffffffffffffffffffffff166102b0565b34801561056257600080fd5b50600e546102599060ff1681565b34801561057c57600080fd5b506102e861170c565b34801561059157600080fd5b5061028361173e565b3480156105a657600080fd5b5061051e6105b53660046130e2565b61174d565b3480156105c657600080fd5b506102e86105d5366004613123565b611915565b6102e86105e8366004613189565b6119ac565b3480156105f957600080fd5b5061060d610608366004612e42565b611a1c565b6040516102659190613283565b34801561062657600080fd5b50610283610635366004612e42565b611aa4565b34801561064657600080fd5b50600a5473ffffffffffffffffffffffffffffffffffffffff166102b0565b34801561067157600080fd5b506102596106803660046132d5565b73ffffffffffffffffffffffffffffffffffffffff918216600090815260086020908152604080832093909416825291909152205460ff1690565b3480156106c757600080fd5b50610341611b43565b3480156106dc57600080fd5b506102e86106eb36600461308f565b611c7b565b3480156106fc57600080fd5b506102e8611d2b565b60007fffffffff0000000000000000000000000000000000000000000000000000000082167f8446a79e00000000000000000000000000000000000000000000000000000000148061079857507fffffffff0000000000000000000000000000000000000000000000000000000082167fc21b8f2800000000000000000000000000000000000000000000000000000000145b806107e457507fffffffff0000000000000000000000000000000000000000000000000000000082167f36372b0700000000000000000000000000000000000000000000000000000000145b8061083057507fffffffff0000000000000000000000000000000000000000000000000000000082167f2baae9fd00000000000000000000000000000000000000000000000000000000145b8061087c57507fffffffff0000000000000000000000000000000000000000000000000000000082167f01ffc9a700000000000000000000000000000000000000000000000000000000145b8061088b575061088b82611d60565b92915050565b6060600380546108a090613308565b80601f01602080910402602001604051908101604052809291908181526020018280546108cc90613308565b80156109195780601f106108ee57610100808354040283529160200191610919565b820191906000526020600020905b8154815290600101906020018083116108fc57829003601f168201915b5050505050905090565b600061092e82611db6565b610964576040517fcf4700e400000000000000000000000000000000000000000000000000000000815260040160405180910390fd5b5060009081526007602052604090205473ffffffffffffffffffffffffffffffffffffffff1690565b60006109988261117a565b90503373ffffffffffffffffffffffffffffffffffffffff8216146109f7576109c18133610680565b6109f7576040517fcfb3b94200000000000000000000000000000000000000000000000000000000815260040160405180910390fd5b60008281526007602052604080822080547fffffffffffffffffffffffff00000000000000000000000000000000000000001673ffffffffffffffffffffffffffffffffffffffff87811691821790925591518593918516917f8c5be1e5ebec7d5bd14f71427d1e84f3dd0314c0f7b2291e5b200ac8c7c3b92591a4505050565b6000610a8382611e04565b90508373ffffffffffffffffffffffffffffffffffffffff168173ffffffffffffffffffffffffffffffffffffffff1614610aea576040517fa114810000000000000000000000000000000000000000000000000000000000815260040160405180910390fd5b600082815260076020526040902080543380821473ffffffffffffffffffffffffffffffffffffffff881690911417610b5d57610b278633610680565b610b5d576040517f59c896be00000000000000000000000000000000000000000000000000000000815260040160405180910390fd5b73ffffffffffffffffffffffffffffffffffffffff8516610baa576040517fea553b3400000000000000000000000000000000000000000000000000000000815260040160405180910390fd5b8015610bb557600082555b73ffffffffffffffffffffffffffffffffffffffff86811660009081526006602052604080822080547fffffffffffffffffffffffffffffffffffffffffffffffffffffffffffffffff019055918716808252919020805460010190554260a01b177c0200000000000000000000000000000000000000000000000000000000176000858152600560205260408120919091557c020000000000000000000000000000000000000000000000000000000084169003610ca457600184016000818152600560205260408120549003610ca2576001548114610ca25760008181526005602052604090208490555b505b838573ffffffffffffffffffffffffffffffffffffffff168773ffffffffffffffffffffffffffffffffffffffff167fddf252ad1be2c89b69c2b068fc378daa952ba7f163c4a11628f55a4df523b3ef60405160405180910390a45b505050505050565b6000828152600c6020908152604080832081518083019092525473ffffffffffffffffffffffffffffffffffffffff8116808352740100000000000000000000000000000000000000009091046bffffffffffffffffffffffff16928201929092528291610dc3575060408051808201909152600b5473ffffffffffffffffffffffffffffffffffffffff811682527401000000000000000000000000000000000000000090046bffffffffffffffffffffffff1660208201525b602081015160009061271090610de7906bffffffffffffffffffffffff168761338a565b610df191906133a1565b91519350909150505b9250929050565b333214610e6f576040517f08c379a000000000000000000000000000000000000000000000000000000000815260206004820152601a60248201527f7075626c69633a20626f74206973206e6f7420616c6c6f77656400000000000060448201526064015b60405180910390fd5b600254600154610bb99190037fffffffffffffffffffffffffffffffffffffffffffffffffffffffffffffffff0110610f04576040517f08c379a000000000000000000000000000000000000000000000000000000000815260206004820152601760248201527f7075626c69633a20737570706c792065786365656465640000000000000000006044820152606401610e66565b600b8110610f94576040517f08c379a000000000000000000000000000000000000000000000000000000000815260206004820152602260248201527f7075626c69633a2063616e6e6f74206d696e746564206d6f7265207468616e2060448201527f31300000000000000000000000000000000000000000000000000000000000006064820152608401610e66565b600e5460ff16611000576040517f08c379a000000000000000000000000000000000000000000000000000000000815260206004820152601e60248201527f7075626c69633a206d696e74696e67206973206e6f7420656e61626c656400006044820152606401610e66565b600061100a611b43565b905061101e611019838361338a565b611ec3565b6110283383612150565b61103061216a565b5050565b61104f838383604051806020016040528060008152506119ac565b505050565b61105c6125b9565b601361104f828483613422565b6110716125b9565b6110308282612150565b6110836125b9565b601261104f828483613422565b60608160008167ffffffffffffffff8111156110ae576110ae61315a565b60405190808252806020026020018201604052801561111e57816020015b6040805160808101825260008082526020808301829052928201819052606082015282527fffffffffffffffffffffffffffffffffffffffffffffffffffffffffffffffff9092019101816110cc5790505b50905060005b8281146111715761114c8686838181106111405761114061353c565b90506020020135611a1c565b82828151811061115e5761115e61353c565b6020908102919091010152600101611124565b50949350505050565b600061088b82611e04565b3332146111ee576040517f08c379a000000000000000000000000000000000000000000000000000000000815260206004820152601b60248201527f70726573616c653a20626f74206973206e6f7420616c6c6f77656400000000006044820152606401610e66565b61122b3383838080602002602001604051908101604052809392919081815260200183836020028082843760009201919091525061263a92505050565b6112b7576040517f08c379a000000000000000000000000000000000000000000000000000000000815260206004820152602860248201527f70726573616c653a2061646472657373206973206e6f7420696e20746865207760448201527f686974656c6973740000000000000000000000000000000000000000000000006064820152608401610e66565b3360009081526006602052604090205460039060c01c67ffffffffffffffff1610611364576040517f08c379a000000000000000000000000000000000000000000000000000000000815260206004820152602660248201527f70726573616c653a20616464726573732063616e6e6f74206d696e746564206160448201527f6e796d6f726500000000000000000000000000000000000000000000000000006064820152608401610e66565b600e5460ff16156113d1576040517f08c379a000000000000000000000000000000000000000000000000000000000815260206004820152601b60248201527f70726573616c653a206d696e74696e6720697320656e61626c656400000000006044820152606401610e66565b60006113db611b43565b90506113eb61101960028361338a565b6113f6336002612150565b336000908152600660205260409020805477ffffffffffffffffffffffffffffffffffffffffffffffff16780200000000000000000000000000000000000000000000000017905561104f61216a565b600073ffffffffffffffffffffffffffffffffffffffff8216611495576040517f8f4eb60400000000000000000000000000000000000000000000000000000000815260040160405180910390fd5b5073ffffffffffffffffffffffffffffffffffffffff1660009081526006602052604090205467ffffffffffffffff1690565b6040517f08c379a000000000000000000000000000000000000000000000000000000000815260206004820152600f60248201527f63616e6e6f742072656e6f756e636500000000000000000000000000000000006044820152606401610e66565b565b600a54339073ffffffffffffffffffffffffffffffffffffffff1681146115d5576040517f08c379a000000000000000000000000000000000000000000000000000000000815260206004820152602960248201527f4f776e61626c6532537465703a2063616c6c6572206973206e6f74207468652060448201527f6e6577206f776e657200000000000000000000000000000000000000000000006064820152608401610e66565b6115de81612667565b50565b606060008060006115f185611446565b905060008167ffffffffffffffff81111561160e5761160e61315a565b604051908082528060200260200182016040528015611637578160200160208202803683370190505b5060408051608081018252600080825260208201819052918101829052606081019190915290915060015b8386146117005761167281612698565b915081604001516116f857815173ffffffffffffffffffffffffffffffffffffffff161561169f57815194505b8773ffffffffffffffffffffffffffffffffffffffff168573ffffffffffffffffffffffffffffffffffffffff16036116f857808387806001019850815181106116eb576116eb61353c565b6020026020010181815250505b600101611662565b50909695505050505050565b6117146125b9565b600e80547fffffffffffffffffffffffffffffffffffffffffffffffffffffffffffffff00169055565b6060600480546108a090613308565b6060818310611788576040517f32c1995a00000000000000000000000000000000000000000000000000000000815260040160405180910390fd5b60008061179460015490565b905060018510156117a457600194505b808411156117b0578093505b60006117bb87611446565b9050848610156117da57858503818110156117d4578091505b506117de565b5060005b60008167ffffffffffffffff8111156117f9576117f961315a565b604051908082528060200260200182016040528015611822578160200160208202803683370190505b5090508160000361183857935061190e92505050565b600061184388611a1c565b905060008160400151611854575080515b885b8881141580156118665750848714155b156119025761187481612698565b925082604001516118fa57825173ffffffffffffffffffffffffffffffffffffffff16156118a157825191505b8a73ffffffffffffffffffffffffffffffffffffffff168273ffffffffffffffffffffffffffffffffffffffff16036118fa57808488806001019950815181106118ed576118ed61353c565b6020026020010181815250505b600101611856565b50505092835250909150505b9392505050565b33600081815260086020908152604080832073ffffffffffffffffffffffffffffffffffffffff87168085529083529281902080547fffffffffffffffffffffffffffffffffffffffffffffffffffffffffffffff001686151590811790915590519081529192917f17307eab39ab6107e8899845ad3d59bd9653f200f220920489ca2b5937696c31910160405180910390a35050565b6119b7848484610a78565b73ffffffffffffffffffffffffffffffffffffffff83163b15611a16576119e08484848461273d565b611a16576040517fd1a57ed600000000000000000000000000000000000000000000000000000000815260040160405180910390fd5b50505050565b6040805160808101825260008082526020820181905291810182905260608101919091526040805160808101825260008082526020820181905291810182905260608101919091526001831080611a7557506001548310155b15611a805792915050565b611a8983612698565b9050806040015115611a9b5792915050565b61190e836128b6565b6060611aaf82611db6565b611ae5576040517fa14c4b5000000000000000000000000000000000000000000000000000000000815260040160405180910390fd5b6000611aef612954565b90508051600003611b0f576040518060200160405280600081525061190e565b80611b1984612963565b6013604051602001611b2d9392919061356b565b6040516020818303038152906040529392505050565b6000807f000000000000000000000000000000000000000000000000000000000000000073ffffffffffffffffffffffffffffffffffffffff1663feaf968c6040518163ffffffff1660e01b815260040160a060405180830381865afa158015611bb1573d6000803e3d6000fd5b505050506040513d601f19601f82011682018060405250810190611bd59190613643565b50505091505060008113611c6b576040517f08c379a000000000000000000000000000000000000000000000000000000000815260206004820152602360248201527f466565642070726963652073686f756c6420626520677265617465722074686160448201527f6e203000000000000000000000000000000000000000000000000000000000006064820152608401610e66565b600081600d5461190e91906133a1565b611c836125b9565b600a805473ffffffffffffffffffffffffffffffffffffffff83167fffffffffffffffffffffffff00000000000000000000000000000000000000009091168117909155611ce660095473ffffffffffffffffffffffffffffffffffffffff1690565b73ffffffffffffffffffffffffffffffffffffffff167f38d16b8cac22d99fc7c124b9cd0de2d3fa1faef420bfe791d8c362d765e2270060405160405180910390a350565b611d336125b9565b600e80547fffffffffffffffffffffffffffffffffffffffffffffffffffffffffffffff00166001179055565b60007fffffffff0000000000000000000000000000000000000000000000000000000082167f2a55205a00000000000000000000000000000000000000000000000000000000148061088b575061088b826129c5565b600081600111158015611dca575060015482105b801561088b5750506000908152600560205260409020547c0100000000000000000000000000000000000000000000000000000000161590565b60008180600111611e9157600154811015611e9157600081815260056020526040812054907c010000000000000000000000000000000000000000000000000000000082169003611e8f575b8060000361190e57507fffffffffffffffffffffffffffffffffffffffffffffffffffffffffffffffff01600081815260056020526040902054611e50565b505b6040517fdf2d9b4200000000000000000000000000000000000000000000000000000000815260040160405180910390fd5b6040517fdd62ed3e00000000000000000000000000000000000000000000000000000000815233600482015230602482015281907f000000000000000000000000000000000000000000000000000000000000000073ffffffffffffffffffffffffffffffffffffffff169063dd62ed3e90604401602060405180830381865afa158015611f55573d6000803e3d6000fd5b505050506040513d601f19601f82011682018060405250810190611f799190613693565b1015612007576040517f08c379a000000000000000000000000000000000000000000000000000000000815260206004820152602260248201527f7472616e73666572496e3a20696e73756666696369656e7420616c6c6f77616e60448201527f63650000000000000000000000000000000000000000000000000000000000006064820152608401610e66565b6040517f23b872dd000000000000000000000000000000000000000000000000000000008152336004820152306024820152604481018290527f000000000000000000000000000000000000000000000000000000000000000073ffffffffffffffffffffffffffffffffffffffff16906323b872dd906064016020604051808303816000875af11580156120a0573d6000803e3d6000fd5b505050506040513d601f19601f820116820180604052508101906120c491906136ac565b6115de576040517f08c379a000000000000000000000000000000000000000000000000000000000815260206004820152602360248201527f7472616e7366657246726f6d3a2063616e6e6f74207472616e7366657220746f60448201527f6b656e00000000000000000000000000000000000000000000000000000000006064820152608401610e66565b611030828260405180602001604052806000815250612aa6565b6040517f70a082310000000000000000000000000000000000000000000000000000000081523060048201526000907f000000000000000000000000000000000000000000000000000000000000000073ffffffffffffffffffffffffffffffffffffffff16906370a0823190602401602060405180830381865afa1580156121f7573d6000803e3d6000fd5b505050506040513d601f19601f8201168201806040525081019061221b9190613693565b90506000600561222c83600361338a565b61223691906133a1565b90506000612245600a846133a1565b90506000601461225685600361338a565b61226091906133a1565b90506000601461227186600361338a565b61227b91906133a1565b905084156125b2576040517fa9059cbb00000000000000000000000000000000000000000000000000000000815273b85885977d5daf4d6768afc670c14a5fc209b8e96004820152602481018590527f000000000000000000000000000000000000000000000000000000000000000073ffffffffffffffffffffffffffffffffffffffff169063a9059cbb906044016020604051808303816000875af115801561232a573d6000803e3d6000fd5b505050506040513d601f19601f8201168201806040525081019061234e91906136ac565b506040517fa9059cbb000000000000000000000000000000000000000000000000000000008152736a07f68a60eb5890947a5af40f3ea928447d55276004820152602481018490527f000000000000000000000000000000000000000000000000000000000000000073ffffffffffffffffffffffffffffffffffffffff169063a9059cbb906044016020604051808303816000875af11580156123f6573d6000803e3d6000fd5b505050506040513d601f19601f8201168201806040525081019061241a91906136ac565b506040517fa9059cbb0000000000000000000000000000000000000000000000000000000081527342ef5475eb5951b92ce28dccecb720654623fcb26004820152602481018390527f000000000000000000000000000000000000000000000000000000000000000073ffffffffffffffffffffffffffffffffffffffff169063a9059cbb906044016020604051808303816000875af11580156124c2573d6000803e3d6000fd5b505050506040513d601f19601f820116820180604052508101906124e691906136ac565b506040517fa9059cbb00000000000000000000000000000000000000000000000000000000815273742a1b678a34f9e79ff4468968ffed99676ad3dc6004820152602481018290527f000000000000000000000000000000000000000000000000000000000000000073ffffffffffffffffffffffffffffffffffffffff169063a9059cbb906044016020604051808303816000875af115801561258e573d6000803e3d6000fd5b505050506040513d601f19601f82011682018060405250810190610d0091906136ac565b5050505050565b60095473ffffffffffffffffffffffffffffffffffffffff16331461152a576040517f08c379a000000000000000000000000000000000000000000000000000000000815260206004820181905260248201527f4f776e61626c653a2063616c6c6572206973206e6f7420746865206f776e65726044820152606401610e66565b6000808360601b6bffffffffffffffffffffffff1916905061265f8360115483612b32565b949350505050565b600a80547fffffffffffffffffffffffff00000000000000000000000000000000000000001690556115de81612b48565b60408051608081018252600080825260208201819052918101829052606081019190915260008281526005602052604090205461088b906040805160808101825273ffffffffffffffffffffffffffffffffffffffff8316815260a083901c67ffffffffffffffff1660208201527c0100000000000000000000000000000000000000000000000000000000831615159181019190915260e89190911c606082015290565b6040517f150b7a0200000000000000000000000000000000000000000000000000000000815260009073ffffffffffffffffffffffffffffffffffffffff85169063150b7a02906127989033908990889088906004016136c9565b6020604051808303816000875af19250505080156127f1575060408051601f3d9081017fffffffffffffffffffffffffffffffffffffffffffffffffffffffffffffffe01682019092526127ee91810190613712565b60015b612868573d80801561281f576040519150601f19603f3d011682016040523d82523d6000602084013e612824565b606091505b508051600003612860576040517fd1a57ed600000000000000000000000000000000000000000000000000000000815260040160405180910390fd5b805181602001fd5b7fffffffff00000000000000000000000000000000000000000000000000000000167f150b7a0200000000000000000000000000000000000000000000000000000000149050949350505050565b60408051608081018252600080825260208201819052918101829052606081019190915261088b6128e683611e04565b6040805160808101825273ffffffffffffffffffffffffffffffffffffffff8316815260a083901c67ffffffffffffffff1660208201527c0100000000000000000000000000000000000000000000000000000000831615159181019190915260e89190911c606082015290565b6060601280546108a090613308565b606060a06040510180604052602081039150506000815280825b600183039250600a81066030018353600a90048061297d57508190037fffffffffffffffffffffffffffffffffffffffffffffffffffffffffffffffe0909101908152919050565b60007f01ffc9a7000000000000000000000000000000000000000000000000000000007fffffffff0000000000000000000000000000000000000000000000000000000083161480612a5857507f80ac58cd000000000000000000000000000000000000000000000000000000007fffffffff000000000000000000000000000000000000000000000000000000008316145b8061088b5750507fffffffff00000000000000000000000000000000000000000000000000000000167f5b5e139f000000000000000000000000000000000000000000000000000000001490565b612ab08383612bbf565b73ffffffffffffffffffffffffffffffffffffffff83163b1561104f576001548281035b612ae7600086838060010194508661273d565b612b1d576040517fd1a57ed600000000000000000000000000000000000000000000000000000000815260040160405180910390fd5b818110612ad45781600154146125b257600080fd5b600082612b3f8584612cfd565b14949350505050565b6009805473ffffffffffffffffffffffffffffffffffffffff8381167fffffffffffffffffffffffff0000000000000000000000000000000000000000831681179093556040519116919082907f8be0079c531659141344cd1fd0a4f28419497f9722a3daafe3b4186f6b6457e090600090a35050565b6001546000829003612bfd576040517fb562e8dd00000000000000000000000000000000000000000000000000000000815260040160405180910390fd5b73ffffffffffffffffffffffffffffffffffffffff831660008181526006602090815260408083208054680100000000000000018802019055848352600590915281206001851460e11b4260a01b178317905582840190839083907fddf252ad1be2c89b69c2b068fc378daa952ba7f163c4a11628f55a4df523b3ef8180a4600183015b818114612cb957808360007fddf252ad1be2c89b69c2b068fc378daa952ba7f163c4a11628f55a4df523b3ef600080a4600101612c81565b5081600003612cf4576040517f2e07630000000000000000000000000000000000000000000000000000000000815260040160405180910390fd5b60015550505050565b600081815b8451811015612d4257612d2e82868381518110612d2157612d2161353c565b6020026020010151612d4a565b915080612d3a8161372f565b915050612d02565b509392505050565b6000818310612d6657600082815260208490526040902061190e565b5060009182526020526040902090565b7fffffffff00000000000000000000000000000000000000000000000000000000811681146115de57600080fd5b600060208284031215612db657600080fd5b813561190e81612d76565b60005b83811015612ddc578181015183820152602001612dc4565b50506000910152565b60008151808452612dfd816020860160208601612dc1565b601f017fffffffffffffffffffffffffffffffffffffffffffffffffffffffffffffffe0169290920160200192915050565b60208152600061190e6020830184612de5565b600060208284031215612e5457600080fd5b5035919050565b803573ffffffffffffffffffffffffffffffffffffffff81168114612e7f57600080fd5b919050565b60008060408385031215612e9757600080fd5b612ea083612e5b565b946020939093013593505050565b600080600060608486031215612ec357600080fd5b612ecc84612e5b565b9250612eda60208501612e5b565b9150604084013590509250925092565b60008060408385031215612efd57600080fd5b50508035926020909101359150565b60008060208385031215612f1f57600080fd5b823567ffffffffffffffff80821115612f3757600080fd5b818501915085601f830112612f4b57600080fd5b813581811115612f5a57600080fd5b866020828501011115612f6c57600080fd5b60209290920196919550909350505050565b60008083601f840112612f9057600080fd5b50813567ffffffffffffffff811115612fa857600080fd5b6020830191508360208260051b8501011115610dfa57600080fd5b60008060208385031215612fd657600080fd5b823567ffffffffffffffff811115612fed57600080fd5b612ff985828601612f7e565b90969095509350505050565b6020808252825182820181905260009190848201906040850190845b818110156117005761307c83855173ffffffffffffffffffffffffffffffffffffffff815116825267ffffffffffffffff602082015116602083015260408101511515604083015262ffffff60608201511660608301525050565b9284019260809290920191600101613021565b6000602082840312156130a157600080fd5b61190e82612e5b565b6020808252825182820181905260009190848201906040850190845b81811015611700578351835292840192918401916001016130c6565b6000806000606084860312156130f757600080fd5b61310084612e5b565b95602085013595506040909401359392505050565b80151581146115de57600080fd5b6000806040838503121561313657600080fd5b61313f83612e5b565b9150602083013561314f81613115565b809150509250929050565b7f4e487b7100000000000000000000000000000000000000000000000000000000600052604160045260246000fd5b6000806000806080858703121561319f57600080fd5b6131a885612e5b565b93506131b660208601612e5b565b925060408501359150606085013567ffffffffffffffff808211156131da57600080fd5b818701915087601f8301126131ee57600080fd5b8135818111156132005761320061315a565b604051601f82017fffffffffffffffffffffffffffffffffffffffffffffffffffffffffffffffe0908116603f011681019083821181831017156132465761324661315a565b816040528281528a602084870101111561325f57600080fd5b82602086016020830137600060208483010152809550505050505092959194509250565b815173ffffffffffffffffffffffffffffffffffffffff16815260208083015167ffffffffffffffff169082015260408083015115159082015260608083015162ffffff16908201526080810161088b565b600080604083850312156132e857600080fd5b6132f183612e5b565b91506132ff60208401612e5b565b90509250929050565b600181811c9082168061331c57607f821691505b602082108103613355577f4e487b7100000000000000000000000000000000000000000000000000000000600052602260045260246000fd5b50919050565b7f4e487b7100000000000000000000000000000000000000000000000000000000600052601160045260246000fd5b808202811582820484141761088b5761088b61335b565b6000826133d7577f4e487b7100000000000000000000000000000000000000000000000000000000600052601260045260246000fd5b500490565b601f82111561104f57600081815260208120601f850160051c810160208610156134035750805b601f850160051c820191505b81811015610d005782815560010161340f565b67ffffffffffffffff83111561343a5761343a61315a565b61344e836134488354613308565b836133dc565b6000601f8411600181146134a0576000851561346a5750838201355b7fffffffffffffffffffffffffffffffffffffffffffffffffffffffffffffffff600387901b1c1916600186901b1783556125b2565b6000838152602090207fffffffffffffffffffffffffffffffffffffffffffffffffffffffffffffffe0861690835b828110156134ef57868501358255602094850194600190920191016134cf565b508682101561352a577fffffffffffffffffffffffffffffffffffffffffffffffffffffffffffffffff60f88860031b161c19848701351681555b505060018560011b0183555050505050565b7f4e487b7100000000000000000000000000000000000000000000000000000000600052603260045260246000fd5b60008451602061357e8285838a01612dc1565b8551918401916135918184848a01612dc1565b85549201916000906135a281613308565b600182811680156135ba57600181146135ed57613619565b7fffffffffffffffffffffffffffffffffffffffffffffffffffffffffffffff0084168752821515830287019450613619565b896000528560002060005b84811015613611578154898201529083019087016135f8565b505082870194505b50929a9950505050505050505050565b805169ffffffffffffffffffff81168114612e7f57600080fd5b600080600080600060a0868803121561365b57600080fd5b61366486613629565b945060208601519350604086015192506060860151915061368760808701613629565b90509295509295909350565b6000602082840312156136a557600080fd5b5051919050565b6000602082840312156136be57600080fd5b815161190e81613115565b600073ffffffffffffffffffffffffffffffffffffffff8087168352808616602084015250836040830152608060608301526137086080830184612de5565b9695505050505050565b60006020828403121561372457600080fd5b815161190e81612d76565b60007fffffffffffffffffffffffffffffffffffffffffffffffffffffffffffffffff82036137605761376061335b565b506001019056fea264697066735822122021a92fc00ae2f40a20c1130e4a487491be5e4695afad4b9eaa6af4fd46ce03c764736f6c63430008130033",
    "linkReferences": {}
  },
  "methodIdentifiers": {
    "acceptOwnership()": "79ba5097",
    "approve(address,uint256)": "095ea7b3",
    "balanceOf(address)": "70a08231",
    "disablePublicMinting()": "9190ad47",
    "enablePublicMinting()": "f7beb98a",
    "explicitOwnershipOf(uint256)": "c23dc68f",
    "explicitOwnershipsOf(uint256[])": "5bbb2177",
    "getApproved(uint256)": "081812fc",
    "getCurrentPrice()": "eb91d37e",
    "isApprovedForAll(address,address)": "e985e9c5",
    "name()": "06fdde03",
    "owner()": "8da5cb5b",
    "ownerMint(address,uint256)": "484b973c",
    "ownerOf(uint256)": "6352211e",
    "pendingOwner()": "e30c3978",
    "presale(bytes32[])": "6735918d",
    "publicMint(uint256)": "2db11544",
    "publicMintingEnabled()": "8dec9f7a",
    "renounceOwnership()": "715018a6",
    "royaltyInfo(uint256,uint256)": "2a55205a",
    "safeTransferFrom(address,address,uint256)": "42842e0e",
    "safeTransferFrom(address,address,uint256,bytes)": "b88d4fde",
    "setApprovalForAll(address,bool)": "a22cb465",
    "setBaseURI(string)": "55f804b3",
    "setMerkleRoot(bytes32)": "7cb64759",
    "setURIExtention(string)": "4408a046",
    "setUSDPrice(uint256)": "147d959a",
    "supportsInterface(bytes4)": "01ffc9a7",
    "symbol()": "95d89b41",
    "tokenURI(uint256)": "c87b56dd",
    "tokensOfOwner(address)": "8462151c",
    "tokensOfOwnerIn(address,uint256,uint256)": "99a2557a",
    "totalSupply()": "18160ddd",
    "transferFrom(address,address,uint256)": "23b872dd",
    "transferOwnership(address)": "f2fde38b"
  },
  "id": 36
}