{
  "abi": [
    {
      "inputs": [
        {
          "internalType": "address",
          "name": "_usdc",
          "type": "address"
        },
        {
          "internalType": "address",
          "name": "_feed",
          "type": "address"
        }
      ],
      "stateMutability": "nonpayable",
      "type": "constructor"
    },
    {
      "inputs": [],
      "name": "ApprovalCallerNotOwnerNorApproved",
      "type": "error"
    },
    {
      "inputs": [],
      "name": "ApprovalQueryForNonexistentToken",
      "type": "error"
    },
    {
      "inputs": [],
      "name": "BalanceQueryForZeroAddress",
      "type": "error"
    },
    {
      "inputs": [],
      "name": "InvalidQueryRange",
      "type": "error"
    },
    {
      "inputs": [],
      "name": "MintERC2309QuantityExceedsLimit",
      "type": "error"
    },
    {
      "inputs": [],
      "name": "MintToZeroAddress",
      "type": "error"
    },
    {
      "inputs": [],
      "name": "MintZeroQuantity",
      "type": "error"
    },
    {
      "inputs": [],
      "name": "OwnerQueryForNonexistentToken",
      "type": "error"
    },
    {
      "inputs": [],
      "name": "OwnershipNotInitializedForExtraData",
      "type": "error"
    },
    {
      "inputs": [],
      "name": "TransferCallerNotOwnerNorApproved",
      "type": "error"
    },
    {
      "inputs": [],
      "name": "TransferFromIncorrectOwner",
      "type": "error"
    },
    {
      "inputs": [],
      "name": "TransferToNonERC721ReceiverImplementer",
      "type": "error"
    },
    {
      "inputs": [],
      "name": "TransferToZeroAddress",
      "type": "error"
    },
    {
      "inputs": [],
      "name": "URIQueryForNonexistentToken",
      "type": "error"
    },
    {
      "anonymous": false,
      "inputs": [
        {
          "indexed": true,
          "internalType": "address",
          "name": "owner",
          "type": "address"
        },
        {
          "indexed": true,
          "internalType": "address",
          "name": "approved",
          "type": "address"
        },
        {
          "indexed": true,
          "internalType": "uint256",
          "name": "tokenId",
          "type": "uint256"
        }
      ],
      "name": "Approval",
      "type": "event"
    },
    {
      "anonymous": false,
      "inputs": [
        {
          "indexed": true,
          "internalType": "address",
          "name": "owner",
          "type": "address"
        },
        {
          "indexed": true,
          "internalType": "address",
          "name": "operator",
          "type": "address"
        },
        {
          "indexed": false,
          "internalType": "bool",
          "name": "approved",
          "type": "bool"
        }
      ],
      "name": "ApprovalForAll",
      "type": "event"
    },
    {
      "anonymous": false,
      "inputs": [
        {
          "indexed": true,
          "internalType": "uint256",
          "name": "fromTokenId",
          "type": "uint256"
        },
        {
          "indexed": false,
          "internalType": "uint256",
          "name": "toTokenId",
          "type": "uint256"
        },
        {
          "indexed": true,
          "internalType": "address",
          "name": "from",
          "type": "address"
        },
        {
          "indexed": true,
          "internalType": "address",
          "name": "to",
          "type": "address"
        }
      ],
      "name": "ConsecutiveTransfer",
      "type": "event"
    },
    {
      "anonymous": false,
      "inputs": [
        {
          "indexed": true,
          "internalType": "address",
          "name": "previousOwner",
          "type": "address"
        },
        {
          "indexed": true,
          "internalType": "address",
          "name": "newOwner",
          "type": "address"
        }
      ],
      "name": "OwnershipTransferStarted",
      "type": "event"
    },
    {
      "anonymous": false,
      "inputs": [
        {
          "indexed": true,
          "internalType": "address",
          "name": "previousOwner",
          "type": "address"
        },
        {
          "indexed": true,
          "internalType": "address",
          "name": "newOwner",
          "type": "address"
        }
      ],
      "name": "OwnershipTransferred",
      "type": "event"
    },
    {
      "anonymous": false,
      "inputs": [
        {
          "indexed": true,
          "internalType": "address",
          "name": "from",
          "type": "address"
        },
        {
          "indexed": true,
          "internalType": "address",
          "name": "to",
          "type": "address"
        },
        {
          "indexed": true,
          "internalType": "uint256",
          "name": "tokenId",
          "type": "uint256"
        }
      ],
      "name": "Transfer",
      "type": "event"
    },
    {
      "inputs": [],
      "name": "_usdPrice",
      "outputs": [
        {
          "internalType": "uint256",
          "name": "",
          "type": "uint256"
        }
      ],
      "stateMutability": "view",
      "type": "function"
    },
    {
      "inputs": [],
      "name": "acceptOwnership",
      "outputs": [],
      "stateMutability": "nonpayable",
      "type": "function"
    },
    {
      "inputs": [
        {
          "internalType": "address",
          "name": "to",
          "type": "address"
        },
        {
          "internalType": "uint256",
          "name": "tokenId",
          "type": "uint256"
        }
      ],
      "name": "approve",
      "outputs": [],
      "stateMutability": "payable",
      "type": "function"
    },
    {
      "inputs": [
        {
          "internalType": "address",
          "name": "owner",
          "type": "address"
        }
      ],
      "name": "balanceOf",
      "outputs": [
        {
          "internalType": "uint256",
          "name": "",
          "type": "uint256"
        }
      ],
      "stateMutability": "view",
      "type": "function"
    },
    {
      "inputs": [],
      "name": "disablePublicMinting",
      "outputs": [],
      "stateMutability": "nonpayable",
      "type": "function"
    },
    {
      "inputs": [],
      "name": "distribute",
      "outputs": [],
      "stateMutability": "nonpayable",
      "type": "function"
    },
    {
      "inputs": [],
      "name": "enablePublicMinting",
      "outputs": [],
      "stateMutability": "nonpayable",
      "type": "function"
    },
    {
      "inputs": [
        {
          "internalType": "uint256",
          "name": "tokenId",
          "type": "uint256"
        }
      ],
      "name": "explicitOwnershipOf",
      "outputs": [
        {
          "components": [
            {
              "internalType": "address",
              "name": "addr",
              "type": "address"
            },
            {
              "internalType": "uint64",
              "name": "startTimestamp",
              "type": "uint64"
            },
            {
              "internalType": "bool",
              "name": "burned",
              "type": "bool"
            },
            {
              "internalType": "uint24",
              "name": "extraData",
              "type": "uint24"
            }
          ],
          "internalType": "struct IERC721A.TokenOwnership",
          "name": "",
          "type": "tuple"
        }
      ],
      "stateMutability": "view",
      "type": "function"
    },
    {
      "inputs": [
        {
          "internalType": "uint256[]",
          "name": "tokenIds",
          "type": "uint256[]"
        }
      ],
      "name": "explicitOwnershipsOf",
      "outputs": [
        {
          "components": [
            {
              "internalType": "address",
              "name": "addr",
              "type": "address"
            },
            {
              "internalType": "uint64",
              "name": "startTimestamp",
              "type": "uint64"
            },
            {
              "internalType": "bool",
              "name": "burned",
              "type": "bool"
            },
            {
              "internalType": "uint24",
              "name": "extraData",
              "type": "uint24"
            }
          ],
          "internalType": "struct IERC721A.TokenOwnership[]",
          "name": "",
          "type": "tuple[]"
        }
      ],
      "stateMutability": "view",
      "type": "function"
    },
    {
      "inputs": [
        {
          "internalType": "uint256",
          "name": "tokenId",
          "type": "uint256"
        }
      ],
      "name": "getApproved",
      "outputs": [
        {
          "internalType": "address",
          "name": "",
          "type": "address"
        }
      ],
      "stateMutability": "view",
      "type": "function"
    },
    {
      "inputs": [
        {
          "internalType": "address",
          "name": "owner",
          "type": "address"
        }
      ],
      "name": "getAux",
      "outputs": [
        {
          "internalType": "uint64",
          "name": "",
          "type": "uint64"
        }
      ],
      "stateMutability": "view",
      "type": "function"
    },
    {
      "inputs": [],
      "name": "getCurrentPrice",
      "outputs": [
        {
          "internalType": "uint256",
          "name": "",
          "type": "uint256"
        }
      ],
      "stateMutability": "view",
      "type": "function"
    },
    {
      "inputs": [
        {
          "internalType": "address",
          "name": "owner",
          "type": "address"
        },
        {
          "internalType": "address",
          "name": "operator",
          "type": "address"
        }
      ],
      "name": "isApprovedForAll",
      "outputs": [
        {
          "internalType": "bool",
          "name": "",
          "type": "bool"
        }
      ],
      "stateMutability": "view",
      "type": "function"
    },
    {
      "inputs": [],
      "name": "name",
      "outputs": [
        {
          "internalType": "string",
          "name": "",
          "type": "string"
        }
      ],
      "stateMutability": "view",
      "type": "function"
    },
    {
      "inputs": [],
      "name": "owner",
      "outputs": [
        {
          "internalType": "address",
          "name": "",
          "type": "address"
        }
      ],
      "stateMutability": "view",
      "type": "function"
    },
    {
      "inputs": [
        {
          "internalType": "address",
          "name": "to",
          "type": "address"
        },
        {
          "internalType": "uint256",
          "name": "quantity",
          "type": "uint256"
        }
      ],
      "name": "ownerMint",
      "outputs": [],
      "stateMutability": "nonpayable",
      "type": "function"
    },
    {
      "inputs": [
        {
          "internalType": "uint256",
          "name": "tokenId",
          "type": "uint256"
        }
      ],
      "name": "ownerOf",
      "outputs": [
        {
          "internalType": "address",
          "name": "",
          "type": "address"
        }
      ],
      "stateMutability": "view",
      "type": "function"
    },
    {
      "inputs": [],
      "name": "pendingOwner",
      "outputs": [
        {
          "internalType": "address",
          "name": "",
          "type": "address"
        }
      ],
      "stateMutability": "view",
      "type": "function"
    },
    {
      "inputs": [
        {
          "internalType": "uint256",
          "name": "_amount",
          "type": "uint256"
        }
      ],
      "name": "presale",
      "outputs": [],
      "stateMutability": "payable",
      "type": "function"
    },
    {
      "inputs": [
        {
          "internalType": "uint256",
          "name": "_amount",
          "type": "uint256"
        }
      ],
      "name": "publicMint",
      "outputs": [],
      "stateMutability": "payable",
      "type": "function"
    },
    {
      "inputs": [],
      "name": "publicMintingEnabled",
      "outputs": [
        {
          "internalType": "bool",
          "name": "",
          "type": "bool"
        }
      ],
      "stateMutability": "view",
      "type": "function"
    },
    {
      "inputs": [],
      "name": "renounceOwnership",
      "outputs": [],
      "stateMutability": "pure",
      "type": "function"
    },
    {
      "inputs": [
        {
          "internalType": "uint256",
          "name": "_tokenId",
          "type": "uint256"
        },
        {
          "internalType": "uint256",
          "name": "_salePrice",
          "type": "uint256"
        }
      ],
      "name": "royaltyInfo",
      "outputs": [
        {
          "internalType": "address",
          "name": "",
          "type": "address"
        },
        {
          "internalType": "uint256",
          "name": "",
          "type": "uint256"
        }
      ],
      "stateMutability": "view",
      "type": "function"
    },
    {
      "inputs": [
        {
          "internalType": "address",
          "name": "from",
          "type": "address"
        },
        {
          "internalType": "address",
          "name": "to",
          "type": "address"
        },
        {
          "internalType": "uint256",
          "name": "tokenId",
          "type": "uint256"
        }
      ],
      "name": "safeTransferFrom",
      "outputs": [],
      "stateMutability": "payable",
      "type": "function"
    },
    {
      "inputs": [
        {
          "internalType": "address",
          "name": "from",
          "type": "address"
        },
        {
          "internalType": "address",
          "name": "to",
          "type": "address"
        },
        {
          "internalType": "uint256",
          "name": "tokenId",
          "type": "uint256"
        },
        {
          "internalType": "bytes",
          "name": "_data",
          "type": "bytes"
        }
      ],
      "name": "safeTransferFrom",
      "outputs": [],
      "stateMutability": "payable",
      "type": "function"
    },
    {
      "inputs": [
        {
          "internalType": "address",
          "name": "operator",
          "type": "address"
        },
        {
          "internalType": "bool",
          "name": "approved",
          "type": "bool"
        }
      ],
      "name": "setApprovalForAll",
      "outputs": [],
      "stateMutability": "nonpayable",
      "type": "function"
    },
    {
      "inputs": [
        {
          "internalType": "address",
          "name": "owner",
          "type": "address"
        },
        {
          "internalType": "uint64",
          "name": "aux",
          "type": "uint64"
        }
      ],
      "name": "setAux",
      "outputs": [],
      "stateMutability": "nonpayable",
      "type": "function"
    },
    {
      "inputs": [
        {
          "internalType": "string",
          "name": "newURI",
          "type": "string"
        }
      ],
      "name": "setBaseURI",
      "outputs": [],
      "stateMutability": "nonpayable",
      "type": "function"
    },
    {
      "inputs": [
        {
          "internalType": "bytes32",
          "name": "merkleRoot_",
          "type": "bytes32"
        }
      ],
      "name": "setMerkleRoot",
      "outputs": [],
      "stateMutability": "nonpayable",
      "type": "function"
    },
    {
      "inputs": [
        {
          "internalType": "string",
          "name": "newExtention",
          "type": "string"
        }
      ],
      "name": "setURIExtention",
      "outputs": [],
      "stateMutability": "nonpayable",
      "type": "function"
    },
    {
      "inputs": [
        {
          "internalType": "uint256",
          "name": "_newPrice",
          "type": "uint256"
        }
      ],
      "name": "setUSDPrice",
      "outputs": [],
      "stateMutability": "nonpayable",
      "type": "function"
    },
    {
      "inputs": [
        {
          "internalType": "bytes4",
          "name": "interfaceId",
          "type": "bytes4"
        }
      ],
      "name": "supportsInterface",
      "outputs": [
        {
          "internalType": "bool",
          "name": "",
          "type": "bool"
        }
      ],
      "stateMutability": "view",
      "type": "function"
    },
    {
      "inputs": [],
      "name": "symbol",
      "outputs": [
        {
          "internalType": "string",
          "name": "",
          "type": "string"
        }
      ],
      "stateMutability": "view",
      "type": "function"
    },
    {
      "inputs": [
        {
          "internalType": "uint256",
          "name": "tokenId",
          "type": "uint256"
        }
      ],
      "name": "tokenURI",
      "outputs": [
        {
          "internalType": "string",
          "name": "",
          "type": "string"
        }
      ],
      "stateMutability": "view",
      "type": "function"
    },
    {
      "inputs": [
        {
          "internalType": "address",
          "name": "owner",
          "type": "address"
        }
      ],
      "name": "tokensOfOwner",
      "outputs": [
        {
          "internalType": "uint256[]",
          "name": "",
          "type": "uint256[]"
        }
      ],
      "stateMutability": "view",
      "type": "function"
    },
    {
      "inputs": [
        {
          "internalType": "address",
          "name": "owner",
          "type": "address"
        },
        {
          "internalType": "uint256",
          "name": "start",
          "type": "uint256"
        },
        {
          "internalType": "uint256",
          "name": "stop",
          "type": "uint256"
        }
      ],
      "name": "tokensOfOwnerIn",
      "outputs": [
        {
          "internalType": "uint256[]",
          "name": "",
          "type": "uint256[]"
        }
      ],
      "stateMutability": "view",
      "type": "function"
    },
    {
      "inputs": [],
      "name": "totalSupply",
      "outputs": [
        {
          "internalType": "uint256",
          "name": "",
          "type": "uint256"
        }
      ],
      "stateMutability": "view",
      "type": "function"
    },
    {
      "inputs": [
        {
          "internalType": "address",
          "name": "from",
          "type": "address"
        },
        {
          "internalType": "address",
          "name": "to",
          "type": "address"
        },
        {
          "internalType": "uint256",
          "name": "tokenId",
          "type": "uint256"
        }
      ],
      "name": "transferFrom",
      "outputs": [],
      "stateMutability": "payable",
      "type": "function"
    },
    {
      "inputs": [
        {
          "internalType": "address",
          "name": "newOwner",
          "type": "address"
        }
      ],
      "name": "transferOwnership",
      "outputs": [],
      "stateMutability": "nonpayable",
      "type": "function"
    }
  ],
  "bytecode": {
    "object": "0x600f805460ff19169055610100604052600460c09081526375726c2f60e01b60e052601190620000309082620003c6565b50604080518082019091526005815264173539b7b760d91b60208201526012906200005c9082620003c6565b503480156200006a57600080fd5b5060405162004169380380620041698339810160408190526200008d91620004af565b6040518060400160405280600981526020016812185b185b185b999d60ba1b815250604051806040016040528060048152602001631213919560e21b8152508160039081620000dd9190620003c6565b506004620000ec8282620003c6565b50506001805550620000fe33620001ac565b6001600d556001600160a01b03808316608052811660a08190526040805163313ce56760e01b8152905163313ce567916004808201926020929091908290030181865afa15801562000154573d6000803e3d6000fd5b505050506040513d601f19601f820116820180604052508101906200017a9190620004e7565b6200018790600a62000628565b620001949060ef62000639565b600e55620001a43360fa620001ca565b505062000653565b600a80546001600160a01b0319169055620001c781620002cf565b50565b6127106001600160601b03821611156200023e5760405162461bcd60e51b815260206004820152602a60248201527f455243323938313a20726f79616c7479206665652077696c6c206578636565646044820152692073616c65507269636560b01b60648201526084015b60405180910390fd5b6001600160a01b038216620002965760405162461bcd60e51b815260206004820152601960248201527f455243323938313a20696e76616c696420726563656976657200000000000000604482015260640162000235565b604080518082019091526001600160a01b039092168083526001600160601b039091166020909201829052600160a01b90910217600b55565b600980546001600160a01b038381166001600160a01b0319831681179093556040519116919082907f8be0079c531659141344cd1fd0a4f28419497f9722a3daafe3b4186f6b6457e090600090a35050565b634e487b7160e01b600052604160045260246000fd5b600181811c908216806200034c57607f821691505b6020821081036200036d57634e487b7160e01b600052602260045260246000fd5b50919050565b601f821115620003c157600081815260208120601f850160051c810160208610156200039c5750805b601f850160051c820191505b81811015620003bd57828155600101620003a8565b5050505b505050565b81516001600160401b03811115620003e257620003e262000321565b620003fa81620003f3845462000337565b8462000373565b602080601f831160018114620004325760008415620004195750858301515b600019600386901b1c1916600185901b178555620003bd565b600085815260208120601f198616915b82811015620004635788860151825594840194600190910190840162000442565b5085821015620004825787850151600019600388901b60f8161c191681555b5050505050600190811b01905550565b80516001600160a01b0381168114620004aa57600080fd5b919050565b60008060408385031215620004c357600080fd5b620004ce8362000492565b9150620004de6020840162000492565b90509250929050565b600060208284031215620004fa57600080fd5b815160ff811681146200050c57600080fd5b9392505050565b634e487b7160e01b600052601160045260246000fd5b600181815b808511156200056a5781600019048211156200054e576200054e62000513565b808516156200055c57918102915b93841c93908002906200052e565b509250929050565b600082620005835750600162000622565b81620005925750600062000622565b8160018114620005ab5760028114620005b657620005d6565b600191505062000622565b60ff841115620005ca57620005ca62000513565b50506001821b62000622565b5060208310610133831016604e8410600b8410161715620005fb575081810a62000622565b62000607838362000529565b80600019048211156200061e576200061e62000513565b0290505b92915050565b60006200050c60ff84168362000572565b808202811582820484141762000622576200062262000513565b60805160a051613abf620006aa60003960008181610b720152611cd9015260008181612189015281816122d20152818161242b015281816125c10152818161268d0152818161275901526128250152613abf6000f3fe6080604052600436106102a05760003560e01c806379ba50971161016e578063bf0b175e116100cb578063e6ab14341161007f578063eb91d37e11610064578063eb91d37e146107ab578063f2fde38b146107c0578063f7beb98a146107e057600080fd5b8063e6ab143414610742578063e985e9c51461075557600080fd5b8063c87b56dd116100b0578063c87b56dd146106e2578063e30c397814610702578063e4fc6b6d1461072d57600080fd5b8063bf0b175e1461067c578063c23dc68f146106b557600080fd5b80639190ad471161012257806399a2557a1161010757806399a2557a14610629578063a22cb46514610649578063b88d4fde1461066957600080fd5b80639190ad47146105ff57806395d89b411461061457600080fd5b80638462151c116101535780638462151c1461058d5780638da5cb5b146105ba5780638dec9f7a146105e557600080fd5b806379ba5097146105585780637cb647591461056d57600080fd5b80632db115441161021c57806355f804b3116101d05780636352211e116101b55780636352211e1461050357806370a0823114610523578063715018a61461054357600080fd5b806355f804b3146104b65780635bbb2177146104d657600080fd5b80634408a046116102015780634408a04614610456578063453ab14114610476578063484b973c1461049657600080fd5b80632db115441461043057806342842e0e1461044357600080fd5b8063147d959a116102735780631a16aacd116102585780631a16aacd146103bb57806323b872dd146103d15780632a55205a146103e457600080fd5b8063147d959a1461035657806318160ddd1461037657600080fd5b806301ffc9a7146102a557806306fdde03146102da578063081812fc146102fc578063095ea7b314610341575b600080fd5b3480156102b157600080fd5b506102c56102c0366004612f5c565b6107f5565b60405190151581526020015b60405180910390f35b3480156102e657600080fd5b506102ef610981565b6040516102d19190612fe7565b34801561030857600080fd5b5061031c610317366004612ffa565b610a13565b60405173ffffffffffffffffffffffffffffffffffffffff90911681526020016102d1565b61035461034f36600461303c565b610a7d565b005b34801561036257600080fd5b50610354610371366004612ffa565b610b68565b34801561038257600080fd5b50600254600154037fffffffffffffffffffffffffffffffffffffffffffffffffffffffffffffffff015b6040519081526020016102d1565b3480156103c757600080fd5b506103ad600e5481565b6103546103df366004613066565b610c1a565b3480156103f057600080fd5b506104046103ff3660046130a2565b610eaa565b6040805173ffffffffffffffffffffffffffffffffffffffff90931683526020830191909152016102d1565b61035461043e366004612ffa565b610fa1565b610354610451366004613066565b6111d4565b34801561046257600080fd5b506103546104713660046130c4565b6111f4565b34801561048257600080fd5b50610354610491366004613136565b611209565b3480156104a257600080fd5b506103546104b136600461303c565b611260565b3480156104c257600080fd5b506103546104d13660046130c4565b611272565b3480156104e257600080fd5b506104f66104f136600461317a565b611287565b6040516102d191906131dd565b34801561050f57600080fd5b5061031c61051e366004612ffa565b611371565b34801561052f57600080fd5b506103ad61053e366004613267565b61137c565b34801561054f57600080fd5b506103546113fe565b34801561056457600080fd5b50610354611462565b34801561057957600080fd5b50610354610588366004612ffa565b601055565b34801561059957600080fd5b506105ad6105a8366004613267565b611517565b6040516102d19190613282565b3480156105c657600080fd5b5060095473ffffffffffffffffffffffffffffffffffffffff1661031c565b3480156105f157600080fd5b50600f546102c59060ff1681565b34801561060b57600080fd5b50610354611642565b34801561062057600080fd5b506102ef611674565b34801561063557600080fd5b506105ad6106443660046132ba565b611683565b34801561065557600080fd5b506103546106643660046132fb565b61184b565b610354610677366004613356565b6118e2565b34801561068857600080fd5b5061069c610697366004613267565b611952565b60405167ffffffffffffffff90911681526020016102d1565b3480156106c157600080fd5b506106d56106d0366004612ffa565b611980565b6040516102d19190613450565b3480156106ee57600080fd5b506102ef6106fd366004612ffa565b611a08565b34801561070e57600080fd5b50600a5473ffffffffffffffffffffffffffffffffffffffff1661031c565b34801561073957600080fd5b50610354611aa7565b610354610750366004612ffa565b611ab7565b34801561076157600080fd5b506102c56107703660046134a2565b73ffffffffffffffffffffffffffffffffffffffff918216600090815260086020908152604080832093909416825291909152205460ff1690565b3480156107b757600080fd5b506103ad611cd2565b3480156107cc57600080fd5b506103546107db366004613267565b611e8a565b3480156107ec57600080fd5b50610354611f3a565b60007fffffffff0000000000000000000000000000000000000000000000000000000082167f8446a79e00000000000000000000000000000000000000000000000000000000148061088857507fffffffff0000000000000000000000000000000000000000000000000000000082167fc21b8f2800000000000000000000000000000000000000000000000000000000145b806108d457507fffffffff0000000000000000000000000000000000000000000000000000000082167f36372b0700000000000000000000000000000000000000000000000000000000145b8061092057507fffffffff0000000000000000000000000000000000000000000000000000000082167f2baae9fd00000000000000000000000000000000000000000000000000000000145b8061096c57507fffffffff0000000000000000000000000000000000000000000000000000000082167f01ffc9a700000000000000000000000000000000000000000000000000000000145b8061097b575061097b82611f6f565b92915050565b606060038054610990906134d5565b80601f01602080910402602001604051908101604052809291908181526020018280546109bc906134d5565b8015610a095780601f106109de57610100808354040283529160200191610a09565b820191906000526020600020905b8154815290600101906020018083116109ec57829003601f168201915b5050505050905090565b6000610a1e82611fc5565b610a54576040517fcf4700e400000000000000000000000000000000000000000000000000000000815260040160405180910390fd5b5060009081526007602052604090205473ffffffffffffffffffffffffffffffffffffffff1690565b6000610a8882611371565b90503373ffffffffffffffffffffffffffffffffffffffff821614610ae757610ab18133610770565b610ae7576040517fcfb3b94200000000000000000000000000000000000000000000000000000000815260040160405180910390fd5b60008281526007602052604080822080547fffffffffffffffffffffffff00000000000000000000000000000000000000001673ffffffffffffffffffffffffffffffffffffffff87811691821790925591518593918516917f8c5be1e5ebec7d5bd14f71427d1e84f3dd0314c0f7b2291e5b200ac8c7c3b92591a4505050565b610b70612013565b7f000000000000000000000000000000000000000000000000000000000000000073ffffffffffffffffffffffffffffffffffffffff1663313ce5676040518163ffffffff1660e01b8152600401602060405180830381865afa158015610bdb573d6000803e3d6000fd5b505050506040513d601f19601f82011682018060405250810190610bff9190613528565b610c0a90600a61369a565b610c1490826136a9565b600e5550565b6000610c2582612094565b90508373ffffffffffffffffffffffffffffffffffffffff168173ffffffffffffffffffffffffffffffffffffffff1614610c8c576040517fa114810000000000000000000000000000000000000000000000000000000000815260040160405180910390fd5b600082815260076020526040902080543380821473ffffffffffffffffffffffffffffffffffffffff881690911417610cff57610cc98633610770565b610cff576040517f59c896be00000000000000000000000000000000000000000000000000000000815260040160405180910390fd5b73ffffffffffffffffffffffffffffffffffffffff8516610d4c576040517fea553b3400000000000000000000000000000000000000000000000000000000815260040160405180910390fd5b8015610d5757600082555b73ffffffffffffffffffffffffffffffffffffffff86811660009081526006602052604080822080547fffffffffffffffffffffffffffffffffffffffffffffffffffffffffffffffff019055918716808252919020805460010190554260a01b177c0200000000000000000000000000000000000000000000000000000000176000858152600560205260408120919091557c020000000000000000000000000000000000000000000000000000000084169003610e4657600184016000818152600560205260408120549003610e44576001548114610e445760008181526005602052604090208490555b505b838573ffffffffffffffffffffffffffffffffffffffff168773ffffffffffffffffffffffffffffffffffffffff167fddf252ad1be2c89b69c2b068fc378daa952ba7f163c4a11628f55a4df523b3ef60405160405180910390a45b505050505050565b6000828152600c6020908152604080832081518083019092525473ffffffffffffffffffffffffffffffffffffffff8116808352740100000000000000000000000000000000000000009091046bffffffffffffffffffffffff16928201929092528291610f65575060408051808201909152600b5473ffffffffffffffffffffffffffffffffffffffff811682527401000000000000000000000000000000000000000090046bffffffffffffffffffffffff1660208201525b602081015160009061271090610f89906bffffffffffffffffffffffff16876136a9565b610f9391906136c0565b915196919550909350505050565b33321461100f576040517f08c379a000000000000000000000000000000000000000000000000000000000815260206004820152601a60248201527f7075626c69633a20626f74206973206e6f7420616c6c6f77656400000000000060448201526064015b60405180910390fd5b600254600154610bb99190037fffffffffffffffffffffffffffffffffffffffffffffffffffffffffffffffff01106110a4576040517f08c379a000000000000000000000000000000000000000000000000000000000815260206004820152601760248201527f7075626c69633a20737570706c792065786365656465640000000000000000006044820152606401611006565b600b8110611134576040517f08c379a000000000000000000000000000000000000000000000000000000000815260206004820152602260248201527f7075626c69633a2063616e6e6f74206d696e746564206d6f7265207468616e2060448201527f31300000000000000000000000000000000000000000000000000000000000006064820152608401611006565b600f5460ff166111a0576040517f08c379a000000000000000000000000000000000000000000000000000000000815260206004820152601e60248201527f7075626c69633a206d696e74696e67206973206e6f7420656e61626c656400006044820152606401611006565b60006111aa611cd2565b90506111be6111b983836136a9565b612153565b6111c833836123e0565b6111d06123fa565b5050565b6111ef838383604051806020016040528060008152506118e2565b505050565b6111fc612013565b60126111ef828483613741565b611211612013565b73ffffffffffffffffffffffffffffffffffffffff82166000908152600660205260409020805460c083901b77ffffffffffffffffffffffffffffffffffffffffffffffff9091161790555050565b611268612013565b6111d082826123e0565b61127a612013565b60116111ef828483613741565b60608160008167ffffffffffffffff8111156112a5576112a5613327565b60405190808252806020026020018201604052801561131557816020015b6040805160808101825260008082526020808301829052928201819052606082015282527fffffffffffffffffffffffffffffffffffffffffffffffffffffffffffffffff9092019101816112c35790505b50905060005b828114611368576113438686838181106113375761133761385b565b90506020020135611980565b8282815181106113555761135561385b565b602090810291909101015260010161131b565b50949350505050565b600061097b82612094565b600073ffffffffffffffffffffffffffffffffffffffff82166113cb576040517f8f4eb60400000000000000000000000000000000000000000000000000000000815260040160405180910390fd5b5073ffffffffffffffffffffffffffffffffffffffff1660009081526006602052604090205467ffffffffffffffff1690565b6040517f08c379a000000000000000000000000000000000000000000000000000000000815260206004820152600f60248201527f63616e6e6f742072656e6f756e636500000000000000000000000000000000006044820152606401611006565b565b600a54339073ffffffffffffffffffffffffffffffffffffffff16811461150b576040517f08c379a000000000000000000000000000000000000000000000000000000000815260206004820152602960248201527f4f776e61626c6532537465703a2063616c6c6572206973206e6f74207468652060448201527f6e6577206f776e657200000000000000000000000000000000000000000000006064820152608401611006565b611514816128a7565b50565b606060008060006115278561137c565b905060008167ffffffffffffffff81111561154457611544613327565b60405190808252806020026020018201604052801561156d578160200160208202803683370190505b5060408051608081018252600080825260208201819052918101829052606081019190915290915060015b838614611636576115a8816128d8565b9150816040015161162e57815173ffffffffffffffffffffffffffffffffffffffff16156115d557815194505b8773ffffffffffffffffffffffffffffffffffffffff168573ffffffffffffffffffffffffffffffffffffffff160361162e57808387806001019850815181106116215761162161385b565b6020026020010181815250505b600101611598565b50909695505050505050565b61164a612013565b600f80547fffffffffffffffffffffffffffffffffffffffffffffffffffffffffffffff00169055565b606060048054610990906134d5565b60608183106116be576040517f32c1995a00000000000000000000000000000000000000000000000000000000815260040160405180910390fd5b6000806116ca60015490565b905060018510156116da57600194505b808411156116e6578093505b60006116f18761137c565b905084861015611710578585038181101561170a578091505b50611714565b5060005b60008167ffffffffffffffff81111561172f5761172f613327565b604051908082528060200260200182016040528015611758578160200160208202803683370190505b5090508160000361176e57935061184492505050565b600061177988611980565b90506000816040015161178a575080515b885b88811415801561179c5750848714155b15611838576117aa816128d8565b9250826040015161183057825173ffffffffffffffffffffffffffffffffffffffff16156117d757825191505b8a73ffffffffffffffffffffffffffffffffffffffff168273ffffffffffffffffffffffffffffffffffffffff160361183057808488806001019950815181106118235761182361385b565b6020026020010181815250505b60010161178c565b50505092835250909150505b9392505050565b33600081815260086020908152604080832073ffffffffffffffffffffffffffffffffffffffff87168085529083529281902080547fffffffffffffffffffffffffffffffffffffffffffffffffffffffffffffff001686151590811790915590519081529192917f17307eab39ab6107e8899845ad3d59bd9653f200f220920489ca2b5937696c31910160405180910390a35050565b6118ed848484610c1a565b73ffffffffffffffffffffffffffffffffffffffff83163b1561194c576119168484848461297d565b61194c576040517fd1a57ed600000000000000000000000000000000000000000000000000000000815260040160405180910390fd5b50505050565b73ffffffffffffffffffffffffffffffffffffffff811660009081526006602052604081205460c01c61097b565b60408051608081018252600080825260208201819052918101829052606081019190915260408051608081018252600080825260208201819052918101829052606081019190915260018310806119d957506001548310155b156119e45792915050565b6119ed836128d8565b90508060400151156119ff5792915050565b61184483612af6565b6060611a1382611fc5565b611a49576040517fa14c4b5000000000000000000000000000000000000000000000000000000000815260040160405180910390fd5b6000611a53612b94565b90508051600003611a735760405180602001604052806000815250611844565b80611a7d84612ba3565b6012604051602001611a919392919061388a565b6040516020818303038152906040529392505050565b611aaf612013565b6114606123fa565b333214611b20576040517f08c379a000000000000000000000000000000000000000000000000000000000815260206004820152601b60248201527f70726573616c653a20626f74206973206e6f7420616c6c6f77656400000000006044820152606401611006565b3360009081526006602052604090205460c01c811115611bc2576040517f08c379a000000000000000000000000000000000000000000000000000000000815260206004820152602860248201527f70726573616c653a2063616e6e6f74206d696e746564206d6f7265207468616e60448201527f20616c6c6f7765640000000000000000000000000000000000000000000000006064820152608401611006565b600f5460ff1615611c54576040517f08c379a0000000000000000000000000000000000000000000000000000000008152602060048201526024808201527f70726573616c653a207075626c6963206d696e74696e6720616c72656164792060448201527f6c697665000000000000000000000000000000000000000000000000000000006064820152608401611006565b6000611c5e611cd2565b9050611c6d6111b983836136a9565b611c7733836123e0565b33600090815260066020526040812054611c9590849060c01c613948565b336000908152600660205260409020805477ffffffffffffffffffffffffffffffffffffffffffffffff1660c083901b17905590506111ef6123fa565b60008060007f000000000000000000000000000000000000000000000000000000000000000073ffffffffffffffffffffffffffffffffffffffff1663feaf968c6040518163ffffffff1660e01b815260040160a060405180830381865afa158015611d42573d6000803e3d6000fd5b505050506040513d601f19601f82011682018060405250810190611d66919061398a565b5093505092505060008213611dfd576040517f08c379a000000000000000000000000000000000000000000000000000000000815260206004820152602360248201527f466565642070726963652073686f756c6420626520677265617465722074686160448201527f6e203000000000000000000000000000000000000000000000000000000000006064820152608401611006565b611e0a62015180426139da565b8111611e72576040517f08c379a000000000000000000000000000000000000000000000000000000000815260206004820152600b60248201527f5374616c652050726963650000000000000000000000000000000000000000006044820152606401611006565b600082600e54611e8291906136c0565b949350505050565b611e92612013565b600a805473ffffffffffffffffffffffffffffffffffffffff83167fffffffffffffffffffffffff00000000000000000000000000000000000000009091168117909155611ef560095473ffffffffffffffffffffffffffffffffffffffff1690565b73ffffffffffffffffffffffffffffffffffffffff167f38d16b8cac22d99fc7c124b9cd0de2d3fa1faef420bfe791d8c362d765e2270060405160405180910390a350565b611f42612013565b600f80547fffffffffffffffffffffffffffffffffffffffffffffffffffffffffffffff00166001179055565b60007fffffffff0000000000000000000000000000000000000000000000000000000082167f2a55205a00000000000000000000000000000000000000000000000000000000148061097b575061097b82612c05565b600081600111158015611fd9575060015482105b801561097b5750506000908152600560205260409020547c0100000000000000000000000000000000000000000000000000000000161590565b60095473ffffffffffffffffffffffffffffffffffffffff163314611460576040517f08c379a000000000000000000000000000000000000000000000000000000000815260206004820181905260248201527f4f776e61626c653a2063616c6c6572206973206e6f7420746865206f776e65726044820152606401611006565b600081806001116121215760015481101561212157600081815260056020526040812054907c01000000000000000000000000000000000000000000000000000000008216900361211f575b8060000361184457507fffffffffffffffffffffffffffffffffffffffffffffffffffffffffffffffff016000818152600560205260409020546120e0565b505b6040517fdf2d9b4200000000000000000000000000000000000000000000000000000000815260040160405180910390fd5b6040517fdd62ed3e00000000000000000000000000000000000000000000000000000000815233600482015230602482015281907f000000000000000000000000000000000000000000000000000000000000000073ffffffffffffffffffffffffffffffffffffffff169063dd62ed3e90604401602060405180830381865afa1580156121e5573d6000803e3d6000fd5b505050506040513d601f19601f8201168201806040525081019061220991906139ed565b1015612297576040517f08c379a000000000000000000000000000000000000000000000000000000000815260206004820152602260248201527f7472616e73666572496e3a20696e73756666696369656e7420616c6c6f77616e60448201527f63650000000000000000000000000000000000000000000000000000000000006064820152608401611006565b6040517f23b872dd000000000000000000000000000000000000000000000000000000008152336004820152306024820152604481018290527f000000000000000000000000000000000000000000000000000000000000000073ffffffffffffffffffffffffffffffffffffffff16906323b872dd906064016020604051808303816000875af1158015612330573d6000803e3d6000fd5b505050506040513d601f19601f820116820180604052508101906123549190613a06565b611514576040517f08c379a000000000000000000000000000000000000000000000000000000000815260206004820152602360248201527f7472616e7366657246726f6d3a2063616e6e6f74207472616e7366657220746f60448201527f6b656e00000000000000000000000000000000000000000000000000000000006064820152608401611006565b6111d0828260405180602001604052806000815250612ce6565b6040517f70a082310000000000000000000000000000000000000000000000000000000081523060048201526000907f000000000000000000000000000000000000000000000000000000000000000073ffffffffffffffffffffffffffffffffffffffff16906370a0823190602401602060405180830381865afa158015612487573d6000803e3d6000fd5b505050506040513d601f19601f820116820180604052508101906124ab91906139ed565b905060008111612517576040517f08c379a000000000000000000000000000000000000000000000000000000000815260206004820152601560248201527f4e6f205553444320746f206469737472696275746500000000000000000000006044820152606401611006565b600060056125268360036136a9565b61253091906136c0565b9050600061253f600a846136c0565b9050600060146125508560036136a9565b61255a91906136c0565b90506000601461256b8660036136a9565b61257591906136c0565b6040517fa9059cbb00000000000000000000000000000000000000000000000000000000815273b85885977d5daf4d6768afc670c14a5fc209b8e96004820152602481018690529091507f000000000000000000000000000000000000000000000000000000000000000073ffffffffffffffffffffffffffffffffffffffff169063a9059cbb906044016020604051808303816000875af115801561261f573d6000803e3d6000fd5b505050506040513d601f19601f820116820180604052508101906126439190613a06565b506040517fa9059cbb000000000000000000000000000000000000000000000000000000008152736a07f68a60eb5890947a5af40f3ea928447d55276004820152602481018490527f000000000000000000000000000000000000000000000000000000000000000073ffffffffffffffffffffffffffffffffffffffff169063a9059cbb906044016020604051808303816000875af11580156126eb573d6000803e3d6000fd5b505050506040513d601f19601f8201168201806040525081019061270f9190613a06565b506040517fa9059cbb0000000000000000000000000000000000000000000000000000000081527342ef5475eb5951b92ce28dccecb720654623fcb26004820152602481018390527f000000000000000000000000000000000000000000000000000000000000000073ffffffffffffffffffffffffffffffffffffffff169063a9059cbb906044016020604051808303816000875af11580156127b7573d6000803e3d6000fd5b505050506040513d601f19601f820116820180604052508101906127db9190613a06565b506040517fa9059cbb00000000000000000000000000000000000000000000000000000000815273742a1b678a34f9e79ff4468968ffed99676ad3dc6004820152602481018290527f000000000000000000000000000000000000000000000000000000000000000073ffffffffffffffffffffffffffffffffffffffff169063a9059cbb906044016020604051808303816000875af1158015612883573d6000803e3d6000fd5b505050506040513d601f19601f82011682018060405250810190610ea29190613a06565b600a80547fffffffffffffffffffffffff000000000000000000000000000000000000000016905561151481612d79565b60408051608081018252600080825260208201819052918101829052606081019190915260008281526005602052604090205461097b906040805160808101825273ffffffffffffffffffffffffffffffffffffffff8316815260a083901c67ffffffffffffffff1660208201527c0100000000000000000000000000000000000000000000000000000000831615159181019190915260e89190911c606082015290565b6040517f150b7a0200000000000000000000000000000000000000000000000000000000815260009073ffffffffffffffffffffffffffffffffffffffff85169063150b7a02906129d8903390899088908890600401613a23565b6020604051808303816000875af1925050508015612a31575060408051601f3d9081017fffffffffffffffffffffffffffffffffffffffffffffffffffffffffffffffe0168201909252612a2e91810190613a6c565b60015b612aa8573d808015612a5f576040519150601f19603f3d011682016040523d82523d6000602084013e612a64565b606091505b508051600003612aa0576040517fd1a57ed600000000000000000000000000000000000000000000000000000000815260040160405180910390fd5b805181602001fd5b7fffffffff00000000000000000000000000000000000000000000000000000000167f150b7a0200000000000000000000000000000000000000000000000000000000149050949350505050565b60408051608081018252600080825260208201819052918101829052606081019190915261097b612b2683612094565b6040805160808101825273ffffffffffffffffffffffffffffffffffffffff8316815260a083901c67ffffffffffffffff1660208201527c0100000000000000000000000000000000000000000000000000000000831615159181019190915260e89190911c606082015290565b606060118054610990906134d5565b606060a06040510180604052602081039150506000815280825b600183039250600a81066030018353600a900480612bbd57508190037fffffffffffffffffffffffffffffffffffffffffffffffffffffffffffffffe0909101908152919050565b60007f01ffc9a7000000000000000000000000000000000000000000000000000000007fffffffff0000000000000000000000000000000000000000000000000000000083161480612c9857507f80ac58cd000000000000000000000000000000000000000000000000000000007fffffffff000000000000000000000000000000000000000000000000000000008316145b8061097b5750507fffffffff00000000000000000000000000000000000000000000000000000000167f5b5e139f000000000000000000000000000000000000000000000000000000001490565b612cf08383612df0565b73ffffffffffffffffffffffffffffffffffffffff83163b156111ef576001548281035b612d27600086838060010194508661297d565b612d5d576040517fd1a57ed600000000000000000000000000000000000000000000000000000000815260040160405180910390fd5b818110612d14578160015414612d7257600080fd5b5050505050565b6009805473ffffffffffffffffffffffffffffffffffffffff8381167fffffffffffffffffffffffff0000000000000000000000000000000000000000831681179093556040519116919082907f8be0079c531659141344cd1fd0a4f28419497f9722a3daafe3b4186f6b6457e090600090a35050565b6001546000829003612e2e576040517fb562e8dd00000000000000000000000000000000000000000000000000000000815260040160405180910390fd5b73ffffffffffffffffffffffffffffffffffffffff831660008181526006602090815260408083208054680100000000000000018802019055848352600590915281206001851460e11b4260a01b178317905582840190839083907fddf252ad1be2c89b69c2b068fc378daa952ba7f163c4a11628f55a4df523b3ef8180a4600183015b818114612eea57808360007fddf252ad1be2c89b69c2b068fc378daa952ba7f163c4a11628f55a4df523b3ef600080a4600101612eb2565b5081600003612f25576040517f2e07630000000000000000000000000000000000000000000000000000000000815260040160405180910390fd5b60015550505050565b7fffffffff000000000000000000000000000000000000000000000000000000008116811461151457600080fd5b600060208284031215612f6e57600080fd5b813561184481612f2e565b60005b83811015612f94578181015183820152602001612f7c565b50506000910152565b60008151808452612fb5816020860160208601612f79565b601f017fffffffffffffffffffffffffffffffffffffffffffffffffffffffffffffffe0169290920160200192915050565b6020815260006118446020830184612f9d565b60006020828403121561300c57600080fd5b5035919050565b803573ffffffffffffffffffffffffffffffffffffffff8116811461303757600080fd5b919050565b6000806040838503121561304f57600080fd5b61305883613013565b946020939093013593505050565b60008060006060848603121561307b57600080fd5b61308484613013565b925061309260208501613013565b9150604084013590509250925092565b600080604083850312156130b557600080fd5b50508035926020909101359150565b600080602083850312156130d757600080fd5b823567ffffffffffffffff808211156130ef57600080fd5b818501915085601f83011261310357600080fd5b81358181111561311257600080fd5b86602082850101111561312457600080fd5b60209290920196919550909350505050565b6000806040838503121561314957600080fd5b61315283613013565b9150602083013567ffffffffffffffff8116811461316f57600080fd5b809150509250929050565b6000806020838503121561318d57600080fd5b823567ffffffffffffffff808211156131a557600080fd5b818501915085601f8301126131b957600080fd5b8135818111156131c857600080fd5b8660208260051b850101111561312457600080fd5b6020808252825182820181905260009190848201906040850190845b818110156116365761325483855173ffffffffffffffffffffffffffffffffffffffff815116825267ffffffffffffffff602082015116602083015260408101511515604083015262ffffff60608201511660608301525050565b92840192608092909201916001016131f9565b60006020828403121561327957600080fd5b61184482613013565b6020808252825182820181905260009190848201906040850190845b818110156116365783518352928401929184019160010161329e565b6000806000606084860312156132cf57600080fd5b6132d884613013565b95602085013595506040909401359392505050565b801515811461151457600080fd5b6000806040838503121561330e57600080fd5b61331783613013565b9150602083013561316f816132ed565b7f4e487b7100000000000000000000000000000000000000000000000000000000600052604160045260246000fd5b6000806000806080858703121561336c57600080fd5b61337585613013565b935061338360208601613013565b925060408501359150606085013567ffffffffffffffff808211156133a757600080fd5b818701915087601f8301126133bb57600080fd5b8135818111156133cd576133cd613327565b604051601f82017fffffffffffffffffffffffffffffffffffffffffffffffffffffffffffffffe0908116603f0116810190838211818310171561341357613413613327565b816040528281528a602084870101111561342c57600080fd5b82602086016020830137600060208483010152809550505050505092959194509250565b815173ffffffffffffffffffffffffffffffffffffffff16815260208083015167ffffffffffffffff169082015260408083015115159082015260608083015162ffffff16908201526080810161097b565b600080604083850312156134b557600080fd5b6134be83613013565b91506134cc60208401613013565b90509250929050565b600181811c908216806134e957607f821691505b602082108103613522577f4e487b7100000000000000000000000000000000000000000000000000000000600052602260045260246000fd5b50919050565b60006020828403121561353a57600080fd5b815160ff8116811461184457600080fd5b7f4e487b7100000000000000000000000000000000000000000000000000000000600052601160045260246000fd5b600181815b808511156135d357817fffffffffffffffffffffffffffffffffffffffffffffffffffffffffffffffff048211156135b9576135b961354b565b808516156135c657918102915b93841c939080029061357f565b509250929050565b6000826135ea5750600161097b565b816135f75750600061097b565b816001811461360d576002811461361757613633565b600191505061097b565b60ff8411156136285761362861354b565b50506001821b61097b565b5060208310610133831016604e8410600b8410161715613656575081810a61097b565b613660838361357a565b807fffffffffffffffffffffffffffffffffffffffffffffffffffffffffffffffff048211156136925761369261354b565b029392505050565b600061184460ff8416836135db565b808202811582820484141761097b5761097b61354b565b6000826136f6577f4e487b7100000000000000000000000000000000000000000000000000000000600052601260045260246000fd5b500490565b601f8211156111ef57600081815260208120601f850160051c810160208610156137225750805b601f850160051c820191505b81811015610ea25782815560010161372e565b67ffffffffffffffff83111561375957613759613327565b61376d8361376783546134d5565b836136fb565b6000601f8411600181146137bf57600085156137895750838201355b7fffffffffffffffffffffffffffffffffffffffffffffffffffffffffffffffff600387901b1c1916600186901b178355612d72565b6000838152602090207fffffffffffffffffffffffffffffffffffffffffffffffffffffffffffffffe0861690835b8281101561380e57868501358255602094850194600190920191016137ee565b5086821015613849577fffffffffffffffffffffffffffffffffffffffffffffffffffffffffffffffff60f88860031b161c19848701351681555b505060018560011b0183555050505050565b7f4e487b7100000000000000000000000000000000000000000000000000000000600052603260045260246000fd5b60008451602061389d8285838a01612f79565b8551918401916138b08184848a01612f79565b85549201916000906138c1816134d5565b600182811680156138d9576001811461390c57613938565b7fffffffffffffffffffffffffffffffffffffffffffffffffffffffffffffff0084168752821515830287019450613938565b896000528560002060005b8481101561393057815489820152908301908701613917565b505082870194505b50929a9950505050505050505050565b67ffffffffffffffff8281168282160390808211156139695761396961354b565b5092915050565b805169ffffffffffffffffffff8116811461303757600080fd5b600080600080600060a086880312156139a257600080fd5b6139ab86613970565b94506020860151935060408601519250606086015191506139ce60808701613970565b90509295509295909350565b8181038181111561097b5761097b61354b565b6000602082840312156139ff57600080fd5b5051919050565b600060208284031215613a1857600080fd5b8151611844816132ed565b600073ffffffffffffffffffffffffffffffffffffffff808716835280861660208401525083604083015260806060830152613a626080830184612f9d565b9695505050505050565b600060208284031215613a7e57600080fd5b815161184481612f2e56fea26469706673582212209f815376d490e686f2304ccdc909712e69119431232c19d6296606ec7b17043364736f6c63430008130033",
    "linkReferences": {}
  },
  "methodIdentifiers": {
    "_usdPrice()": "1a16aacd",
    "acceptOwnership()": "79ba5097",
    "approve(address,uint256)": "095ea7b3",
    "balanceOf(address)": "70a08231",
    "disablePublicMinting()": "9190ad47",
    "distribute()": "e4fc6b6d",
    "enablePublicMinting()": "f7beb98a",
    "explicitOwnershipOf(uint256)": "c23dc68f",
    "explicitOwnershipsOf(uint256[])": "5bbb2177",
    "getApproved(uint256)": "081812fc",
    "getAux(address)": "bf0b175e",
    "getCurrentPrice()": "eb91d37e",
    "isApprovedForAll(address,address)": "e985e9c5",
    "name()": "06fdde03",
    "owner()": "8da5cb5b",
    "ownerMint(address,uint256)": "484b973c",
    "ownerOf(uint256)": "6352211e",
    "pendingOwner()": "e30c3978",
    "presale(uint256)": "e6ab1434",
    "publicMint(uint256)": "2db11544",
    "publicMintingEnabled()": "8dec9f7a",
    "renounceOwnership()": "715018a6",
    "royaltyInfo(uint256,uint256)": "2a55205a",
    "safeTransferFrom(address,address,uint256)": "42842e0e",
    "safeTransferFrom(address,address,uint256,bytes)": "b88d4fde",
    "setApprovalForAll(address,bool)": "a22cb465",
    "setAux(address,uint64)": "453ab141",
    "setBaseURI(string)": "55f804b3",
    "setMerkleRoot(bytes32)": "7cb64759",
    "setURIExtention(string)": "4408a046",
    "setUSDPrice(uint256)": "147d959a",
    "supportsInterface(bytes4)": "01ffc9a7",
    "symbol()": "95d89b41",
    "tokenURI(uint256)": "c87b56dd",
    "tokensOfOwner(address)": "8462151c",
    "tokensOfOwnerIn(address,uint256,uint256)": "99a2557a",
    "totalSupply()": "18160ddd",
    "transferFrom(address,address,uint256)": "23b872dd",
    "transferOwnership(address)": "f2fde38b"
  },
  "id": 39
}