{
  "abi": [
    {
      "inputs": [
        {
          "internalType": "address",
          "name": "_usdc",
          "type": "address"
        },
        {
          "internalType": "address",
          "name": "_feed",
          "type": "address"
        }
      ],
      "stateMutability": "nonpayable",
      "type": "constructor"
    },
    {
      "inputs": [],
      "name": "ApprovalCallerNotOwnerNorApproved",
      "type": "error"
    },
    {
      "inputs": [],
      "name": "ApprovalQueryForNonexistentToken",
      "type": "error"
    },
    {
      "inputs": [],
      "name": "BalanceQueryForZeroAddress",
      "type": "error"
    },
    {
      "inputs": [],
      "name": "InvalidQueryRange",
      "type": "error"
    },
    {
      "inputs": [],
      "name": "MintERC2309QuantityExceedsLimit",
      "type": "error"
    },
    {
      "inputs": [],
      "name": "MintToZeroAddress",
      "type": "error"
    },
    {
      "inputs": [],
      "name": "MintZeroQuantity",
      "type": "error"
    },
    {
      "inputs": [],
      "name": "OwnerQueryForNonexistentToken",
      "type": "error"
    },
    {
      "inputs": [],
      "name": "OwnershipNotInitializedForExtraData",
      "type": "error"
    },
    {
      "inputs": [],
      "name": "TransferCallerNotOwnerNorApproved",
      "type": "error"
    },
    {
      "inputs": [],
      "name": "TransferFromIncorrectOwner",
      "type": "error"
    },
    {
      "inputs": [],
      "name": "TransferToNonERC721ReceiverImplementer",
      "type": "error"
    },
    {
      "inputs": [],
      "name": "TransferToZeroAddress",
      "type": "error"
    },
    {
      "inputs": [],
      "name": "URIQueryForNonexistentToken",
      "type": "error"
    },
    {
      "anonymous": false,
      "inputs": [
        {
          "indexed": true,
          "internalType": "address",
          "name": "owner",
          "type": "address"
        },
        {
          "indexed": true,
          "internalType": "address",
          "name": "approved",
          "type": "address"
        },
        {
          "indexed": true,
          "internalType": "uint256",
          "name": "tokenId",
          "type": "uint256"
        }
      ],
      "name": "Approval",
      "type": "event"
    },
    {
      "anonymous": false,
      "inputs": [
        {
          "indexed": true,
          "internalType": "address",
          "name": "owner",
          "type": "address"
        },
        {
          "indexed": true,
          "internalType": "address",
          "name": "operator",
          "type": "address"
        },
        {
          "indexed": false,
          "internalType": "bool",
          "name": "approved",
          "type": "bool"
        }
      ],
      "name": "ApprovalForAll",
      "type": "event"
    },
    {
      "anonymous": false,
      "inputs": [
        {
          "indexed": true,
          "internalType": "uint256",
          "name": "fromTokenId",
          "type": "uint256"
        },
        {
          "indexed": false,
          "internalType": "uint256",
          "name": "toTokenId",
          "type": "uint256"
        },
        {
          "indexed": true,
          "internalType": "address",
          "name": "from",
          "type": "address"
        },
        {
          "indexed": true,
          "internalType": "address",
          "name": "to",
          "type": "address"
        }
      ],
      "name": "ConsecutiveTransfer",
      "type": "event"
    },
    {
      "anonymous": false,
      "inputs": [
        {
          "indexed": true,
          "internalType": "address",
          "name": "previousOwner",
          "type": "address"
        },
        {
          "indexed": true,
          "internalType": "address",
          "name": "newOwner",
          "type": "address"
        }
      ],
      "name": "OwnershipTransferStarted",
      "type": "event"
    },
    {
      "anonymous": false,
      "inputs": [
        {
          "indexed": true,
          "internalType": "address",
          "name": "previousOwner",
          "type": "address"
        },
        {
          "indexed": true,
          "internalType": "address",
          "name": "newOwner",
          "type": "address"
        }
      ],
      "name": "OwnershipTransferred",
      "type": "event"
    },
    {
      "anonymous": false,
      "inputs": [
        {
          "indexed": true,
          "internalType": "address",
          "name": "from",
          "type": "address"
        },
        {
          "indexed": true,
          "internalType": "address",
          "name": "to",
          "type": "address"
        },
        {
          "indexed": true,
          "internalType": "uint256",
          "name": "tokenId",
          "type": "uint256"
        }
      ],
      "name": "Transfer",
      "type": "event"
    },
    {
      "inputs": [],
      "name": "_usdPrice",
      "outputs": [
        {
          "internalType": "uint256",
          "name": "",
          "type": "uint256"
        }
      ],
      "stateMutability": "view",
      "type": "function"
    },
    {
      "inputs": [],
      "name": "acceptOwnership",
      "outputs": [],
      "stateMutability": "nonpayable",
      "type": "function"
    },
    {
      "inputs": [
        {
          "internalType": "address",
          "name": "to",
          "type": "address"
        },
        {
          "internalType": "uint256",
          "name": "tokenId",
          "type": "uint256"
        }
      ],
      "name": "approve",
      "outputs": [],
      "stateMutability": "payable",
      "type": "function"
    },
    {
      "inputs": [
        {
          "internalType": "address",
          "name": "owner",
          "type": "address"
        }
      ],
      "name": "balanceOf",
      "outputs": [
        {
          "internalType": "uint256",
          "name": "",
          "type": "uint256"
        }
      ],
      "stateMutability": "view",
      "type": "function"
    },
    {
      "inputs": [],
      "name": "disablePublicMinting",
      "outputs": [],
      "stateMutability": "nonpayable",
      "type": "function"
    },
    {
      "inputs": [],
      "name": "distribute",
      "outputs": [],
      "stateMutability": "nonpayable",
      "type": "function"
    },
    {
      "inputs": [],
      "name": "enablePublicMinting",
      "outputs": [],
      "stateMutability": "nonpayable",
      "type": "function"
    },
    {
      "inputs": [
        {
          "internalType": "uint256",
          "name": "tokenId",
          "type": "uint256"
        }
      ],
      "name": "explicitOwnershipOf",
      "outputs": [
        {
          "components": [
            {
              "internalType": "address",
              "name": "addr",
              "type": "address"
            },
            {
              "internalType": "uint64",
              "name": "startTimestamp",
              "type": "uint64"
            },
            {
              "internalType": "bool",
              "name": "burned",
              "type": "bool"
            },
            {
              "internalType": "uint24",
              "name": "extraData",
              "type": "uint24"
            }
          ],
          "internalType": "struct IERC721A.TokenOwnership",
          "name": "",
          "type": "tuple"
        }
      ],
      "stateMutability": "view",
      "type": "function"
    },
    {
      "inputs": [
        {
          "internalType": "uint256[]",
          "name": "tokenIds",
          "type": "uint256[]"
        }
      ],
      "name": "explicitOwnershipsOf",
      "outputs": [
        {
          "components": [
            {
              "internalType": "address",
              "name": "addr",
              "type": "address"
            },
            {
              "internalType": "uint64",
              "name": "startTimestamp",
              "type": "uint64"
            },
            {
              "internalType": "bool",
              "name": "burned",
              "type": "bool"
            },
            {
              "internalType": "uint24",
              "name": "extraData",
              "type": "uint24"
            }
          ],
          "internalType": "struct IERC721A.TokenOwnership[]",
          "name": "",
          "type": "tuple[]"
        }
      ],
      "stateMutability": "view",
      "type": "function"
    },
    {
      "inputs": [
        {
          "internalType": "uint256",
          "name": "tokenId",
          "type": "uint256"
        }
      ],
      "name": "getApproved",
      "outputs": [
        {
          "internalType": "address",
          "name": "",
          "type": "address"
        }
      ],
      "stateMutability": "view",
      "type": "function"
    },
    {
      "inputs": [
        {
          "internalType": "address",
          "name": "owner",
          "type": "address"
        }
      ],
      "name": "getAux",
      "outputs": [
        {
          "internalType": "uint64",
          "name": "",
          "type": "uint64"
        }
      ],
      "stateMutability": "view",
      "type": "function"
    },
    {
      "inputs": [],
      "name": "getCurrentPrice",
      "outputs": [
        {
          "internalType": "uint256",
          "name": "",
          "type": "uint256"
        }
      ],
      "stateMutability": "view",
      "type": "function"
    },
    {
      "inputs": [
        {
          "internalType": "address",
          "name": "owner",
          "type": "address"
        },
        {
          "internalType": "address",
          "name": "operator",
          "type": "address"
        }
      ],
      "name": "isApprovedForAll",
      "outputs": [
        {
          "internalType": "bool",
          "name": "",
          "type": "bool"
        }
      ],
      "stateMutability": "view",
      "type": "function"
    },
    {
      "inputs": [],
      "name": "name",
      "outputs": [
        {
          "internalType": "string",
          "name": "",
          "type": "string"
        }
      ],
      "stateMutability": "view",
      "type": "function"
    },
    {
      "inputs": [],
      "name": "owner",
      "outputs": [
        {
          "internalType": "address",
          "name": "",
          "type": "address"
        }
      ],
      "stateMutability": "view",
      "type": "function"
    },
    {
      "inputs": [
        {
          "internalType": "address",
          "name": "to",
          "type": "address"
        },
        {
          "internalType": "uint256",
          "name": "quantity",
          "type": "uint256"
        }
      ],
      "name": "ownerMint",
      "outputs": [],
      "stateMutability": "nonpayable",
      "type": "function"
    },
    {
      "inputs": [
        {
          "internalType": "uint256",
          "name": "tokenId",
          "type": "uint256"
        }
      ],
      "name": "ownerOf",
      "outputs": [
        {
          "internalType": "address",
          "name": "",
          "type": "address"
        }
      ],
      "stateMutability": "view",
      "type": "function"
    },
    {
      "inputs": [],
      "name": "pendingOwner",
      "outputs": [
        {
          "internalType": "address",
          "name": "",
          "type": "address"
        }
      ],
      "stateMutability": "view",
      "type": "function"
    },
    {
      "inputs": [
        {
          "internalType": "uint256",
          "name": "_amount",
          "type": "uint256"
        }
      ],
      "name": "publicMint",
      "outputs": [],
      "stateMutability": "payable",
      "type": "function"
    },
    {
      "inputs": [],
      "name": "publicMintingEnabled",
      "outputs": [
        {
          "internalType": "bool",
          "name": "",
          "type": "bool"
        }
      ],
      "stateMutability": "view",
      "type": "function"
    },
    {
      "inputs": [],
      "name": "renounceOwnership",
      "outputs": [],
      "stateMutability": "pure",
      "type": "function"
    },
    {
      "inputs": [
        {
          "internalType": "uint256",
          "name": "_tokenId",
          "type": "uint256"
        },
        {
          "internalType": "uint256",
          "name": "_salePrice",
          "type": "uint256"
        }
      ],
      "name": "royaltyInfo",
      "outputs": [
        {
          "internalType": "address",
          "name": "",
          "type": "address"
        },
        {
          "internalType": "uint256",
          "name": "",
          "type": "uint256"
        }
      ],
      "stateMutability": "view",
      "type": "function"
    },
    {
      "inputs": [
        {
          "internalType": "address",
          "name": "from",
          "type": "address"
        },
        {
          "internalType": "address",
          "name": "to",
          "type": "address"
        },
        {
          "internalType": "uint256",
          "name": "tokenId",
          "type": "uint256"
        }
      ],
      "name": "safeTransferFrom",
      "outputs": [],
      "stateMutability": "payable",
      "type": "function"
    },
    {
      "inputs": [
        {
          "internalType": "address",
          "name": "from",
          "type": "address"
        },
        {
          "internalType": "address",
          "name": "to",
          "type": "address"
        },
        {
          "internalType": "uint256",
          "name": "tokenId",
          "type": "uint256"
        },
        {
          "internalType": "bytes",
          "name": "_data",
          "type": "bytes"
        }
      ],
      "name": "safeTransferFrom",
      "outputs": [],
      "stateMutability": "payable",
      "type": "function"
    },
    {
      "inputs": [
        {
          "internalType": "address",
          "name": "operator",
          "type": "address"
        },
        {
          "internalType": "bool",
          "name": "approved",
          "type": "bool"
        }
      ],
      "name": "setApprovalForAll",
      "outputs": [],
      "stateMutability": "nonpayable",
      "type": "function"
    },
    {
      "inputs": [
        {
          "internalType": "address",
          "name": "owner",
          "type": "address"
        },
        {
          "internalType": "uint64",
          "name": "aux",
          "type": "uint64"
        }
      ],
      "name": "setAux",
      "outputs": [],
      "stateMutability": "nonpayable",
      "type": "function"
    },
    {
      "inputs": [
        {
          "internalType": "string",
          "name": "newURI",
          "type": "string"
        }
      ],
      "name": "setBaseURI",
      "outputs": [],
      "stateMutability": "nonpayable",
      "type": "function"
    },
    {
      "inputs": [
        {
          "internalType": "string",
          "name": "newExtention",
          "type": "string"
        }
      ],
      "name": "setURIExtention",
      "outputs": [],
      "stateMutability": "nonpayable",
      "type": "function"
    },
    {
      "inputs": [
        {
          "internalType": "uint256",
          "name": "_newPrice",
          "type": "uint256"
        }
      ],
      "name": "setUSDPrice",
      "outputs": [],
      "stateMutability": "nonpayable",
      "type": "function"
    },
    {
      "inputs": [
        {
          "internalType": "bytes4",
          "name": "interfaceId",
          "type": "bytes4"
        }
      ],
      "name": "supportsInterface",
      "outputs": [
        {
          "internalType": "bool",
          "name": "",
          "type": "bool"
        }
      ],
      "stateMutability": "view",
      "type": "function"
    },
    {
      "inputs": [],
      "name": "symbol",
      "outputs": [
        {
          "internalType": "string",
          "name": "",
          "type": "string"
        }
      ],
      "stateMutability": "view",
      "type": "function"
    },
    {
      "inputs": [
        {
          "internalType": "uint256",
          "name": "tokenId",
          "type": "uint256"
        }
      ],
      "name": "tokenURI",
      "outputs": [
        {
          "internalType": "string",
          "name": "",
          "type": "string"
        }
      ],
      "stateMutability": "view",
      "type": "function"
    },
    {
      "inputs": [
        {
          "internalType": "address",
          "name": "owner",
          "type": "address"
        }
      ],
      "name": "tokensOfOwner",
      "outputs": [
        {
          "internalType": "uint256[]",
          "name": "",
          "type": "uint256[]"
        }
      ],
      "stateMutability": "view",
      "type": "function"
    },
    {
      "inputs": [
        {
          "internalType": "address",
          "name": "owner",
          "type": "address"
        },
        {
          "internalType": "uint256",
          "name": "start",
          "type": "uint256"
        },
        {
          "internalType": "uint256",
          "name": "stop",
          "type": "uint256"
        }
      ],
      "name": "tokensOfOwnerIn",
      "outputs": [
        {
          "internalType": "uint256[]",
          "name": "",
          "type": "uint256[]"
        }
      ],
      "stateMutability": "view",
      "type": "function"
    },
    {
      "inputs": [],
      "name": "totalSupply",
      "outputs": [
        {
          "internalType": "uint256",
          "name": "",
          "type": "uint256"
        }
      ],
      "stateMutability": "view",
      "type": "function"
    },
    {
      "inputs": [
        {
          "internalType": "address",
          "name": "from",
          "type": "address"
        },
        {
          "internalType": "address",
          "name": "to",
          "type": "address"
        },
        {
          "internalType": "uint256",
          "name": "tokenId",
          "type": "uint256"
        }
      ],
      "name": "transferFrom",
      "outputs": [],
      "stateMutability": "payable",
      "type": "function"
    },
    {
      "inputs": [
        {
          "internalType": "address",
          "name": "newOwner",
          "type": "address"
        }
      ],
      "name": "transferOwnership",
      "outputs": [],
      "stateMutability": "nonpayable",
      "type": "function"
    }
  ],
  "bytecode": {
    "object": "0x600f805460ff19169055610100604052600460c09081526375726c2f60e01b60e052601090620000309082620003c6565b50604080518082019091526005815264173539b7b760d91b60208201526011906200005c9082620003c6565b503480156200006a57600080fd5b5060405162003ffe38038062003ffe8339810160408190526200008d91620004af565b6040518060400160405280600981526020016812185b185b185b999d60ba1b815250604051806040016040528060048152602001631213919560e21b8152508160039081620000dd9190620003c6565b506004620000ec8282620003c6565b50506001805550620000fe33620001ac565b6001600d556001600160a01b03808316608052811660a08190526040805163313ce56760e01b8152905163313ce567916004808201926020929091908290030181865afa15801562000154573d6000803e3d6000fd5b505050506040513d601f19601f820116820180604052508101906200017a9190620004e7565b6200018790600a62000628565b620001949060c762000639565b600e55620001a43360fa620001ca565b505062000653565b600a80546001600160a01b0319169055620001c781620002cf565b50565b6127106001600160601b03821611156200023e5760405162461bcd60e51b815260206004820152602a60248201527f455243323938313a20726f79616c7479206665652077696c6c206578636565646044820152692073616c65507269636560b01b60648201526084015b60405180910390fd5b6001600160a01b038216620002965760405162461bcd60e51b815260206004820152601960248201527f455243323938313a20696e76616c696420726563656976657200000000000000604482015260640162000235565b604080518082019091526001600160a01b039092168083526001600160601b039091166020909201829052600160a01b90910217600b55565b600980546001600160a01b038381166001600160a01b0319831681179093556040519116919082907f8be0079c531659141344cd1fd0a4f28419497f9722a3daafe3b4186f6b6457e090600090a35050565b634e487b7160e01b600052604160045260246000fd5b600181811c908216806200034c57607f821691505b6020821081036200036d57634e487b7160e01b600052602260045260246000fd5b50919050565b601f821115620003c157600081815260208120601f850160051c810160208610156200039c5750805b601f850160051c820191505b81811015620003bd57828155600101620003a8565b5050505b505050565b81516001600160401b03811115620003e257620003e262000321565b620003fa81620003f3845462000337565b8462000373565b602080601f831160018114620004325760008415620004195750858301515b600019600386901b1c1916600185901b178555620003bd565b600085815260208120601f198616915b82811015620004635788860151825594840194600190910190840162000442565b5085821015620004825787850151600019600388901b60f8161c191681555b5050505050600190811b01905550565b80516001600160a01b0381168114620004aa57600080fd5b919050565b60008060408385031215620004c357600080fd5b620004ce8362000492565b9150620004de6020840162000492565b90509250929050565b600060208284031215620004fa57600080fd5b815160ff811681146200050c57600080fd5b9392505050565b634e487b7160e01b600052601160045260246000fd5b600181815b808511156200056a5781600019048211156200054e576200054e62000513565b808516156200055c57918102915b93841c93908002906200052e565b509250929050565b600082620005835750600162000622565b81620005925750600062000622565b8160018114620005ab5760028114620005b657620005d6565b600191505062000622565b60ff841115620005ca57620005ca62000513565b50506001821b62000622565b5060208310610133831016604e8410600b8410161715620005fb575081810a62000622565b62000607838362000529565b80600019048211156200061e576200061e62000513565b0290505b92915050565b60006200050c60ff84168362000572565b808202811582820484141762000622576200062262000513565b60805160a051613954620006aa60003960008181610b090152611b830152600081816120330152818161217c015281816122d50152818161246b015281816125370152818161260301526126cf01526139546000f3fe60806040526004361061026a5760003560e01c8063715018a611610153578063b88d4fde116100cb578063e4fc6b6d1161007f578063eb91d37e11610064578063eb91d37e14610742578063f2fde38b14610757578063f7beb98a1461077757600080fd5b8063e4fc6b6d146106d7578063e985e9c5146106ec57600080fd5b8063c23dc68f116100b0578063c23dc68f1461065f578063c87b56dd1461068c578063e30c3978146106ac57600080fd5b8063b88d4fde14610613578063bf0b175e1461062657600080fd5b80638dec9f7a1161012257806395d89b411161010757806395d89b41146105be57806399a2557a146105d3578063a22cb465146105f357600080fd5b80638dec9f7a1461058f5780639190ad47146105a957600080fd5b8063715018a61461050d57806379ba5097146105225780638462151c146105375780638da5cb5b1461056457600080fd5b80632db11544116101e6578063484b973c116101b55780635bbb21771161019a5780635bbb2177146104a05780636352211e146104cd57806370a08231146104ed57600080fd5b8063484b973c1461046057806355f804b31461048057600080fd5b80632db11544146103fa57806342842e0e1461040d5780634408a04614610420578063453ab1411461044057600080fd5b8063147d959a1161023d5780631a16aacd116102225780631a16aacd1461038557806323b872dd1461039b5780632a55205a146103ae57600080fd5b8063147d959a1461032057806318160ddd1461034057600080fd5b806301ffc9a71461026f57806306fdde03146102a4578063081812fc146102c6578063095ea7b31461030b575b600080fd5b34801561027b57600080fd5b5061028f61028a366004612e06565b61078c565b60405190151581526020015b60405180910390f35b3480156102b057600080fd5b506102b9610918565b60405161029b9190612e91565b3480156102d257600080fd5b506102e66102e1366004612ea4565b6109aa565b60405173ffffffffffffffffffffffffffffffffffffffff909116815260200161029b565b61031e610319366004612ee6565b610a14565b005b34801561032c57600080fd5b5061031e61033b366004612ea4565b610aff565b34801561034c57600080fd5b50600254600154037fffffffffffffffffffffffffffffffffffffffffffffffffffffffffffffffff015b60405190815260200161029b565b34801561039157600080fd5b50610377600e5481565b61031e6103a9366004612f10565b610bb1565b3480156103ba57600080fd5b506103ce6103c9366004612f4c565b610e41565b6040805173ffffffffffffffffffffffffffffffffffffffff909316835260208301919091520161029b565b61031e610408366004612ea4565b610f38565b61031e61041b366004612f10565b611299565b34801561042c57600080fd5b5061031e61043b366004612f6e565b6112b9565b34801561044c57600080fd5b5061031e61045b366004612fe0565b6112ce565b34801561046c57600080fd5b5061031e61047b366004612ee6565b611325565b34801561048c57600080fd5b5061031e61049b366004612f6e565b611337565b3480156104ac57600080fd5b506104c06104bb366004613024565b61134c565b60405161029b9190613087565b3480156104d957600080fd5b506102e66104e8366004612ea4565b611436565b3480156104f957600080fd5b50610377610508366004613111565b611441565b34801561051957600080fd5b5061031e6114c3565b34801561052e57600080fd5b5061031e611527565b34801561054357600080fd5b50610557610552366004613111565b6115dc565b60405161029b919061312c565b34801561057057600080fd5b5060095473ffffffffffffffffffffffffffffffffffffffff166102e6565b34801561059b57600080fd5b50600f5461028f9060ff1681565b3480156105b557600080fd5b5061031e611707565b3480156105ca57600080fd5b506102b9611739565b3480156105df57600080fd5b506105576105ee366004613164565b611748565b3480156105ff57600080fd5b5061031e61060e3660046131a5565b611910565b61031e610621366004613200565b6119a7565b34801561063257600080fd5b50610646610641366004613111565b611a17565b60405167ffffffffffffffff909116815260200161029b565b34801561066b57600080fd5b5061067f61067a366004612ea4565b611a45565b60405161029b91906132fa565b34801561069857600080fd5b506102b96106a7366004612ea4565b611acd565b3480156106b857600080fd5b50600a5473ffffffffffffffffffffffffffffffffffffffff166102e6565b3480156106e357600080fd5b5061031e611b6c565b3480156106f857600080fd5b5061028f61070736600461334c565b73ffffffffffffffffffffffffffffffffffffffff918216600090815260086020908152604080832093909416825291909152205460ff1690565b34801561074e57600080fd5b50610377611b7c565b34801561076357600080fd5b5061031e610772366004613111565b611d34565b34801561078357600080fd5b5061031e611de4565b60007fffffffff0000000000000000000000000000000000000000000000000000000082167f8446a79e00000000000000000000000000000000000000000000000000000000148061081f57507fffffffff0000000000000000000000000000000000000000000000000000000082167fc21b8f2800000000000000000000000000000000000000000000000000000000145b8061086b57507fffffffff0000000000000000000000000000000000000000000000000000000082167f36372b0700000000000000000000000000000000000000000000000000000000145b806108b757507fffffffff0000000000000000000000000000000000000000000000000000000082167f2baae9fd00000000000000000000000000000000000000000000000000000000145b8061090357507fffffffff0000000000000000000000000000000000000000000000000000000082167f01ffc9a700000000000000000000000000000000000000000000000000000000145b80610912575061091282611e19565b92915050565b6060600380546109279061337f565b80601f01602080910402602001604051908101604052809291908181526020018280546109539061337f565b80156109a05780601f10610975576101008083540402835291602001916109a0565b820191906000526020600020905b81548152906001019060200180831161098357829003601f168201915b5050505050905090565b60006109b582611e6f565b6109eb576040517fcf4700e400000000000000000000000000000000000000000000000000000000815260040160405180910390fd5b5060009081526007602052604090205473ffffffffffffffffffffffffffffffffffffffff1690565b6000610a1f82611436565b90503373ffffffffffffffffffffffffffffffffffffffff821614610a7e57610a488133610707565b610a7e576040517fcfb3b94200000000000000000000000000000000000000000000000000000000815260040160405180910390fd5b60008281526007602052604080822080547fffffffffffffffffffffffff00000000000000000000000000000000000000001673ffffffffffffffffffffffffffffffffffffffff87811691821790925591518593918516917f8c5be1e5ebec7d5bd14f71427d1e84f3dd0314c0f7b2291e5b200ac8c7c3b92591a4505050565b610b07611ebd565b7f000000000000000000000000000000000000000000000000000000000000000073ffffffffffffffffffffffffffffffffffffffff1663313ce5676040518163ffffffff1660e01b8152600401602060405180830381865afa158015610b72573d6000803e3d6000fd5b505050506040513d601f19601f82011682018060405250810190610b9691906133d2565b610ba190600a613544565b610bab9082613553565b600e5550565b6000610bbc82611f3e565b90508373ffffffffffffffffffffffffffffffffffffffff168173ffffffffffffffffffffffffffffffffffffffff1614610c23576040517fa114810000000000000000000000000000000000000000000000000000000000815260040160405180910390fd5b600082815260076020526040902080543380821473ffffffffffffffffffffffffffffffffffffffff881690911417610c9657610c608633610707565b610c96576040517f59c896be00000000000000000000000000000000000000000000000000000000815260040160405180910390fd5b73ffffffffffffffffffffffffffffffffffffffff8516610ce3576040517fea553b3400000000000000000000000000000000000000000000000000000000815260040160405180910390fd5b8015610cee57600082555b73ffffffffffffffffffffffffffffffffffffffff86811660009081526006602052604080822080547fffffffffffffffffffffffffffffffffffffffffffffffffffffffffffffffff019055918716808252919020805460010190554260a01b177c0200000000000000000000000000000000000000000000000000000000176000858152600560205260408120919091557c020000000000000000000000000000000000000000000000000000000084169003610ddd57600184016000818152600560205260408120549003610ddb576001548114610ddb5760008181526005602052604090208490555b505b838573ffffffffffffffffffffffffffffffffffffffff168773ffffffffffffffffffffffffffffffffffffffff167fddf252ad1be2c89b69c2b068fc378daa952ba7f163c4a11628f55a4df523b3ef60405160405180910390a45b505050505050565b6000828152600c6020908152604080832081518083019092525473ffffffffffffffffffffffffffffffffffffffff8116808352740100000000000000000000000000000000000000009091046bffffffffffffffffffffffff16928201929092528291610efc575060408051808201909152600b5473ffffffffffffffffffffffffffffffffffffffff811682527401000000000000000000000000000000000000000090046bffffffffffffffffffffffff1660208201525b602081015160009061271090610f20906bffffffffffffffffffffffff1687613553565b610f2a919061356a565b915196919550909350505050565b333214610fa6576040517f08c379a000000000000000000000000000000000000000000000000000000000815260206004820152601a60248201527f7075626c69633a20626f74206973206e6f7420616c6c6f77656400000000000060448201526064015b60405180910390fd5b600254600154610bb99190037fffffffffffffffffffffffffffffffffffffffffffffffffffffffffffffffff011061103b576040517f08c379a000000000000000000000000000000000000000000000000000000000815260206004820152601760248201527f7075626c69633a20737570706c792065786365656465640000000000000000006044820152606401610f9d565b600681106110cb576040517f08c379a000000000000000000000000000000000000000000000000000000000815260206004820152602160248201527f7075626c69633a2063616e6e6f74206d696e746564206d6f7265207468616e2060448201527f35000000000000000000000000000000000000000000000000000000000000006064820152608401610f9d565b600f5460ff16611137576040517f08c379a000000000000000000000000000000000000000000000000000000000815260206004820152601e60248201527f7075626c69633a206d696e74696e67206973206e6f7420656e61626c656400006044820152606401610f9d565b6002546001546101b89190037fffffffffffffffffffffffffffffffffffffffffffffffffffffffffffffffff01101561120b576002546001546101b9918391037fffffffffffffffffffffffffffffffffffffffffffffffffffffffffffffffff016111a491906135a5565b1061120b576040517f08c379a000000000000000000000000000000000000000000000000000000000815260206004820152601e60248201527f4d696e7420457863656564732050726573616c6520416c6c6f77616e636500006044820152606401610f9d565b6000611215611b7c565b90506112296112248383613553565b611ffd565b611233338361228a565b61123b6122a4565b600254600154037fffffffffffffffffffffffffffffffffffffffffffffffffffffffffffffffff016101b80361129557600f80547fffffffffffffffffffffffffffffffffffffffffffffffffffffffffffffff001690555b5050565b6112b4838383604051806020016040528060008152506119a7565b505050565b6112c1611ebd565b60116112b48284836135fe565b6112d6611ebd565b73ffffffffffffffffffffffffffffffffffffffff82166000908152600660205260409020805460c083901b77ffffffffffffffffffffffffffffffffffffffffffffffff9091161790555050565b61132d611ebd565b611295828261228a565b61133f611ebd565b60106112b48284836135fe565b60608160008167ffffffffffffffff81111561136a5761136a6131d1565b6040519080825280602002602001820160405280156113da57816020015b6040805160808101825260008082526020808301829052928201819052606082015282527fffffffffffffffffffffffffffffffffffffffffffffffffffffffffffffffff9092019101816113885790505b50905060005b82811461142d576114088686838181106113fc576113fc613718565b90506020020135611a45565b82828151811061141a5761141a613718565b60209081029190910101526001016113e0565b50949350505050565b600061091282611f3e565b600073ffffffffffffffffffffffffffffffffffffffff8216611490576040517f8f4eb60400000000000000000000000000000000000000000000000000000000815260040160405180910390fd5b5073ffffffffffffffffffffffffffffffffffffffff1660009081526006602052604090205467ffffffffffffffff1690565b6040517f08c379a000000000000000000000000000000000000000000000000000000000815260206004820152600f60248201527f63616e6e6f742072656e6f756e636500000000000000000000000000000000006044820152606401610f9d565b565b600a54339073ffffffffffffffffffffffffffffffffffffffff1681146115d0576040517f08c379a000000000000000000000000000000000000000000000000000000000815260206004820152602960248201527f4f776e61626c6532537465703a2063616c6c6572206973206e6f74207468652060448201527f6e6577206f776e657200000000000000000000000000000000000000000000006064820152608401610f9d565b6115d981612751565b50565b606060008060006115ec85611441565b905060008167ffffffffffffffff811115611609576116096131d1565b604051908082528060200260200182016040528015611632578160200160208202803683370190505b5060408051608081018252600080825260208201819052918101829052606081019190915290915060015b8386146116fb5761166d81612782565b915081604001516116f357815173ffffffffffffffffffffffffffffffffffffffff161561169a57815194505b8773ffffffffffffffffffffffffffffffffffffffff168573ffffffffffffffffffffffffffffffffffffffff16036116f357808387806001019850815181106116e6576116e6613718565b6020026020010181815250505b60010161165d565b50909695505050505050565b61170f611ebd565b600f80547fffffffffffffffffffffffffffffffffffffffffffffffffffffffffffffff00169055565b6060600480546109279061337f565b6060818310611783576040517f32c1995a00000000000000000000000000000000000000000000000000000000815260040160405180910390fd5b60008061178f60015490565b9050600185101561179f57600194505b808411156117ab578093505b60006117b687611441565b9050848610156117d557858503818110156117cf578091505b506117d9565b5060005b60008167ffffffffffffffff8111156117f4576117f46131d1565b60405190808252806020026020018201604052801561181d578160200160208202803683370190505b5090508160000361183357935061190992505050565b600061183e88611a45565b90506000816040015161184f575080515b885b8881141580156118615750848714155b156118fd5761186f81612782565b925082604001516118f557825173ffffffffffffffffffffffffffffffffffffffff161561189c57825191505b8a73ffffffffffffffffffffffffffffffffffffffff168273ffffffffffffffffffffffffffffffffffffffff16036118f557808488806001019950815181106118e8576118e8613718565b6020026020010181815250505b600101611851565b50505092835250909150505b9392505050565b33600081815260086020908152604080832073ffffffffffffffffffffffffffffffffffffffff87168085529083529281902080547fffffffffffffffffffffffffffffffffffffffffffffffffffffffffffffff001686151590811790915590519081529192917f17307eab39ab6107e8899845ad3d59bd9653f200f220920489ca2b5937696c31910160405180910390a35050565b6119b2848484610bb1565b73ffffffffffffffffffffffffffffffffffffffff83163b15611a11576119db84848484612827565b611a11576040517fd1a57ed600000000000000000000000000000000000000000000000000000000815260040160405180910390fd5b50505050565b73ffffffffffffffffffffffffffffffffffffffff811660009081526006602052604081205460c01c610912565b6040805160808101825260008082526020820181905291810182905260608101919091526040805160808101825260008082526020820181905291810182905260608101919091526001831080611a9e57506001548310155b15611aa95792915050565b611ab283612782565b9050806040015115611ac45792915050565b611909836129a0565b6060611ad882611e6f565b611b0e576040517fa14c4b5000000000000000000000000000000000000000000000000000000000815260040160405180910390fd5b6000611b18612a3e565b90508051600003611b385760405180602001604052806000815250611909565b80611b4284612a4d565b6011604051602001611b5693929190613747565b6040516020818303038152906040529392505050565b611b74611ebd565b6115256122a4565b60008060007f000000000000000000000000000000000000000000000000000000000000000073ffffffffffffffffffffffffffffffffffffffff1663feaf968c6040518163ffffffff1660e01b815260040160a060405180830381865afa158015611bec573d6000803e3d6000fd5b505050506040513d601f19601f82011682018060405250810190611c10919061381f565b5093505092505060008213611ca7576040517f08c379a000000000000000000000000000000000000000000000000000000000815260206004820152602360248201527f466565642070726963652073686f756c6420626520677265617465722074686160448201527f6e203000000000000000000000000000000000000000000000000000000000006064820152608401610f9d565b611cb4620151804261386f565b8111611d1c576040517f08c379a000000000000000000000000000000000000000000000000000000000815260206004820152600b60248201527f5374616c652050726963650000000000000000000000000000000000000000006044820152606401610f9d565b600082600e54611d2c919061356a565b949350505050565b611d3c611ebd565b600a805473ffffffffffffffffffffffffffffffffffffffff83167fffffffffffffffffffffffff00000000000000000000000000000000000000009091168117909155611d9f60095473ffffffffffffffffffffffffffffffffffffffff1690565b73ffffffffffffffffffffffffffffffffffffffff167f38d16b8cac22d99fc7c124b9cd0de2d3fa1faef420bfe791d8c362d765e2270060405160405180910390a350565b611dec611ebd565b600f80547fffffffffffffffffffffffffffffffffffffffffffffffffffffffffffffff00166001179055565b60007fffffffff0000000000000000000000000000000000000000000000000000000082167f2a55205a000000000000000000000000000000000000000000000000000000001480610912575061091282612aaf565b600081600111158015611e83575060015482105b80156109125750506000908152600560205260409020547c0100000000000000000000000000000000000000000000000000000000161590565b60095473ffffffffffffffffffffffffffffffffffffffff163314611525576040517f08c379a000000000000000000000000000000000000000000000000000000000815260206004820181905260248201527f4f776e61626c653a2063616c6c6572206973206e6f7420746865206f776e65726044820152606401610f9d565b60008180600111611fcb57600154811015611fcb57600081815260056020526040812054907c010000000000000000000000000000000000000000000000000000000082169003611fc9575b8060000361190957507fffffffffffffffffffffffffffffffffffffffffffffffffffffffffffffffff01600081815260056020526040902054611f8a565b505b6040517fdf2d9b4200000000000000000000000000000000000000000000000000000000815260040160405180910390fd5b6040517fdd62ed3e00000000000000000000000000000000000000000000000000000000815233600482015230602482015281907f000000000000000000000000000000000000000000000000000000000000000073ffffffffffffffffffffffffffffffffffffffff169063dd62ed3e90604401602060405180830381865afa15801561208f573d6000803e3d6000fd5b505050506040513d601f19601f820116820180604052508101906120b39190613882565b1015612141576040517f08c379a000000000000000000000000000000000000000000000000000000000815260206004820152602260248201527f7472616e73666572496e3a20696e73756666696369656e7420616c6c6f77616e60448201527f63650000000000000000000000000000000000000000000000000000000000006064820152608401610f9d565b6040517f23b872dd000000000000000000000000000000000000000000000000000000008152336004820152306024820152604481018290527f000000000000000000000000000000000000000000000000000000000000000073ffffffffffffffffffffffffffffffffffffffff16906323b872dd906064016020604051808303816000875af11580156121da573d6000803e3d6000fd5b505050506040513d601f19601f820116820180604052508101906121fe919061389b565b6115d9576040517f08c379a000000000000000000000000000000000000000000000000000000000815260206004820152602360248201527f7472616e7366657246726f6d3a2063616e6e6f74207472616e7366657220746f60448201527f6b656e00000000000000000000000000000000000000000000000000000000006064820152608401610f9d565b611295828260405180602001604052806000815250612b90565b6040517f70a082310000000000000000000000000000000000000000000000000000000081523060048201526000907f000000000000000000000000000000000000000000000000000000000000000073ffffffffffffffffffffffffffffffffffffffff16906370a0823190602401602060405180830381865afa158015612331573d6000803e3d6000fd5b505050506040513d601f19601f820116820180604052508101906123559190613882565b9050600081116123c1576040517f08c379a000000000000000000000000000000000000000000000000000000000815260206004820152601560248201527f4e6f205553444320746f206469737472696275746500000000000000000000006044820152606401610f9d565b600060056123d0836003613553565b6123da919061356a565b905060006123e9600a8461356a565b9050600060146123fa856003613553565b612404919061356a565b905060006014612415866003613553565b61241f919061356a565b6040517fa9059cbb00000000000000000000000000000000000000000000000000000000815273b85885977d5daf4d6768afc670c14a5fc209b8e96004820152602481018690529091507f000000000000000000000000000000000000000000000000000000000000000073ffffffffffffffffffffffffffffffffffffffff169063a9059cbb906044016020604051808303816000875af11580156124c9573d6000803e3d6000fd5b505050506040513d601f19601f820116820180604052508101906124ed919061389b565b506040517fa9059cbb000000000000000000000000000000000000000000000000000000008152736a07f68a60eb5890947a5af40f3ea928447d55276004820152602481018490527f000000000000000000000000000000000000000000000000000000000000000073ffffffffffffffffffffffffffffffffffffffff169063a9059cbb906044016020604051808303816000875af1158015612595573d6000803e3d6000fd5b505050506040513d601f19601f820116820180604052508101906125b9919061389b565b506040517fa9059cbb0000000000000000000000000000000000000000000000000000000081527342ef5475eb5951b92ce28dccecb720654623fcb26004820152602481018390527f000000000000000000000000000000000000000000000000000000000000000073ffffffffffffffffffffffffffffffffffffffff169063a9059cbb906044016020604051808303816000875af1158015612661573d6000803e3d6000fd5b505050506040513d601f19601f82011682018060405250810190612685919061389b565b506040517fa9059cbb00000000000000000000000000000000000000000000000000000000815273742a1b678a34f9e79ff4468968ffed99676ad3dc6004820152602481018290527f000000000000000000000000000000000000000000000000000000000000000073ffffffffffffffffffffffffffffffffffffffff169063a9059cbb906044016020604051808303816000875af115801561272d573d6000803e3d6000fd5b505050506040513d601f19601f82011682018060405250810190610e39919061389b565b600a80547fffffffffffffffffffffffff00000000000000000000000000000000000000001690556115d981612c23565b604080516080810182526000808252602082018190529181018290526060810191909152600082815260056020526040902054610912906040805160808101825273ffffffffffffffffffffffffffffffffffffffff8316815260a083901c67ffffffffffffffff1660208201527c0100000000000000000000000000000000000000000000000000000000831615159181019190915260e89190911c606082015290565b6040517f150b7a0200000000000000000000000000000000000000000000000000000000815260009073ffffffffffffffffffffffffffffffffffffffff85169063150b7a02906128829033908990889088906004016138b8565b6020604051808303816000875af19250505080156128db575060408051601f3d9081017fffffffffffffffffffffffffffffffffffffffffffffffffffffffffffffffe01682019092526128d891810190613901565b60015b612952573d808015612909576040519150601f19603f3d011682016040523d82523d6000602084013e61290e565b606091505b50805160000361294a576040517fd1a57ed600000000000000000000000000000000000000000000000000000000815260040160405180910390fd5b805181602001fd5b7fffffffff00000000000000000000000000000000000000000000000000000000167f150b7a0200000000000000000000000000000000000000000000000000000000149050949350505050565b6040805160808101825260008082526020820181905291810182905260608101919091526109126129d083611f3e565b6040805160808101825273ffffffffffffffffffffffffffffffffffffffff8316815260a083901c67ffffffffffffffff1660208201527c0100000000000000000000000000000000000000000000000000000000831615159181019190915260e89190911c606082015290565b6060601080546109279061337f565b606060a06040510180604052602081039150506000815280825b600183039250600a81066030018353600a900480612a6757508190037fffffffffffffffffffffffffffffffffffffffffffffffffffffffffffffffe0909101908152919050565b60007f01ffc9a7000000000000000000000000000000000000000000000000000000007fffffffff0000000000000000000000000000000000000000000000000000000083161480612b4257507f80ac58cd000000000000000000000000000000000000000000000000000000007fffffffff000000000000000000000000000000000000000000000000000000008316145b806109125750507fffffffff00000000000000000000000000000000000000000000000000000000167f5b5e139f000000000000000000000000000000000000000000000000000000001490565b612b9a8383612c9a565b73ffffffffffffffffffffffffffffffffffffffff83163b156112b4576001548281035b612bd16000868380600101945086612827565b612c07576040517fd1a57ed600000000000000000000000000000000000000000000000000000000815260040160405180910390fd5b818110612bbe578160015414612c1c57600080fd5b5050505050565b6009805473ffffffffffffffffffffffffffffffffffffffff8381167fffffffffffffffffffffffff0000000000000000000000000000000000000000831681179093556040519116919082907f8be0079c531659141344cd1fd0a4f28419497f9722a3daafe3b4186f6b6457e090600090a35050565b6001546000829003612cd8576040517fb562e8dd00000000000000000000000000000000000000000000000000000000815260040160405180910390fd5b73ffffffffffffffffffffffffffffffffffffffff831660008181526006602090815260408083208054680100000000000000018802019055848352600590915281206001851460e11b4260a01b178317905582840190839083907fddf252ad1be2c89b69c2b068fc378daa952ba7f163c4a11628f55a4df523b3ef8180a4600183015b818114612d9457808360007fddf252ad1be2c89b69c2b068fc378daa952ba7f163c4a11628f55a4df523b3ef600080a4600101612d5c565b5081600003612dcf576040517f2e07630000000000000000000000000000000000000000000000000000000000815260040160405180910390fd5b60015550505050565b7fffffffff00000000000000000000000000000000000000000000000000000000811681146115d957600080fd5b600060208284031215612e1857600080fd5b813561190981612dd8565b60005b83811015612e3e578181015183820152602001612e26565b50506000910152565b60008151808452612e5f816020860160208601612e23565b601f017fffffffffffffffffffffffffffffffffffffffffffffffffffffffffffffffe0169290920160200192915050565b6020815260006119096020830184612e47565b600060208284031215612eb657600080fd5b5035919050565b803573ffffffffffffffffffffffffffffffffffffffff81168114612ee157600080fd5b919050565b60008060408385031215612ef957600080fd5b612f0283612ebd565b946020939093013593505050565b600080600060608486031215612f2557600080fd5b612f2e84612ebd565b9250612f3c60208501612ebd565b9150604084013590509250925092565b60008060408385031215612f5f57600080fd5b50508035926020909101359150565b60008060208385031215612f8157600080fd5b823567ffffffffffffffff80821115612f9957600080fd5b818501915085601f830112612fad57600080fd5b813581811115612fbc57600080fd5b866020828501011115612fce57600080fd5b60209290920196919550909350505050565b60008060408385031215612ff357600080fd5b612ffc83612ebd565b9150602083013567ffffffffffffffff8116811461301957600080fd5b809150509250929050565b6000806020838503121561303757600080fd5b823567ffffffffffffffff8082111561304f57600080fd5b818501915085601f83011261306357600080fd5b81358181111561307257600080fd5b8660208260051b8501011115612fce57600080fd5b6020808252825182820181905260009190848201906040850190845b818110156116fb576130fe83855173ffffffffffffffffffffffffffffffffffffffff815116825267ffffffffffffffff602082015116602083015260408101511515604083015262ffffff60608201511660608301525050565b92840192608092909201916001016130a3565b60006020828403121561312357600080fd5b61190982612ebd565b6020808252825182820181905260009190848201906040850190845b818110156116fb57835183529284019291840191600101613148565b60008060006060848603121561317957600080fd5b61318284612ebd565b95602085013595506040909401359392505050565b80151581146115d957600080fd5b600080604083850312156131b857600080fd5b6131c183612ebd565b9150602083013561301981613197565b7f4e487b7100000000000000000000000000000000000000000000000000000000600052604160045260246000fd5b6000806000806080858703121561321657600080fd5b61321f85612ebd565b935061322d60208601612ebd565b925060408501359150606085013567ffffffffffffffff8082111561325157600080fd5b818701915087601f83011261326557600080fd5b813581811115613277576132776131d1565b604051601f82017fffffffffffffffffffffffffffffffffffffffffffffffffffffffffffffffe0908116603f011681019083821181831017156132bd576132bd6131d1565b816040528281528a60208487010111156132d657600080fd5b82602086016020830137600060208483010152809550505050505092959194509250565b815173ffffffffffffffffffffffffffffffffffffffff16815260208083015167ffffffffffffffff169082015260408083015115159082015260608083015162ffffff169082015260808101610912565b6000806040838503121561335f57600080fd5b61336883612ebd565b915061337660208401612ebd565b90509250929050565b600181811c9082168061339357607f821691505b6020821081036133cc577f4e487b7100000000000000000000000000000000000000000000000000000000600052602260045260246000fd5b50919050565b6000602082840312156133e457600080fd5b815160ff8116811461190957600080fd5b7f4e487b7100000000000000000000000000000000000000000000000000000000600052601160045260246000fd5b600181815b8085111561347d57817fffffffffffffffffffffffffffffffffffffffffffffffffffffffffffffffff04821115613463576134636133f5565b8085161561347057918102915b93841c9390800290613429565b509250929050565b60008261349457506001610912565b816134a157506000610912565b81600181146134b757600281146134c1576134dd565b6001915050610912565b60ff8411156134d2576134d26133f5565b50506001821b610912565b5060208310610133831016604e8410600b8410161715613500575081810a610912565b61350a8383613424565b807fffffffffffffffffffffffffffffffffffffffffffffffffffffffffffffffff0482111561353c5761353c6133f5565b029392505050565b600061190960ff841683613485565b8082028115828204841417610912576109126133f5565b6000826135a0577f4e487b7100000000000000000000000000000000000000000000000000000000600052601260045260246000fd5b500490565b80820180821115610912576109126133f5565b601f8211156112b457600081815260208120601f850160051c810160208610156135df5750805b601f850160051c820191505b81811015610e39578281556001016135eb565b67ffffffffffffffff831115613616576136166131d1565b61362a83613624835461337f565b836135b8565b6000601f84116001811461367c57600085156136465750838201355b7fffffffffffffffffffffffffffffffffffffffffffffffffffffffffffffffff600387901b1c1916600186901b178355612c1c565b6000838152602090207fffffffffffffffffffffffffffffffffffffffffffffffffffffffffffffffe0861690835b828110156136cb57868501358255602094850194600190920191016136ab565b5086821015613706577fffffffffffffffffffffffffffffffffffffffffffffffffffffffffffffffff60f88860031b161c19848701351681555b505060018560011b0183555050505050565b7f4e487b7100000000000000000000000000000000000000000000000000000000600052603260045260246000fd5b60008451602061375a8285838a01612e23565b85519184019161376d8184848a01612e23565b855492019160009061377e8161337f565b6001828116801561379657600181146137c9576137f5565b7fffffffffffffffffffffffffffffffffffffffffffffffffffffffffffffff00841687528215158302870194506137f5565b896000528560002060005b848110156137ed578154898201529083019087016137d4565b505082870194505b50929a9950505050505050505050565b805169ffffffffffffffffffff81168114612ee157600080fd5b600080600080600060a0868803121561383757600080fd5b61384086613805565b945060208601519350604086015192506060860151915061386360808701613805565b90509295509295909350565b81810381811115610912576109126133f5565b60006020828403121561389457600080fd5b5051919050565b6000602082840312156138ad57600080fd5b815161190981613197565b600073ffffffffffffffffffffffffffffffffffffffff8087168352808616602084015250836040830152608060608301526138f76080830184612e47565b9695505050505050565b60006020828403121561391357600080fd5b815161190981612dd856fea2646970667358221220a405fc703d6bf2312e10b5898fded6e8c3b9af44307dd63f46a9cacde2b9d24264736f6c63430008130033",
    "linkReferences": {}
  },
  "methodIdentifiers": {
    "_usdPrice()": "1a16aacd",
    "acceptOwnership()": "79ba5097",
    "approve(address,uint256)": "095ea7b3",
    "balanceOf(address)": "70a08231",
    "disablePublicMinting()": "9190ad47",
    "distribute()": "e4fc6b6d",
    "enablePublicMinting()": "f7beb98a",
    "explicitOwnershipOf(uint256)": "c23dc68f",
    "explicitOwnershipsOf(uint256[])": "5bbb2177",
    "getApproved(uint256)": "081812fc",
    "getAux(address)": "bf0b175e",
    "getCurrentPrice()": "eb91d37e",
    "isApprovedForAll(address,address)": "e985e9c5",
    "name()": "06fdde03",
    "owner()": "8da5cb5b",
    "ownerMint(address,uint256)": "484b973c",
    "ownerOf(uint256)": "6352211e",
    "pendingOwner()": "e30c3978",
    "publicMint(uint256)": "2db11544",
    "publicMintingEnabled()": "8dec9f7a",
    "renounceOwnership()": "715018a6",
    "royaltyInfo(uint256,uint256)": "2a55205a",
    "safeTransferFrom(address,address,uint256)": "42842e0e",
    "safeTransferFrom(address,address,uint256,bytes)": "b88d4fde",
    "setApprovalForAll(address,bool)": "a22cb465",
    "setAux(address,uint64)": "453ab141",
    "setBaseURI(string)": "55f804b3",
    "setURIExtention(string)": "4408a046",
    "setUSDPrice(uint256)": "147d959a",
    "supportsInterface(bytes4)": "01ffc9a7",
    "symbol()": "95d89b41",
    "tokenURI(uint256)": "c87b56dd",
    "tokensOfOwner(address)": "8462151c",
    "tokensOfOwnerIn(address,uint256,uint256)": "99a2557a",
    "totalSupply()": "18160ddd",
    "transferFrom(address,address,uint256)": "23b872dd",
    "transferOwnership(address)": "f2fde38b"
  },
  "id": 40
}