{
  "abi": [
    {
      "inputs": [
        {
          "internalType": "address",
          "name": "_usdc",
          "type": "address"
        },
        {
          "internalType": "address",
          "name": "_feed",
          "type": "address"
        }
      ],
      "stateMutability": "nonpayable",
      "type": "constructor"
    },
    {
      "inputs": [],
      "name": "ApprovalCallerNotOwnerNorApproved",
      "type": "error"
    },
    {
      "inputs": [],
      "name": "ApprovalQueryForNonexistentToken",
      "type": "error"
    },
    {
      "inputs": [],
      "name": "BalanceQueryForZeroAddress",
      "type": "error"
    },
    {
      "inputs": [],
      "name": "InvalidQueryRange",
      "type": "error"
    },
    {
      "inputs": [],
      "name": "MintERC2309QuantityExceedsLimit",
      "type": "error"
    },
    {
      "inputs": [],
      "name": "MintToZeroAddress",
      "type": "error"
    },
    {
      "inputs": [],
      "name": "MintZeroQuantity",
      "type": "error"
    },
    {
      "inputs": [],
      "name": "OwnerQueryForNonexistentToken",
      "type": "error"
    },
    {
      "inputs": [],
      "name": "OwnershipNotInitializedForExtraData",
      "type": "error"
    },
    {
      "inputs": [],
      "name": "TransferCallerNotOwnerNorApproved",
      "type": "error"
    },
    {
      "inputs": [],
      "name": "TransferFromIncorrectOwner",
      "type": "error"
    },
    {
      "inputs": [],
      "name": "TransferToNonERC721ReceiverImplementer",
      "type": "error"
    },
    {
      "inputs": [],
      "name": "TransferToZeroAddress",
      "type": "error"
    },
    {
      "inputs": [],
      "name": "URIQueryForNonexistentToken",
      "type": "error"
    },
    {
      "anonymous": false,
      "inputs": [
        {
          "indexed": true,
          "internalType": "address",
          "name": "owner",
          "type": "address"
        },
        {
          "indexed": true,
          "internalType": "address",
          "name": "approved",
          "type": "address"
        },
        {
          "indexed": true,
          "internalType": "uint256",
          "name": "tokenId",
          "type": "uint256"
        }
      ],
      "name": "Approval",
      "type": "event"
    },
    {
      "anonymous": false,
      "inputs": [
        {
          "indexed": true,
          "internalType": "address",
          "name": "owner",
          "type": "address"
        },
        {
          "indexed": true,
          "internalType": "address",
          "name": "operator",
          "type": "address"
        },
        {
          "indexed": false,
          "internalType": "bool",
          "name": "approved",
          "type": "bool"
        }
      ],
      "name": "ApprovalForAll",
      "type": "event"
    },
    {
      "anonymous": false,
      "inputs": [
        {
          "indexed": true,
          "internalType": "uint256",
          "name": "fromTokenId",
          "type": "uint256"
        },
        {
          "indexed": false,
          "internalType": "uint256",
          "name": "toTokenId",
          "type": "uint256"
        },
        {
          "indexed": true,
          "internalType": "address",
          "name": "from",
          "type": "address"
        },
        {
          "indexed": true,
          "internalType": "address",
          "name": "to",
          "type": "address"
        }
      ],
      "name": "ConsecutiveTransfer",
      "type": "event"
    },
    {
      "anonymous": false,
      "inputs": [
        {
          "indexed": true,
          "internalType": "address",
          "name": "previousOwner",
          "type": "address"
        },
        {
          "indexed": true,
          "internalType": "address",
          "name": "newOwner",
          "type": "address"
        }
      ],
      "name": "OwnershipTransferStarted",
      "type": "event"
    },
    {
      "anonymous": false,
      "inputs": [
        {
          "indexed": true,
          "internalType": "address",
          "name": "previousOwner",
          "type": "address"
        },
        {
          "indexed": true,
          "internalType": "address",
          "name": "newOwner",
          "type": "address"
        }
      ],
      "name": "OwnershipTransferred",
      "type": "event"
    },
    {
      "anonymous": false,
      "inputs": [
        {
          "indexed": true,
          "internalType": "address",
          "name": "from",
          "type": "address"
        },
        {
          "indexed": true,
          "internalType": "address",
          "name": "to",
          "type": "address"
        },
        {
          "indexed": true,
          "internalType": "uint256",
          "name": "tokenId",
          "type": "uint256"
        }
      ],
      "name": "Transfer",
      "type": "event"
    },
    {
      "inputs": [],
      "name": "_usdPrice",
      "outputs": [
        {
          "internalType": "uint256",
          "name": "",
          "type": "uint256"
        }
      ],
      "stateMutability": "view",
      "type": "function"
    },
    {
      "inputs": [],
      "name": "acceptOwnership",
      "outputs": [],
      "stateMutability": "nonpayable",
      "type": "function"
    },
    {
      "inputs": [
        {
          "internalType": "address",
          "name": "to",
          "type": "address"
        },
        {
          "internalType": "uint256",
          "name": "tokenId",
          "type": "uint256"
        }
      ],
      "name": "approve",
      "outputs": [],
      "stateMutability": "payable",
      "type": "function"
    },
    {
      "inputs": [
        {
          "internalType": "address",
          "name": "owner",
          "type": "address"
        }
      ],
      "name": "balanceOf",
      "outputs": [
        {
          "internalType": "uint256",
          "name": "",
          "type": "uint256"
        }
      ],
      "stateMutability": "view",
      "type": "function"
    },
    {
      "inputs": [],
      "name": "disablePublicMinting",
      "outputs": [],
      "stateMutability": "nonpayable",
      "type": "function"
    },
    {
      "inputs": [],
      "name": "distribute",
      "outputs": [],
      "stateMutability": "nonpayable",
      "type": "function"
    },
    {
      "inputs": [],
      "name": "enablePublicMinting",
      "outputs": [],
      "stateMutability": "nonpayable",
      "type": "function"
    },
    {
      "inputs": [
        {
          "internalType": "uint256",
          "name": "tokenId",
          "type": "uint256"
        }
      ],
      "name": "explicitOwnershipOf",
      "outputs": [
        {
          "components": [
            {
              "internalType": "address",
              "name": "addr",
              "type": "address"
            },
            {
              "internalType": "uint64",
              "name": "startTimestamp",
              "type": "uint64"
            },
            {
              "internalType": "bool",
              "name": "burned",
              "type": "bool"
            },
            {
              "internalType": "uint24",
              "name": "extraData",
              "type": "uint24"
            }
          ],
          "internalType": "struct IERC721A.TokenOwnership",
          "name": "",
          "type": "tuple"
        }
      ],
      "stateMutability": "view",
      "type": "function"
    },
    {
      "inputs": [
        {
          "internalType": "uint256[]",
          "name": "tokenIds",
          "type": "uint256[]"
        }
      ],
      "name": "explicitOwnershipsOf",
      "outputs": [
        {
          "components": [
            {
              "internalType": "address",
              "name": "addr",
              "type": "address"
            },
            {
              "internalType": "uint64",
              "name": "startTimestamp",
              "type": "uint64"
            },
            {
              "internalType": "bool",
              "name": "burned",
              "type": "bool"
            },
            {
              "internalType": "uint24",
              "name": "extraData",
              "type": "uint24"
            }
          ],
          "internalType": "struct IERC721A.TokenOwnership[]",
          "name": "",
          "type": "tuple[]"
        }
      ],
      "stateMutability": "view",
      "type": "function"
    },
    {
      "inputs": [
        {
          "internalType": "uint256",
          "name": "tokenId",
          "type": "uint256"
        }
      ],
      "name": "getApproved",
      "outputs": [
        {
          "internalType": "address",
          "name": "",
          "type": "address"
        }
      ],
      "stateMutability": "view",
      "type": "function"
    },
    {
      "inputs": [
        {
          "internalType": "address",
          "name": "owner",
          "type": "address"
        }
      ],
      "name": "getAux",
      "outputs": [
        {
          "internalType": "uint64",
          "name": "",
          "type": "uint64"
        }
      ],
      "stateMutability": "view",
      "type": "function"
    },
    {
      "inputs": [],
      "name": "getCurrentPrice",
      "outputs": [
        {
          "internalType": "uint256",
          "name": "",
          "type": "uint256"
        }
      ],
      "stateMutability": "view",
      "type": "function"
    },
    {
      "inputs": [
        {
          "internalType": "address",
          "name": "owner",
          "type": "address"
        },
        {
          "internalType": "address",
          "name": "operator",
          "type": "address"
        }
      ],
      "name": "isApprovedForAll",
      "outputs": [
        {
          "internalType": "bool",
          "name": "",
          "type": "bool"
        }
      ],
      "stateMutability": "view",
      "type": "function"
    },
    {
      "inputs": [],
      "name": "name",
      "outputs": [
        {
          "internalType": "string",
          "name": "",
          "type": "string"
        }
      ],
      "stateMutability": "view",
      "type": "function"
    },
    {
      "inputs": [],
      "name": "owner",
      "outputs": [
        {
          "internalType": "address",
          "name": "",
          "type": "address"
        }
      ],
      "stateMutability": "view",
      "type": "function"
    },
    {
      "inputs": [
        {
          "internalType": "address",
          "name": "to",
          "type": "address"
        },
        {
          "internalType": "uint256",
          "name": "quantity",
          "type": "uint256"
        }
      ],
      "name": "ownerMint",
      "outputs": [],
      "stateMutability": "nonpayable",
      "type": "function"
    },
    {
      "inputs": [
        {
          "internalType": "uint256",
          "name": "tokenId",
          "type": "uint256"
        }
      ],
      "name": "ownerOf",
      "outputs": [
        {
          "internalType": "address",
          "name": "",
          "type": "address"
        }
      ],
      "stateMutability": "view",
      "type": "function"
    },
    {
      "inputs": [],
      "name": "pendingOwner",
      "outputs": [
        {
          "internalType": "address",
          "name": "",
          "type": "address"
        }
      ],
      "stateMutability": "view",
      "type": "function"
    },
    {
      "inputs": [
        {
          "internalType": "uint256",
          "name": "_amount",
          "type": "uint256"
        },
        {
          "internalType": "bytes32[]",
          "name": "_merkleProof",
          "type": "bytes32[]"
        }
      ],
      "name": "presale",
      "outputs": [],
      "stateMutability": "payable",
      "type": "function"
    },
    {
      "inputs": [
        {
          "internalType": "uint256",
          "name": "_amount",
          "type": "uint256"
        }
      ],
      "name": "publicMint",
      "outputs": [],
      "stateMutability": "payable",
      "type": "function"
    },
    {
      "inputs": [],
      "name": "publicMintingEnabled",
      "outputs": [
        {
          "internalType": "bool",
          "name": "",
          "type": "bool"
        }
      ],
      "stateMutability": "view",
      "type": "function"
    },
    {
      "inputs": [],
      "name": "renounceOwnership",
      "outputs": [],
      "stateMutability": "pure",
      "type": "function"
    },
    {
      "inputs": [
        {
          "internalType": "uint256",
          "name": "_tokenId",
          "type": "uint256"
        },
        {
          "internalType": "uint256",
          "name": "_salePrice",
          "type": "uint256"
        }
      ],
      "name": "royaltyInfo",
      "outputs": [
        {
          "internalType": "address",
          "name": "",
          "type": "address"
        },
        {
          "internalType": "uint256",
          "name": "",
          "type": "uint256"
        }
      ],
      "stateMutability": "view",
      "type": "function"
    },
    {
      "inputs": [
        {
          "internalType": "address",
          "name": "from",
          "type": "address"
        },
        {
          "internalType": "address",
          "name": "to",
          "type": "address"
        },
        {
          "internalType": "uint256",
          "name": "tokenId",
          "type": "uint256"
        }
      ],
      "name": "safeTransferFrom",
      "outputs": [],
      "stateMutability": "payable",
      "type": "function"
    },
    {
      "inputs": [
        {
          "internalType": "address",
          "name": "from",
          "type": "address"
        },
        {
          "internalType": "address",
          "name": "to",
          "type": "address"
        },
        {
          "internalType": "uint256",
          "name": "tokenId",
          "type": "uint256"
        },
        {
          "internalType": "bytes",
          "name": "_data",
          "type": "bytes"
        }
      ],
      "name": "safeTransferFrom",
      "outputs": [],
      "stateMutability": "payable",
      "type": "function"
    },
    {
      "inputs": [
        {
          "internalType": "address",
          "name": "operator",
          "type": "address"
        },
        {
          "internalType": "bool",
          "name": "approved",
          "type": "bool"
        }
      ],
      "name": "setApprovalForAll",
      "outputs": [],
      "stateMutability": "nonpayable",
      "type": "function"
    },
    {
      "inputs": [
        {
          "internalType": "address",
          "name": "owner",
          "type": "address"
        },
        {
          "internalType": "uint64",
          "name": "aux",
          "type": "uint64"
        }
      ],
      "name": "setAux",
      "outputs": [],
      "stateMutability": "nonpayable",
      "type": "function"
    },
    {
      "inputs": [
        {
          "internalType": "string",
          "name": "newURI",
          "type": "string"
        }
      ],
      "name": "setBaseURI",
      "outputs": [],
      "stateMutability": "nonpayable",
      "type": "function"
    },
    {
      "inputs": [
        {
          "internalType": "bytes32",
          "name": "merkleRoot_",
          "type": "bytes32"
        }
      ],
      "name": "setMerkleRoot",
      "outputs": [],
      "stateMutability": "nonpayable",
      "type": "function"
    },
    {
      "inputs": [
        {
          "internalType": "string",
          "name": "newExtention",
          "type": "string"
        }
      ],
      "name": "setURIExtention",
      "outputs": [],
      "stateMutability": "nonpayable",
      "type": "function"
    },
    {
      "inputs": [
        {
          "internalType": "uint256",
          "name": "_newPrice",
          "type": "uint256"
        }
      ],
      "name": "setUSDPrice",
      "outputs": [],
      "stateMutability": "nonpayable",
      "type": "function"
    },
    {
      "inputs": [
        {
          "internalType": "bytes4",
          "name": "interfaceId",
          "type": "bytes4"
        }
      ],
      "name": "supportsInterface",
      "outputs": [
        {
          "internalType": "bool",
          "name": "",
          "type": "bool"
        }
      ],
      "stateMutability": "view",
      "type": "function"
    },
    {
      "inputs": [],
      "name": "symbol",
      "outputs": [
        {
          "internalType": "string",
          "name": "",
          "type": "string"
        }
      ],
      "stateMutability": "view",
      "type": "function"
    },
    {
      "inputs": [
        {
          "internalType": "uint256",
          "name": "tokenId",
          "type": "uint256"
        }
      ],
      "name": "tokenURI",
      "outputs": [
        {
          "internalType": "string",
          "name": "",
          "type": "string"
        }
      ],
      "stateMutability": "view",
      "type": "function"
    },
    {
      "inputs": [
        {
          "internalType": "address",
          "name": "owner",
          "type": "address"
        }
      ],
      "name": "tokensOfOwner",
      "outputs": [
        {
          "internalType": "uint256[]",
          "name": "",
          "type": "uint256[]"
        }
      ],
      "stateMutability": "view",
      "type": "function"
    },
    {
      "inputs": [
        {
          "internalType": "address",
          "name": "owner",
          "type": "address"
        },
        {
          "internalType": "uint256",
          "name": "start",
          "type": "uint256"
        },
        {
          "internalType": "uint256",
          "name": "stop",
          "type": "uint256"
        }
      ],
      "name": "tokensOfOwnerIn",
      "outputs": [
        {
          "internalType": "uint256[]",
          "name": "",
          "type": "uint256[]"
        }
      ],
      "stateMutability": "view",
      "type": "function"
    },
    {
      "inputs": [],
      "name": "totalSupply",
      "outputs": [
        {
          "internalType": "uint256",
          "name": "",
          "type": "uint256"
        }
      ],
      "stateMutability": "view",
      "type": "function"
    },
    {
      "inputs": [
        {
          "internalType": "address",
          "name": "from",
          "type": "address"
        },
        {
          "internalType": "address",
          "name": "to",
          "type": "address"
        },
        {
          "internalType": "uint256",
          "name": "tokenId",
          "type": "uint256"
        }
      ],
      "name": "transferFrom",
      "outputs": [],
      "stateMutability": "payable",
      "type": "function"
    },
    {
      "inputs": [
        {
          "internalType": "address",
          "name": "newOwner",
          "type": "address"
        }
      ],
      "name": "transferOwnership",
      "outputs": [],
      "stateMutability": "nonpayable",
      "type": "function"
    }
  ],
  "bytecode": {
    "object": "0x600f805460ff19169055610100604052600460c09081526375726c2f60e01b60e052601190620000309082620003c6565b50604080518082019091526005815264173539b7b760d91b60208201526012906200005c9082620003c6565b503480156200006a57600080fd5b5060405162004303380380620043038339810160408190526200008d91620004af565b6040518060400160405280600981526020016812185b185b185b999d60ba1b815250604051806040016040528060048152602001631213919560e21b8152508160039081620000dd9190620003c6565b506004620000ec8282620003c6565b50506001805550620000fe33620001ac565b6001600d556001600160a01b03808316608052811660a08190526040805163313ce56760e01b8152905163313ce567916004808201926020929091908290030181865afa15801562000154573d6000803e3d6000fd5b505050506040513d601f19601f820116820180604052508101906200017a9190620004e7565b6200018790600a62000628565b620001949060ef62000639565b600e55620001a43360fa620001ca565b505062000653565b600a80546001600160a01b0319169055620001c781620002cf565b50565b6127106001600160601b03821611156200023e5760405162461bcd60e51b815260206004820152602a60248201527f455243323938313a20726f79616c7479206665652077696c6c206578636565646044820152692073616c65507269636560b01b60648201526084015b60405180910390fd5b6001600160a01b038216620002965760405162461bcd60e51b815260206004820152601960248201527f455243323938313a20696e76616c696420726563656976657200000000000000604482015260640162000235565b604080518082019091526001600160a01b039092168083526001600160601b039091166020909201829052600160a01b90910217600b55565b600980546001600160a01b038381166001600160a01b0319831681179093556040519116919082907f8be0079c531659141344cd1fd0a4f28419497f9722a3daafe3b4186f6b6457e090600090a35050565b634e487b7160e01b600052604160045260246000fd5b600181811c908216806200034c57607f821691505b6020821081036200036d57634e487b7160e01b600052602260045260246000fd5b50919050565b601f821115620003c157600081815260208120601f850160051c810160208610156200039c5750805b601f850160051c820191505b81811015620003bd57828155600101620003a8565b5050505b505050565b81516001600160401b03811115620003e257620003e262000321565b620003fa81620003f3845462000337565b8462000373565b602080601f831160018114620004325760008415620004195750858301515b600019600386901b1c1916600185901b178555620003bd565b600085815260208120601f198616915b82811015620004635788860151825594840194600190910190840162000442565b5085821015620004825787850151600019600388901b60f8161c191681555b5050505050600190811b01905550565b80516001600160a01b0381168114620004aa57600080fd5b919050565b60008060408385031215620004c357600080fd5b620004ce8362000492565b9150620004de6020840162000492565b90509250929050565b600060208284031215620004fa57600080fd5b815160ff811681146200050c57600080fd5b9392505050565b634e487b7160e01b600052601160045260246000fd5b600181815b808511156200056a5781600019048211156200054e576200054e62000513565b808516156200055c57918102915b93841c93908002906200052e565b509250929050565b600082620005835750600162000622565b81620005925750600062000622565b8160018114620005ab5760028114620005b657620005d6565b600191505062000622565b60ff841115620005ca57620005ca62000513565b50506001821b62000622565b5060208310610133831016604e8410600b8410161715620005fb575081810a62000622565b62000607838362000529565b80600019048211156200061e576200061e62000513565b0290505b92915050565b60006200050c60ff84168362000572565b808202811582820484141762000622576200062262000513565b60805160a051613c60620006a36000396000611e040152600081816122330152818161237c015281816127ca0152818161296001528181612a2c01528181612af80152612bc40152613c606000f3fe6080604052600436106102a05760003560e01c806379ba50971161016e578063bf0b175e116100cb578063e4fc6b6d1161007f578063eb91d37e11610064578063eb91d37e146107ab578063f2fde38b146107c0578063f7beb98a146107e057600080fd5b8063e4fc6b6d14610740578063e985e9c51461075557600080fd5b8063c23dc68f116100b0578063c23dc68f146106c8578063c87b56dd146106f5578063e30c39781461071557600080fd5b8063bf0b175e1461067c578063c13bd95c146106b557600080fd5b80639190ad471161012257806399a2557a1161010757806399a2557a14610629578063a22cb46514610649578063b88d4fde1461066957600080fd5b80639190ad47146105ff57806395d89b411461061457600080fd5b80638462151c116101535780638462151c1461058d5780638da5cb5b146105ba5780638dec9f7a146105e557600080fd5b806379ba5097146105585780637cb647591461056d57600080fd5b80632db115441161021c57806355f804b3116101d05780636352211e116101b55780636352211e1461050357806370a0823114610523578063715018a61461054357600080fd5b806355f804b3146104b65780635bbb2177146104d657600080fd5b80634408a046116102015780634408a04614610456578063453ab14114610476578063484b973c1461049657600080fd5b80632db115441461043057806342842e0e1461044357600080fd5b8063147d959a116102735780631a16aacd116102585780631a16aacd146103bb57806323b872dd146103d15780632a55205a146103e457600080fd5b8063147d959a1461035657806318160ddd1461037657600080fd5b806301ffc9a7146102a557806306fdde03146102da578063081812fc146102fc578063095ea7b314610341575b600080fd5b3480156102b157600080fd5b506102c56102c03660046131a7565b6107f5565b60405190151581526020015b60405180910390f35b3480156102e657600080fd5b506102ef610981565b6040516102d19190613232565b34801561030857600080fd5b5061031c610317366004613245565b610a13565b60405173ffffffffffffffffffffffffffffffffffffffff90911681526020016102d1565b61035461034f366004613287565b610a7d565b005b34801561036257600080fd5b50610354610371366004613245565b600e55565b34801561038257600080fd5b50600254600154037fffffffffffffffffffffffffffffffffffffffffffffffffffffffffffffffff015b6040519081526020016102d1565b3480156103c757600080fd5b506103ad600e5481565b6103546103df3660046132b1565b610b68565b3480156103f057600080fd5b506104046103ff3660046132ed565b610df8565b6040805173ffffffffffffffffffffffffffffffffffffffff90931683526020830191909152016102d1565b61035461043e366004613245565b610ef1565b6103546104513660046132b1565b611174565b34801561046257600080fd5b5061035461047136600461330f565b611194565b34801561048257600080fd5b50610354610491366004613381565b6111a9565b3480156104a257600080fd5b506103546104b1366004613287565b611204565b3480156104c257600080fd5b506103546104d136600461330f565b611216565b3480156104e257600080fd5b506104f66104f136600461340a565b61122b565b6040516102d1919061344c565b34801561050f57600080fd5b5061031c61051e366004613245565b611315565b34801561052f57600080fd5b506103ad61053e3660046134d6565b611320565b34801561054f57600080fd5b506103546113a2565b34801561056457600080fd5b50610354611406565b34801561057957600080fd5b50610354610588366004613245565b601055565b34801561059957600080fd5b506105ad6105a83660046134d6565b6114bb565b6040516102d191906134f1565b3480156105c657600080fd5b5060095473ffffffffffffffffffffffffffffffffffffffff1661031c565b3480156105f157600080fd5b50600f546102c59060ff1681565b34801561060b57600080fd5b506103546115e6565b34801561062057600080fd5b506102ef611618565b34801561063557600080fd5b506105ad610644366004613529565b611627565b34801561065557600080fd5b5061035461066436600461356a565b6117ef565b6103546106773660046135c5565b611886565b34801561068857600080fd5b5061069c6106973660046134d6565b6118f6565b60405167ffffffffffffffff90911681526020016102d1565b6103546106c33660046136bf565b611924565b3480156106d457600080fd5b506106e86106e3366004613245565b611cbc565b6040516102d1919061370b565b34801561070157600080fd5b506102ef610710366004613245565b611d44565b34801561072157600080fd5b50600a5473ffffffffffffffffffffffffffffffffffffffff1661031c565b34801561074c57600080fd5b50610354611de3565b34801561076157600080fd5b506102c561077036600461375d565b73ffffffffffffffffffffffffffffffffffffffff918216600090815260086020908152604080832093909416825291909152205460ff1690565b3480156107b757600080fd5b506103ad611dfd565b3480156107cc57600080fd5b506103546107db3660046134d6565b611fb5565b3480156107ec57600080fd5b50610354612065565b60007fffffffff0000000000000000000000000000000000000000000000000000000082167f8446a79e00000000000000000000000000000000000000000000000000000000148061088857507fffffffff0000000000000000000000000000000000000000000000000000000082167fc21b8f2800000000000000000000000000000000000000000000000000000000145b806108d457507fffffffff0000000000000000000000000000000000000000000000000000000082167f36372b0700000000000000000000000000000000000000000000000000000000145b8061092057507fffffffff0000000000000000000000000000000000000000000000000000000082167f2baae9fd00000000000000000000000000000000000000000000000000000000145b8061096c57507fffffffff0000000000000000000000000000000000000000000000000000000082167f01ffc9a700000000000000000000000000000000000000000000000000000000145b8061097b575061097b8261209a565b92915050565b60606003805461099090613790565b80601f01602080910402602001604051908101604052809291908181526020018280546109bc90613790565b8015610a095780601f106109de57610100808354040283529160200191610a09565b820191906000526020600020905b8154815290600101906020018083116109ec57829003601f168201915b5050505050905090565b6000610a1e826120f0565b610a54576040517fcf4700e400000000000000000000000000000000000000000000000000000000815260040160405180910390fd5b5060009081526007602052604090205473ffffffffffffffffffffffffffffffffffffffff1690565b6000610a8882611315565b90503373ffffffffffffffffffffffffffffffffffffffff821614610ae757610ab18133610770565b610ae7576040517fcfb3b94200000000000000000000000000000000000000000000000000000000815260040160405180910390fd5b60008281526007602052604080822080547fffffffffffffffffffffffff00000000000000000000000000000000000000001673ffffffffffffffffffffffffffffffffffffffff87811691821790925591518593918516917f8c5be1e5ebec7d5bd14f71427d1e84f3dd0314c0f7b2291e5b200ac8c7c3b92591a4505050565b6000610b738261213e565b90508373ffffffffffffffffffffffffffffffffffffffff168173ffffffffffffffffffffffffffffffffffffffff1614610bda576040517fa114810000000000000000000000000000000000000000000000000000000000815260040160405180910390fd5b600082815260076020526040902080543380821473ffffffffffffffffffffffffffffffffffffffff881690911417610c4d57610c178633610770565b610c4d576040517f59c896be00000000000000000000000000000000000000000000000000000000815260040160405180910390fd5b73ffffffffffffffffffffffffffffffffffffffff8516610c9a576040517fea553b3400000000000000000000000000000000000000000000000000000000815260040160405180910390fd5b8015610ca557600082555b73ffffffffffffffffffffffffffffffffffffffff86811660009081526006602052604080822080547fffffffffffffffffffffffffffffffffffffffffffffffffffffffffffffffff019055918716808252919020805460010190554260a01b177c0200000000000000000000000000000000000000000000000000000000176000858152600560205260408120919091557c020000000000000000000000000000000000000000000000000000000084169003610d9457600184016000818152600560205260408120549003610d92576001548114610d925760008181526005602052604090208490555b505b838573ffffffffffffffffffffffffffffffffffffffff168773ffffffffffffffffffffffffffffffffffffffff167fddf252ad1be2c89b69c2b068fc378daa952ba7f163c4a11628f55a4df523b3ef60405160405180910390a45b505050505050565b6000828152600c6020908152604080832081518083019092525473ffffffffffffffffffffffffffffffffffffffff8116808352740100000000000000000000000000000000000000009091046bffffffffffffffffffffffff16928201929092528291610eb3575060408051808201909152600b5473ffffffffffffffffffffffffffffffffffffffff811682527401000000000000000000000000000000000000000090046bffffffffffffffffffffffff1660208201525b602081015160009061271090610ed7906bffffffffffffffffffffffff1687613812565b610ee19190613829565b91519350909150505b9250929050565b333214610f5f576040517f08c379a000000000000000000000000000000000000000000000000000000000815260206004820152601a60248201527f7075626c69633a20626f74206973206e6f7420616c6c6f77656400000000000060448201526064015b60405180910390fd5b600254600154610bb99190037fffffffffffffffffffffffffffffffffffffffffffffffffffffffffffffffff0110610ff4576040517f08c379a000000000000000000000000000000000000000000000000000000000815260206004820152601760248201527f7075626c69633a20737570706c792065786365656465640000000000000000006044820152606401610f56565b600b8110611084576040517f08c379a000000000000000000000000000000000000000000000000000000000815260206004820152602260248201527f7075626c69633a2063616e6e6f74206d696e746564206d6f7265207468616e2060448201527f31300000000000000000000000000000000000000000000000000000000000006064820152608401610f56565b600f5460ff166110f0576040517f08c379a000000000000000000000000000000000000000000000000000000000815260206004820152601e60248201527f7075626c69633a206d696e74696e67206973206e6f7420656e61626c656400006044820152606401610f56565b60006110fa611dfd565b905061110e6111098383613812565b6121fd565b611118338361248a565b3073ffffffffffffffffffffffffffffffffffffffff1663e4fc6b6d6040518163ffffffff1660e01b8152600401600060405180830381600087803b15801561116057600080fd5b505af1158015610df0573d6000803e3d6000fd5b61118f83838360405180602001604052806000815250611886565b505050565b61119c6124a4565b601261118f8284836138aa565b6111b16124a4565b73ffffffffffffffffffffffffffffffffffffffff82166000908152600660205260409020805460c083901b77ffffffffffffffffffffffffffffffffffffffffffffffff9091161790555050565b5050565b61120c6124a4565b611200828261248a565b61121e6124a4565b601161118f8284836138aa565b60608160008167ffffffffffffffff81111561124957611249613596565b6040519080825280602002602001820160405280156112b957816020015b6040805160808101825260008082526020808301829052928201819052606082015282527fffffffffffffffffffffffffffffffffffffffffffffffffffffffffffffffff9092019101816112675790505b50905060005b82811461130c576112e78686838181106112db576112db6139c4565b90506020020135611cbc565b8282815181106112f9576112f96139c4565b60209081029190910101526001016112bf565b50949350505050565b600061097b8261213e565b600073ffffffffffffffffffffffffffffffffffffffff821661136f576040517f8f4eb60400000000000000000000000000000000000000000000000000000000815260040160405180910390fd5b5073ffffffffffffffffffffffffffffffffffffffff1660009081526006602052604090205467ffffffffffffffff1690565b6040517f08c379a000000000000000000000000000000000000000000000000000000000815260206004820152600f60248201527f63616e6e6f742072656e6f756e636500000000000000000000000000000000006044820152606401610f56565b565b600a54339073ffffffffffffffffffffffffffffffffffffffff1681146114af576040517f08c379a000000000000000000000000000000000000000000000000000000000815260206004820152602960248201527f4f776e61626c6532537465703a2063616c6c6572206973206e6f74207468652060448201527f6e6577206f776e657200000000000000000000000000000000000000000000006064820152608401610f56565b6114b881612525565b50565b606060008060006114cb85611320565b905060008167ffffffffffffffff8111156114e8576114e8613596565b604051908082528060200260200182016040528015611511578160200160208202803683370190505b5060408051608081018252600080825260208201819052918101829052606081019190915290915060015b8386146115da5761154c81612556565b915081604001516115d257815173ffffffffffffffffffffffffffffffffffffffff161561157957815194505b8773ffffffffffffffffffffffffffffffffffffffff168573ffffffffffffffffffffffffffffffffffffffff16036115d257808387806001019850815181106115c5576115c56139c4565b6020026020010181815250505b60010161153c565b50909695505050505050565b6115ee6124a4565b600f80547fffffffffffffffffffffffffffffffffffffffffffffffffffffffffffffff00169055565b60606004805461099090613790565b6060818310611662576040517f32c1995a00000000000000000000000000000000000000000000000000000000815260040160405180910390fd5b60008061166e60015490565b9050600185101561167e57600194505b8084111561168a578093505b600061169587611320565b9050848610156116b457858503818110156116ae578091505b506116b8565b5060005b60008167ffffffffffffffff8111156116d3576116d3613596565b6040519080825280602002602001820160405280156116fc578160200160208202803683370190505b509050816000036117125793506117e892505050565b600061171d88611cbc565b90506000816040015161172e575080515b885b8881141580156117405750848714155b156117dc5761174e81612556565b925082604001516117d457825173ffffffffffffffffffffffffffffffffffffffff161561177b57825191505b8a73ffffffffffffffffffffffffffffffffffffffff168273ffffffffffffffffffffffffffffffffffffffff16036117d457808488806001019950815181106117c7576117c76139c4565b6020026020010181815250505b600101611730565b50505092835250909150505b9392505050565b33600081815260086020908152604080832073ffffffffffffffffffffffffffffffffffffffff87168085529083529281902080547fffffffffffffffffffffffffffffffffffffffffffffffffffffffffffffff001686151590811790915590519081529192917f17307eab39ab6107e8899845ad3d59bd9653f200f220920489ca2b5937696c31910160405180910390a35050565b611891848484610b68565b73ffffffffffffffffffffffffffffffffffffffff83163b156118f0576118ba848484846125fb565b6118f0576040517fd1a57ed600000000000000000000000000000000000000000000000000000000815260040160405180910390fd5b50505050565b73ffffffffffffffffffffffffffffffffffffffff811660009081526006602052604081205460c01c61097b565b33321461198d576040517f08c379a000000000000000000000000000000000000000000000000000000000815260206004820152601b60248201527f70726573616c653a20626f74206973206e6f7420616c6c6f77656400000000006044820152606401610f56565b6119ca3383838080602002602001604051908101604052809392919081815260200183836020028082843760009201919091525061277492505050565b611a56576040517f08c379a000000000000000000000000000000000000000000000000000000000815260206004820152602860248201527f70726573616c653a2061646472657373206973206e6f7420696e20746865207760448201527f686974656c6973740000000000000000000000000000000000000000000000006064820152608401610f56565b3360009081526006602052604090205460039060c01c67ffffffffffffffff1610611b03576040517f08c379a000000000000000000000000000000000000000000000000000000000815260206004820152602660248201527f70726573616c653a20616464726573732063616e6e6f74206d696e746564206160448201527f6e796d6f726500000000000000000000000000000000000000000000000000006064820152608401610f56565b3360009081526006602052604090205460c01c831115611ba5576040517f08c379a000000000000000000000000000000000000000000000000000000000815260206004820152602860248201527f70726573616c653a2063616e6e6f74206d696e746564206d6f7265207468616e60448201527f20616c6c6f7765640000000000000000000000000000000000000000000000006064820152608401610f56565b600f5460ff1615611c37576040517f08c379a0000000000000000000000000000000000000000000000000000000008152602060048201526024808201527f70726573616c653a207075626c6963206d696e74696e6720616c72656164792060448201527f6c697665000000000000000000000000000000000000000000000000000000006064820152608401610f56565b6000611c41611dfd565b9050611c506111098583613812565b611c5a338561248a565b33600090815260066020526040812054611c7890869060c01c6139f3565b336000908152600660205260409020805477ffffffffffffffffffffffffffffffffffffffffffffffff1660c083901b1790559050611cb5612799565b5050505050565b6040805160808101825260008082526020820181905291810182905260608101919091526040805160808101825260008082526020820181905291810182905260608101919091526001831080611d1557506001548310155b15611d205792915050565b611d2983612556565b9050806040015115611d3b5792915050565b6117e883612c46565b6060611d4f826120f0565b611d85576040517fa14c4b5000000000000000000000000000000000000000000000000000000000815260040160405180910390fd5b6000611d8f612ce4565b90508051600003611daf57604051806020016040528060008152506117e8565b80611db984612cf3565b6012604051602001611dcd93929190613a1b565b6040516020818303038152906040529392505050565b611deb612d55565b611df3612799565b6114046001600d55565b60008060007f000000000000000000000000000000000000000000000000000000000000000073ffffffffffffffffffffffffffffffffffffffff1663feaf968c6040518163ffffffff1660e01b815260040160a060405180830381865afa158015611e6d573d6000803e3d6000fd5b505050506040513d601f19601f82011682018060405250810190611e919190613af3565b5093505092505060008213611f28576040517f08c379a000000000000000000000000000000000000000000000000000000000815260206004820152602360248201527f466565642070726963652073686f756c6420626520677265617465722074686160448201527f6e203000000000000000000000000000000000000000000000000000000000006064820152608401610f56565b611f356201518042613b43565b8111611f9d576040517f08c379a000000000000000000000000000000000000000000000000000000000815260206004820152600b60248201527f5374616c652050726963650000000000000000000000000000000000000000006044820152606401610f56565b600082600e54611fad9190613829565b949350505050565b611fbd6124a4565b600a805473ffffffffffffffffffffffffffffffffffffffff83167fffffffffffffffffffffffff0000000000000000000000000000000000000000909116811790915561202060095473ffffffffffffffffffffffffffffffffffffffff1690565b73ffffffffffffffffffffffffffffffffffffffff167f38d16b8cac22d99fc7c124b9cd0de2d3fa1faef420bfe791d8c362d765e2270060405160405180910390a350565b61206d6124a4565b600f80547fffffffffffffffffffffffffffffffffffffffffffffffffffffffffffffff00166001179055565b60007fffffffff0000000000000000000000000000000000000000000000000000000082167f2a55205a00000000000000000000000000000000000000000000000000000000148061097b575061097b82612dc8565b600081600111158015612104575060015482105b801561097b5750506000908152600560205260409020547c0100000000000000000000000000000000000000000000000000000000161590565b600081806001116121cb576001548110156121cb57600081815260056020526040812054907c0100000000000000000000000000000000000000000000000000000000821690036121c9575b806000036117e857507fffffffffffffffffffffffffffffffffffffffffffffffffffffffffffffffff0160008181526005602052604090205461218a565b505b6040517fdf2d9b4200000000000000000000000000000000000000000000000000000000815260040160405180910390fd5b6040517fdd62ed3e00000000000000000000000000000000000000000000000000000000815233600482015230602482015281907f000000000000000000000000000000000000000000000000000000000000000073ffffffffffffffffffffffffffffffffffffffff169063dd62ed3e90604401602060405180830381865afa15801561228f573d6000803e3d6000fd5b505050506040513d601f19601f820116820180604052508101906122b39190613b56565b1015612341576040517f08c379a000000000000000000000000000000000000000000000000000000000815260206004820152602260248201527f7472616e73666572496e3a20696e73756666696369656e7420616c6c6f77616e60448201527f63650000000000000000000000000000000000000000000000000000000000006064820152608401610f56565b6040517f23b872dd000000000000000000000000000000000000000000000000000000008152336004820152306024820152604481018290527f000000000000000000000000000000000000000000000000000000000000000073ffffffffffffffffffffffffffffffffffffffff16906323b872dd906064016020604051808303816000875af11580156123da573d6000803e3d6000fd5b505050506040513d601f19601f820116820180604052508101906123fe9190613b6f565b6114b8576040517f08c379a000000000000000000000000000000000000000000000000000000000815260206004820152602360248201527f7472616e7366657246726f6d3a2063616e6e6f74207472616e7366657220746f60448201527f6b656e00000000000000000000000000000000000000000000000000000000006064820152608401610f56565b611200828260405180602001604052806000815250612ea9565b60095473ffffffffffffffffffffffffffffffffffffffff163314611404576040517f08c379a000000000000000000000000000000000000000000000000000000000815260206004820181905260248201527f4f776e61626c653a2063616c6c6572206973206e6f7420746865206f776e65726044820152606401610f56565b600a80547fffffffffffffffffffffffff00000000000000000000000000000000000000001690556114b881612f35565b60408051608081018252600080825260208201819052918101829052606081019190915260008281526005602052604090205461097b906040805160808101825273ffffffffffffffffffffffffffffffffffffffff8316815260a083901c67ffffffffffffffff1660208201527c0100000000000000000000000000000000000000000000000000000000831615159181019190915260e89190911c606082015290565b6040517f150b7a0200000000000000000000000000000000000000000000000000000000815260009073ffffffffffffffffffffffffffffffffffffffff85169063150b7a0290612656903390899088908890600401613b8c565b6020604051808303816000875af19250505080156126af575060408051601f3d9081017fffffffffffffffffffffffffffffffffffffffffffffffffffffffffffffffe01682019092526126ac91810190613bd5565b60015b612726573d8080156126dd576040519150601f19603f3d011682016040523d82523d6000602084013e6126e2565b606091505b50805160000361271e576040517fd1a57ed600000000000000000000000000000000000000000000000000000000815260040160405180910390fd5b805181602001fd5b7fffffffff00000000000000000000000000000000000000000000000000000000167f150b7a0200000000000000000000000000000000000000000000000000000000149050949350505050565b6000808360601b6bffffffffffffffffffffffff19169050611fad8360105483612fac565b6040517f70a082310000000000000000000000000000000000000000000000000000000081523060048201526000907f000000000000000000000000000000000000000000000000000000000000000073ffffffffffffffffffffffffffffffffffffffff16906370a0823190602401602060405180830381865afa158015612826573d6000803e3d6000fd5b505050506040513d601f19601f8201168201806040525081019061284a9190613b56565b9050600081116128b6576040517f08c379a000000000000000000000000000000000000000000000000000000000815260206004820152601560248201527f4e6f205553444320746f206469737472696275746500000000000000000000006044820152606401610f56565b600060056128c5836003613812565b6128cf9190613829565b905060006128de600a84613829565b9050600060146128ef856003613812565b6128f99190613829565b90506000601461290a866003613812565b6129149190613829565b6040517fa9059cbb00000000000000000000000000000000000000000000000000000000815273b85885977d5daf4d6768afc670c14a5fc209b8e96004820152602481018690529091507f000000000000000000000000000000000000000000000000000000000000000073ffffffffffffffffffffffffffffffffffffffff169063a9059cbb906044016020604051808303816000875af11580156129be573d6000803e3d6000fd5b505050506040513d601f19601f820116820180604052508101906129e29190613b6f565b506040517fa9059cbb000000000000000000000000000000000000000000000000000000008152736a07f68a60eb5890947a5af40f3ea928447d55276004820152602481018490527f000000000000000000000000000000000000000000000000000000000000000073ffffffffffffffffffffffffffffffffffffffff169063a9059cbb906044016020604051808303816000875af1158015612a8a573d6000803e3d6000fd5b505050506040513d601f19601f82011682018060405250810190612aae9190613b6f565b506040517fa9059cbb0000000000000000000000000000000000000000000000000000000081527342ef5475eb5951b92ce28dccecb720654623fcb26004820152602481018390527f000000000000000000000000000000000000000000000000000000000000000073ffffffffffffffffffffffffffffffffffffffff169063a9059cbb906044016020604051808303816000875af1158015612b56573d6000803e3d6000fd5b505050506040513d601f19601f82011682018060405250810190612b7a9190613b6f565b506040517fa9059cbb00000000000000000000000000000000000000000000000000000000815273742a1b678a34f9e79ff4468968ffed99676ad3dc6004820152602481018290527f000000000000000000000000000000000000000000000000000000000000000073ffffffffffffffffffffffffffffffffffffffff169063a9059cbb906044016020604051808303816000875af1158015612c22573d6000803e3d6000fd5b505050506040513d601f19601f82011682018060405250810190610df09190613b6f565b60408051608081018252600080825260208201819052918101829052606081019190915261097b612c768361213e565b6040805160808101825273ffffffffffffffffffffffffffffffffffffffff8316815260a083901c67ffffffffffffffff1660208201527c0100000000000000000000000000000000000000000000000000000000831615159181019190915260e89190911c606082015290565b60606011805461099090613790565b606060a06040510180604052602081039150506000815280825b600183039250600a81066030018353600a900480612d0d57508190037fffffffffffffffffffffffffffffffffffffffffffffffffffffffffffffffe0909101908152919050565b6002600d5403612dc1576040517f08c379a000000000000000000000000000000000000000000000000000000000815260206004820152601f60248201527f5265656e7472616e637947756172643a207265656e7472616e742063616c6c006044820152606401610f56565b6002600d55565b60007f01ffc9a7000000000000000000000000000000000000000000000000000000007fffffffff0000000000000000000000000000000000000000000000000000000083161480612e5b57507f80ac58cd000000000000000000000000000000000000000000000000000000007fffffffff000000000000000000000000000000000000000000000000000000008316145b8061097b5750507fffffffff00000000000000000000000000000000000000000000000000000000167f5b5e139f000000000000000000000000000000000000000000000000000000001490565b612eb38383612fc2565b73ffffffffffffffffffffffffffffffffffffffff83163b1561118f576001548281035b612eea60008683806001019450866125fb565b612f20576040517fd1a57ed600000000000000000000000000000000000000000000000000000000815260040160405180910390fd5b818110612ed7578160015414611cb557600080fd5b6009805473ffffffffffffffffffffffffffffffffffffffff8381167fffffffffffffffffffffffff0000000000000000000000000000000000000000831681179093556040519116919082907f8be0079c531659141344cd1fd0a4f28419497f9722a3daafe3b4186f6b6457e090600090a35050565b600082612fb98584613100565b14949350505050565b6001546000829003613000576040517fb562e8dd00000000000000000000000000000000000000000000000000000000815260040160405180910390fd5b73ffffffffffffffffffffffffffffffffffffffff831660008181526006602090815260408083208054680100000000000000018802019055848352600590915281206001851460e11b4260a01b178317905582840190839083907fddf252ad1be2c89b69c2b068fc378daa952ba7f163c4a11628f55a4df523b3ef8180a4600183015b8181146130bc57808360007fddf252ad1be2c89b69c2b068fc378daa952ba7f163c4a11628f55a4df523b3ef600080a4600101613084565b50816000036130f7576040517f2e07630000000000000000000000000000000000000000000000000000000000815260040160405180910390fd5b60015550505050565b600081815b84518110156131455761313182868381518110613124576131246139c4565b602002602001015161314d565b91508061313d81613bf2565b915050613105565b509392505050565b60008183106131695760008281526020849052604090206117e8565b5060009182526020526040902090565b7fffffffff00000000000000000000000000000000000000000000000000000000811681146114b857600080fd5b6000602082840312156131b957600080fd5b81356117e881613179565b60005b838110156131df5781810151838201526020016131c7565b50506000910152565b600081518084526132008160208601602086016131c4565b601f017fffffffffffffffffffffffffffffffffffffffffffffffffffffffffffffffe0169290920160200192915050565b6020815260006117e860208301846131e8565b60006020828403121561325757600080fd5b5035919050565b803573ffffffffffffffffffffffffffffffffffffffff8116811461328257600080fd5b919050565b6000806040838503121561329a57600080fd5b6132a38361325e565b946020939093013593505050565b6000806000606084860312156132c657600080fd5b6132cf8461325e565b92506132dd6020850161325e565b9150604084013590509250925092565b6000806040838503121561330057600080fd5b50508035926020909101359150565b6000806020838503121561332257600080fd5b823567ffffffffffffffff8082111561333a57600080fd5b818501915085601f83011261334e57600080fd5b81358181111561335d57600080fd5b86602082850101111561336f57600080fd5b60209290920196919550909350505050565b6000806040838503121561339457600080fd5b61339d8361325e565b9150602083013567ffffffffffffffff811681146133ba57600080fd5b809150509250929050565b60008083601f8401126133d757600080fd5b50813567ffffffffffffffff8111156133ef57600080fd5b6020830191508360208260051b8501011115610eea57600080fd5b6000806020838503121561341d57600080fd5b823567ffffffffffffffff81111561343457600080fd5b613440858286016133c5565b90969095509350505050565b6020808252825182820181905260009190848201906040850190845b818110156115da576134c383855173ffffffffffffffffffffffffffffffffffffffff815116825267ffffffffffffffff602082015116602083015260408101511515604083015262ffffff60608201511660608301525050565b9284019260809290920191600101613468565b6000602082840312156134e857600080fd5b6117e88261325e565b6020808252825182820181905260009190848201906040850190845b818110156115da5783518352928401929184019160010161350d565b60008060006060848603121561353e57600080fd5b6135478461325e565b95602085013595506040909401359392505050565b80151581146114b857600080fd5b6000806040838503121561357d57600080fd5b6135868361325e565b915060208301356133ba8161355c565b7f4e487b7100000000000000000000000000000000000000000000000000000000600052604160045260246000fd5b600080600080608085870312156135db57600080fd5b6135e48561325e565b93506135f26020860161325e565b925060408501359150606085013567ffffffffffffffff8082111561361657600080fd5b818701915087601f83011261362a57600080fd5b81358181111561363c5761363c613596565b604051601f82017fffffffffffffffffffffffffffffffffffffffffffffffffffffffffffffffe0908116603f0116810190838211818310171561368257613682613596565b816040528281528a602084870101111561369b57600080fd5b82602086016020830137600060208483010152809550505050505092959194509250565b6000806000604084860312156136d457600080fd5b83359250602084013567ffffffffffffffff8111156136f257600080fd5b6136fe868287016133c5565b9497909650939450505050565b815173ffffffffffffffffffffffffffffffffffffffff16815260208083015167ffffffffffffffff169082015260408083015115159082015260608083015162ffffff16908201526080810161097b565b6000806040838503121561377057600080fd5b6137798361325e565b91506137876020840161325e565b90509250929050565b600181811c908216806137a457607f821691505b6020821081036137dd577f4e487b7100000000000000000000000000000000000000000000000000000000600052602260045260246000fd5b50919050565b7f4e487b7100000000000000000000000000000000000000000000000000000000600052601160045260246000fd5b808202811582820484141761097b5761097b6137e3565b60008261385f577f4e487b7100000000000000000000000000000000000000000000000000000000600052601260045260246000fd5b500490565b601f82111561118f57600081815260208120601f850160051c8101602086101561388b5750805b601f850160051c820191505b81811015610df057828155600101613897565b67ffffffffffffffff8311156138c2576138c2613596565b6138d6836138d08354613790565b83613864565b6000601f84116001811461392857600085156138f25750838201355b7fffffffffffffffffffffffffffffffffffffffffffffffffffffffffffffffff600387901b1c1916600186901b178355611cb5565b6000838152602090207fffffffffffffffffffffffffffffffffffffffffffffffffffffffffffffffe0861690835b828110156139775786850135825560209485019460019092019101613957565b50868210156139b2577fffffffffffffffffffffffffffffffffffffffffffffffffffffffffffffffff60f88860031b161c19848701351681555b505060018560011b0183555050505050565b7f4e487b7100000000000000000000000000000000000000000000000000000000600052603260045260246000fd5b67ffffffffffffffff828116828216039080821115613a1457613a146137e3565b5092915050565b600084516020613a2e8285838a016131c4565b855191840191613a418184848a016131c4565b8554920191600090613a5281613790565b60018281168015613a6a5760018114613a9d57613ac9565b7fffffffffffffffffffffffffffffffffffffffffffffffffffffffffffffff0084168752821515830287019450613ac9565b896000528560002060005b84811015613ac157815489820152908301908701613aa8565b505082870194505b50929a9950505050505050505050565b805169ffffffffffffffffffff8116811461328257600080fd5b600080600080600060a08688031215613b0b57600080fd5b613b1486613ad9565b9450602086015193506040860151925060608601519150613b3760808701613ad9565b90509295509295909350565b8181038181111561097b5761097b6137e3565b600060208284031215613b6857600080fd5b5051919050565b600060208284031215613b8157600080fd5b81516117e88161355c565b600073ffffffffffffffffffffffffffffffffffffffff808716835280861660208401525083604083015260806060830152613bcb60808301846131e8565b9695505050505050565b600060208284031215613be757600080fd5b81516117e881613179565b60007fffffffffffffffffffffffffffffffffffffffffffffffffffffffffffffffff8203613c2357613c236137e3565b506001019056fea264697066735822122022e3654a8dd467b7b80dfed38c19a4c1a2d65acb42144c607ff67091b4b4b22a64736f6c63430008130033",
    "linkReferences": {}
  },
  "methodIdentifiers": {
    "_usdPrice()": "1a16aacd",
    "acceptOwnership()": "79ba5097",
    "approve(address,uint256)": "095ea7b3",
    "balanceOf(address)": "70a08231",
    "disablePublicMinting()": "9190ad47",
    "distribute()": "e4fc6b6d",
    "enablePublicMinting()": "f7beb98a",
    "explicitOwnershipOf(uint256)": "c23dc68f",
    "explicitOwnershipsOf(uint256[])": "5bbb2177",
    "getApproved(uint256)": "081812fc",
    "getAux(address)": "bf0b175e",
    "getCurrentPrice()": "eb91d37e",
    "isApprovedForAll(address,address)": "e985e9c5",
    "name()": "06fdde03",
    "owner()": "8da5cb5b",
    "ownerMint(address,uint256)": "484b973c",
    "ownerOf(uint256)": "6352211e",
    "pendingOwner()": "e30c3978",
    "presale(uint256,bytes32[])": "c13bd95c",
    "publicMint(uint256)": "2db11544",
    "publicMintingEnabled()": "8dec9f7a",
    "renounceOwnership()": "715018a6",
    "royaltyInfo(uint256,uint256)": "2a55205a",
    "safeTransferFrom(address,address,uint256)": "42842e0e",
    "safeTransferFrom(address,address,uint256,bytes)": "b88d4fde",
    "setApprovalForAll(address,bool)": "a22cb465",
    "setAux(address,uint64)": "453ab141",
    "setBaseURI(string)": "55f804b3",
    "setMerkleRoot(bytes32)": "7cb64759",
    "setURIExtention(string)": "4408a046",
    "setUSDPrice(uint256)": "147d959a",
    "supportsInterface(bytes4)": "01ffc9a7",
    "symbol()": "95d89b41",
    "tokenURI(uint256)": "c87b56dd",
    "tokensOfOwner(address)": "8462151c",
    "tokensOfOwnerIn(address,uint256,uint256)": "99a2557a",
    "totalSupply()": "18160ddd",
    "transferFrom(address,address,uint256)": "23b872dd",
    "transferOwnership(address)": "f2fde38b"
  },
  "id": 39
}